:02000004085F93
:1040000000405F08FCFF5F08000006002300050178
:08401000040139180000000052
:104018001348144908B5884205D0134A824202D091
:10402800124B121A98471248124A0021124B121AC0
:10403800984712481249884205D0124A824202D053
:104048000A4B121A984710481049884205D0104A5E
:10405800824202D0054B121A9847014808BD00BF9A
:1040680034AC0710ECEE5F081CAE07102D0D1110D4
:104078001CAE0710FCAF0710A10E1110B8513F027B
:10408800B0405F08C0513F02C0513F02B8405F08CE
:0C409800F4FF3F0219405F080000000028
:0840A400641BE079010000003B
:0840B0009C405F08F4F13F029F
:1040B80081F0004102E000BF83F0004330B54FEAD1
:1040C80041044FEA430594EA050F08BF90EA020F3E
:1040D8001FBF54EA000C55EA020C7FEA645C7FEAD1
:1040E800655C00F0E2804FEA5454D4EB5555B8BFF4
:1040F8006D420CDD2C4480EA020281EA030382EA65
:10410800000083EA010180EA020281EA0303362DF6
:1041180088BF30BD11F0004F4FEA01314FF4801CC9
:104128004CEA113102D0404261EB410113F0004FDB
:104138004FEA03334CEA133302D0524263EB430392
:1041480094EA050F00F0A780A4F10104D5F1200E30
:104158000DDB02FA0EFC22FA05F2801841F100018B
:1041680003FA0EF2801843FA05F359410EE0A5F15F
:1041780020050EF1200E012A03FA0EFC28BF4CF090
:10418800020C43FA05F3C01851EBE37101F0004546
:1041980007D54FF0000EDCF1000C7EEB00006EEB53
:1041A8000101B1F5801F1BD3B1F5001F0CD34908DD
:1041B8005FEA30004FEA3C0C04F101044FEA445234
:1041C80012F5800F80F09A80BCF1004F08BF5FEABB
:1041D800500C50F1000041EB045141EA050130BD9B
:1041E8005FEA4C0C404141EB0101013C28BFB1F5AD
:1041F800801FE9D291F0000F04BF01460020B1FAF8
:1042080081F308BF2033A3F10B03B3F120020CDACA
:104218000C3208DD02F1140CC2F10C0201FA0CF0A8
:1042280021FA02F10CE002F11402D8BFC2F1200C0D
:1042380001FA02F120FA0CFCDCBF41EA0C019040C3
:10424800E41AA2BF01EB0451294330BD6FEA04040C
:104258001F3C1CDA0C340EDC04F11404C4F12002F7
:1042680020FA04F001FA02F340EA030021FA04F309
:1042780045EA030130BDC4F10C04C4F1200220FA60
:1042880002F001FA04F340EA0300294630BD21FA9E
:1042980004F0294630BD94F0000F83F4801306BF64
:1042A80081F480110134013D4EE77FEA645C18BF58
:1042B8007FEA655C29D094EA050F08BF90EA020FEF
:1042C80005D054EA000C04BF1946104630BD91EAE7
:1042D800030F1EBF0021002030BD5FEA545C05D1EA
:1042E8004000494128BF41F0004130BD14F5800429
:1042F8003CBF01F5801130BD01F0004545F0FE419D
:1043080041F470014FF0000030BD7FEA645C1ABFD1
:10431800194610467FEA655C1CBF0B46024650EA08
:10432800013406BF52EA033591EA030F41F4002134
:1043380030BD00BF90F0000F04BF0021704730B5BA
:104348004FF4806404F132044FF000054FF000018F
:1043580050E700BF90F0000F04BF0021704730B550
:104368004FF4806404F1320410F0004548BF404225
:104378004FF000013EE700BF42004FEAE2014FEA7A
:1043880031014FEA02701FBF12F07F4393F07F4F55
:1043980081F06051704732F07F4208BF704793F058
:1043A8007F4F04BF41F40021704730B54FF460746B
:1043B80001F0004521F000411CE700BF50EA01026E
:1043C80008BF704730B54FF000050AE050EA010217
:1043D80008BF704730B511F0004502D5404261EB87
:1043E80041014FF4806404F132045FEA915C3FF4C8
:1043F800D8AE4FF003025FEADC0C18BF03325FEA65
:10440800DC0C18BF033202EBDC02C2F1200300FA15
:1044180003FC20FA02F001FA03FE40EA0E0021FA3A
:1044280002F11444BDE600BF70B54FF0FF0C4CF428
:10443800E06C1CEA11541DBF1CEA135594EA0C0FDA
:1044480095EA0C0F00F0DEF82C4481EA030621EA15
:104458004C5123EA4C5350EA013518BF52EA033550
:1044680041F4801143F4801338D0A0FB02CE4FF002
:104478000005E1FB02E506F00042E0FB03E54FF032
:104488000006E1FB03569CF0000F18BF4EF0010E2A
:10449800A4F1FF04B6F5007F64F5407404D25FEA26
:1044A8004E0E6D4146EB060642EAC62141EA5551D9
:1044B8004FEAC52040EA5E504FEACE2EB4F1FD0C1B
:1044C80088BFBCF5E06F1ED8BEF1004F08BF5FEA99
:1044D800500E50F1000041EB045170BD06F000464B
:1044E80046EA010140EA020081EA0301B4EB5C04F8
:1044F800C2BFD4EB0C0541EA045170BD41F48011F0
:104508004FF0000E013C00F3AB8014F1360FDEBF14
:10451800002001F0004170BDC4F10004203C35DAF0
:104528000C341BDC04F11404C4F1200500FA05F373
:1045380020FA04F001FA05F240EA020001F0004214
:1045480021F0004110EBD37021FA04F642EB06018A
:104558005EEA430E08BF20EAD37070BDC4F10C04B4
:10456800C4F1200500FA04F320FA05F001FA04F278
:1045780040EA020001F0004110EBD37041F1000164
:104588005EEA430E08BF20EAD37070BDC4F120056F
:1045980000FA05F24EEA020E20FA04F301FA05F2D7
:1045A80043EA020321FA04F001F0004121FA04F27F
:1045B80020EA020000EBD3705EEA430E08BF20EA4F
:1045C800D37070BD94F0000F0FD101F00046400089
:1045D80041EB010111F4801F08BF013CF7D041EA0B
:1045E800060195F0000F18BF704703F0004652000F
:1045F80043EB030313F4801F08BF013DF7D043EAE0
:104608000603704794EA0C0F0CEA135518BF95EA95
:104618000C0F0CD050EA410618BF52EA4306D1D11C
:1046280081EA030101F000414FF0000070BD50EA3B
:10463800410606BF1046194652EA430619D094EAC5
:104648000C0F02D150EA013613D195EA0C0F05D1AF
:1046580052EA03361CBF104619460AD181EA030103
:1046680001F0004141F0FE4141F470014FF00000BB
:1046780070BD41F0FE4141F4780170BD70B54FF056
:10468800FF0C4CF4E06C1CEA11541DBF1CEA1355D6
:1046980094EA0C0F95EA0C0F00F0A7F8A4EB0504B8
:1046A80081EA030E52EA03354FEA013100F08880AF
:1046B8004FEA03334FF0805545EA131343EA126378
:1046C8004FEA022245EA111545EA10654FEA00262D
:1046D8000EF000419D4208BF964244F1FD0404F5E6
:1046E800407402D25B084FEA3202B61A65EB030542
:1046F8005B084FEA32024FF480104FF4002CB6EBFF
:10470800020E75EB030E22BFB61A754640EA0C007E
:104718005B084FEA3202B6EB020E75EB030E22BFBE
:10472800B61A754640EA5C005B084FEA3202B6EBFF
:10473800020E75EB030E22BFB61A754640EA9C00BE
:104748005B084FEA3202B6EB020E75EB030E22BF8E
:10475800B61A754640EADC0055EA060E18D04FEA4C
:10476800051545EA16754FEA06164FEAC30343EAEC
:1047780052734FEAC2025FEA1C1CC0D111F4801FB9
:104788000BD141EA00014FF000004FF0004CB6E7B2
:1047980011F4801F04BF01430020B4F1FD0C88BF51
:1047A800BCF5E06F3FF6AFAEB5EB030C04BFB6EB5C
:1047B800020C5FEA500C50F1000041EB045170BD4F
:1047C8000EF0004E4EEA113114EB5C04C2BFD4EB7C
:1047D8000C0541EA045170BD41F480114FF0000E00
:1047E800013C90E645EA060E8DE60CEA135594EA7C
:1047F8000C0F08BF95EA0C0F3FF43BAF94EA0C0F7F
:104808000AD150EA01347FF434AF95EA0C0F7FF4F3
:1048180025AF104619462CE795EA0C0F06D152EA47
:1048280003353FF4FDAE1046194622E750EA41062B
:1048380018BF52EA43067FF4C5AE50EA41047FF43C
:104848000DAF52EA43057FF4EBAE12E74FF0FF3CA1
:1048580006E000BF4FF0010C02E000BF4FF0010C72
:104868004DF804CD4FEA410C7FEA6C5C4FEA430CEB
:1048780018BF7FEA6C5C1BD001B050EA410C0CBF3A
:1048880052EA430C91EA030F02BF90EA020F00209C
:10489800704710F1000F91EA030F58BF994208BF03
:1048A80090422CBFD8176FEAE37040F001007047C0
:1048B8004FEA410C7FEA6C5C02D150EA013C07D117
:1048C8004FEA430C7FEA6C5CD6D152EA033CD3D062
:1048D8005DF8040B704700BF8446104662468C465C
:1048E8001946634600E000BF01B5FFF7B7FF00288F
:1048F80048BF10F1000F01BD4DF808EDFFF7F4FFB8
:104908000CBF012000205DF808FB00BF4DF808ED42
:10491800FFF7EAFF34BF012000205DF808FB00BF65
:104928004DF808EDFFF7E0FF94BF012000205DF887
:1049380008FB00BF4DF808EDFFF7CEFF94BF01203C
:1049480000205DF808FB00BF4DF808EDFFF7C4FF35
:1049580034BF012000205DF808FB00BF4FEA410288
:1049680012F5001215D211D56FF47873B3EB6252B9
:1049780012D94FEAC12343F0004343EA505311F0E0
:10498800004F23FA02F018BF404270474FF0000072
:10499800704750EA013005D111F0004008BF6FF0B0
:1049A800004070474FF00000704700BF4A0011D226
:1049B80012F5001211D20DD56FF47873B3EB625271
:1049C8000ED44FEAC12343F0004343EA505323FA7D
:1049D80002F070474FF00000704750EA013002D1F2
:1049E8004FF0FF3070474FF0000070474FEA410228
:1049F800B2F1E04324BFB3F5001CDCF1FE5C0DD935
:104A080001F0004C4FEAC0024CEA5070B2F1004F7E
:104A180040EB830008BF20F00100704711F0804F81
:104A280021D113F13872BCBF01F00040704741F446
:104A380080114FEA5252C2F11802C2F1200C10FA4A
:104A48000CF320FA02F018BF40F001004FEAC1232E
:104A58004FEAD32303FA0CFC40EA0C0023FA02F3D2
:104A68004FEA4303CCE77FEA625307D150EA0133A8
:104A78001EBF4FF0FE4040F44000704701F0004078
:104A880040F0FE4040F40000704700BF53B94AB9F7
:104A9800002908BF00281CBF4FF0FF314FF0FF303E
:104AA80000F0A0B9ADF1080C6DE904CE00F024F8CF
:104AB800DDF804E0DDE9022304B07047D0B5002238
:104AC8000B4B06460F46FFF7AFFCFFF76FFF044698
:104AD800FFF730FC0022074BFFF7A6FC02460B4607
:104AE80030463946FFF7E8FAFFF760FF2146D0BDA8
:104AF8000000F03D0000F0412DE9F04F099D04460B
:104B08000F46002B48D18A42944661D9B2FA82F303
:104B180043B1C3F120019F4002FA03FC9C4020FAF4
:104B280001F10F434FEA1C411FFA8CFE220CB7FB20
:104B3800F1F601FB167706FB0EF042EA07429042B7
:104B480008D91CEB020206F1FF3702D2904200F2AC
:104B580037813E46121AA4B2B2FBF1F001FB1022D3
:104B680000FB0EFE44EA0244A64508D91CEB0404E7
:104B780000F1FF3202D2A64500F21C81104640EA3D
:104B88000640A4EB0E0400261DB1DC400023C5E955
:104B980000433146BDE8F08F8B4209D9002D00F063
:104BA800FD800026C5E9000130463146BDE8F08F9A
:104BB800B3FA83F6002E4BD18B42C0F0F2808242CA
:104BC80040F2EF803046002DE3D0C5E90047E0E72A
:104BD80002B9FFDEB2FA82F3002B40F09D80891AF9
:104BE8004FEA124E97B20126200CB1FBFEF20EFBE3
:104BF800121140EA014107FB02F088420FD91CEB71
:104C0800010102F1FF382CBF4FF001094FF00009F4
:104C1800884203D9B9F1000F00F0CF804246091A43
:104C2800A4B2B1FBFEF00EFB101100FB07F744EA3B
:104C38000144A74208D91CEB040400F1FF3102D259
:104C4800A74200F2B4800846E41B40EA02409BE712
:104C5800C6F12007B34001FA06F422FA07FCF9402E
:104C6800B2404CEA030C20FA07F34FEA1C491C43F4
:104C78001FFA8CFE00FA06F3200CB1FBF9F809FBC9
:104C8800181140EA014108FB0EF088420FD91CEBCD
:104C9800010108F1FF3A2CBF4FF0010B4FF0000B58
:104CA800884203D9BBF1000F00F08D80D046091A65
:104CB800A4B2B1FBF9F009FB101100FB0EFE44EAA7
:104CC80001418E4507D91CEB010100F1FF3401D2E7
:104CD8008E457FD8204640EA0840A1EB0E01A0FB94
:104CE800029841454C46C64602D306D14B4504D2EC
:104CF8000138B9EB020468EB0C0E002D70D01A1BBA
:104D080061EB0E0122FA06F301FA07F7F1400026DB
:104D18001F43C5E900713CE702FA03FCC3F1200018
:104D280001FA03F221FA00F64FEA1C4E24FA00F1C8
:104D38001FFA8CF79C401143B6FBFEF00A0C0EFBE1
:104D4800106642EA064200FB07F696420ED91CEBB3
:104D5800020200F1FF382CBF4FF001094FF00009A3
:104D6800964202D9B9F1000F31D04046921B89B260
:104D7800B2FBFEF60EFB162241EA024106FB07F2E1
:104D88008A4207D91CEB010106F1FF3801D28A4299
:104D980023D84646891A46EA004625E72E4628467D
:104DA800F7E6841A61EB030301201F460BE764440E
:104DB800023849E764440238E1E6023A61442EE7E2
:104DC800023E6244C6E6A8F1020861446FE7023871
:104DD8006244CBE7023861447DE7023E6144D9E78B
:104DE8002E46D6E6704700BF10F8012B11F8013B9C
:104DF800012A28BF9A42F7D0D01A7047034613F801
:104E0800012B002AFBD1181A0138704738B5002247
:104E1800002304460D46FFF779FD28B920462946A8
:104E2800BDE83840FFF74ABE204605F10041FFF7CC
:104E380045FE404261EB410138BD00BF70B506F048
:104E48001FFF0025054E064CA41BA408AC4200D148
:104E580070BD56F8043B98470135F7E7C4FF3F0299
:104E6800F4FF3F0200F04AB808B500F08BF8BDE83F
:104E7800084006F0BDBE02F06FBE02F06DBE02F043
:104E880079BE02F077BE00000C2008B5024A03493B
:104E980002F0FAFBFEE700BFDD843F0204F23F02A6
:104EA8000078B0FA80F0400970470123037070471A
:104EB8007047000010B50446094B036004F0AAF8D7
:104EC800214604F0F3FA05F0E3F905F0D3F920469A
:104ED800044B40F8043B04F073F9204610BD00BFB2
:104EE80058F23F0240F23F0210B50446FFF7E2FFD6
:104EF80020462421FFF7C5FF204610BD38B5002005
:104F080002F080FA42F210750446002002F07AFAA4
:104F1800001B61F10001A84271F1000307D205F0FE
:104F2800B7F905F0AAF910B902F072FCEDE705F03F
:104F3800AFF905F0A2F900F0D1FE0F490446503050
:104F480005F068F80123204684F8783001F090FADB
:104F580000F096FB04460949043005F05BF8084B5D
:104F6800204663614FF40063A36102F0A9F8BDE82D
:104F7800384002F05BBC00BF19F23F0227F23F0243
:104F880000B4071008B500F07BFBBDE8084002F04C
:104F980067B970B51426D0E90053044606FB0356DA
:104FA800AE4204D0284604F07FFF1435F8E72068A5
:104FB80002F0E0FD204670BD8842F8B504460D4673
:104FC800164616D9904215D2A2F11406751AA1F107
:104FD80014072C44B7421CD02CB13146204604F0AB
:104FE800ECFF337C2374304604F05EFF143E143C1F
:104FF800F0E70ED0B5420CD02CB12946204604F07B
:10500800DCFF2B7C2374284604F04EFF143514343F
:10501800F0E7F8BD00232DE9F041C0E900338360D3
:105028004F6804469F420E4624DD4FF0140808FBE3
:1050380007F002F091FD0546E0B1D4E9001208FB43
:105048000212FFF7B9FF206802F094FD2560A760FF
:10505800D6E9007308FB0378B84509D039462846D5
:1050680004F0C5FF3B7C143505F8043C1437F3E71E
:10507800736863602046BDE8F081000070B50024C5
:105088002A4B2B4A8CB0C3E900449A60022002F0F4
:105098005DFB2146012002F067FB06F023FE234654
:1050A8002246032106F03AFE06F01CFE224623465D
:1050B800232106F025FECDE90044029405F0E8F826
:1050C8001C4C05462646694603A8FFF7A3FF03A91B
:1050D80006A8FFF79FFF184B06A946F8043B09A846
:1050E800FFF798FF09AA1E21304604F07FFA09A8A5
:1050F800FFF74FFF06A8FFF74CFF104B2562236010
:1051080003A8FFF746FF0E4B236005F0C1F84FF4E4
:10511800165105F0ABF803F07DFF214604F080F945
:105128006846FFF736FF0CB070BD00BF1CAE071015
:105138000000FFFF28AE071040F23F026CFA3F0262
:1051480058F23F0200207047012303700878704727
:10515800012303700868003818BF01207047012335
:1051680003700868003818BF0120704701230370D6
:10517800D1E90023134314BF012000207047012305
:105188000370D1E90023134314BF012000207047A6
:1051980010B5012404700022D1E900010023FFF7B3
:1051A800ABFB08B14FF0000404F0010010BD002073
:1051B8007047002070470020704700207047012387
:1051C800037008787047012303700868704701234B
:1051D800037008687047012303700868704701234B
:1051E80003700868704708B501230370D1E900010E
:1051F800FFF7B4FB08BD002070470020704700206F
:1052080070470022C0E90022826070470022C0E98E
:105218000022826070470022C0E900228260704745
:105228000022C0E90022826070470022C0E9002203
:10523800826070470022C0E9002282607047002225
:10524800C0E90022826070470022C0E90022826023
:1052580070470022C0E90022826070470022C0E93E
:1052680000228260704770477047704770477047E8
:10527800704770477047704703680A781A7070471C
:1052880003680A681A60704703680A681A607047FA
:1052980038B5012304461578044A0B700449002DDB
:1052A80018BF114604F04BFE204638BD68F23F0295
:1052B8006DF23F0210B50446024904F040FE204654
:1052C80010BD00BF36FA3F0210B50446024904F08B
:1052D80036FE204610BD00BF36FA3F0210B5044620
:1052E800024904F02CFE204610BD00BF36FA3F02EA
:1052F80010B50446024904F022FE204610BD00BF46
:1053080036FA3F02084604F0CFBD012310B5044623
:105318000B70114604F06BFE204610BD70B58AB0C4
:1053280002AD92ED000B04460E46684629460AAACD
:1053380005F032F9019B23B10A20074A074902F018
:10534800A3F90123009A294620463370521B04F022
:105358000AFE20460AB070BDDD843F0273F23F02A8
:105368001FB50446684604F0FEFD6946204604F071
:105378007FFE0446684604F097FD201E18BF0120F2
:1053880004B010BD70B50E4605460A49304604F013
:1053980088FE044618B1012318462B7070BD3046AC
:1053A800054904F07EFE0028F8D0012320462B7022
:1053B800F4E700BF68F23F026DF23F0207B591F9CA
:1053C8001030054A0133019052F8233001A898475C
:1053D80003B05DF804FB00BF88F43F02012A02D144
:1053E800016000207047022A04BF0B680360F8E7D9
:1053F800012A02D1016000207047022A04BF0B680D
:105408000360F8E7012A02D1016000207047022AF0
:1054180004BF0B680360F8E7006804F0E8BD0368A0
:10542800D1E90001C3E9000170470368D1E900012F
:10543800C3E9000170470368D1E90001C3E900012D
:105448007047000010B50446034B40F8043B03F0D6
:10545800B7FE204610BD00BF40F23F02A0F1240075
:10546800FFF7F0BF10B50446FFF7ECFF20462C21EC
:10547800FFF707FD204610BDA0F12400FFF7F2BF9B
:10548800F0B50A688C6807461444A2421BD013780A
:105498002D2B18D14FF0FF350132164600230A2074
:1054A800A642B44611D09CF8001001363039C9B272
:1054B800092925D8A3FB003CBCF1000F01D15B18DA
:1054C800EED300201BE00125E7E7A242F9D085FBD7
:1054D8000312B2EBE17F14BF01220022002B06DA8F
:1054E80001221DB1013502D18B4200D100221046A4
:1054F800002AE6D1644502D1012308463B70F0BD7D
:105508006245E3E7086802F035BB10B583680446D6
:1055180013B1032201469847204610BD2DE9F341F7
:1055280005460F4614464FF000086E46BD421CD093
:10553800ACB1C4F8088095E8030086E8030094E855
:10554800030085E8030096E8030084E80300A268E6
:10555800AB68AA60A360EB68E268EA60E36028468B
:10556800FFF7D3FF10351034E0E7204602B0BDE85E
:10557800F0810EB44FF0200C002300B58CB00DAABA
:1055880052F8041BCDE904C3CDE900120392016867
:1055980004AA012002F0A2F80CB05DF804EB03B0F5
:1055A80070470EB44FF0200C002300B58CB00DAA44
:1055B80052F8041BCDE904C3CDE900120392016837
:1055C80004AA1E2002F08AF80CB05DF804EB03B0C0
:1055D800704708B502F006FB1FB50446684604F09C
:1055E800AEFC6946204604F0E8FC072368462374AD
:1055F80004F05AFC204604B010BD10B504460068FB
:1056080010B1002102F058F9204610BD10B504462B
:10561800044B40F8503BFFF7F0FF201D04F044FC1A
:10562800204610BD90F73F0210B50446FFF7EEFF85
:1056380020465821FFF725FC204610BD0E4B10B51B
:105648000E49044640F8043B04F079FC002301228B
:105658002046C4E90533C4E90733C4E90F33C4E974
:105668001133C4E913336362E26284F83030636350
:1056780084F83830636510BD90F73F0298F23F0216
:1056880038B5064D2B683BB95820FFF7F4FB0446A4
:1056980008B1FFF7D3FF2C60286838BD50AE07105B
:1056A80010B50C461449204606F07BFDE0B92046AB
:1056B800124906F076FDB8B92046114906F071FD89
:1056C800A0B920460F4906F06CFD88B920460E495E
:1056D80006F067FD70B920460C4906F062FD002807
:1056E80014BF3C20462010BD0120FCE71E20FAE72D
:1056F8002820F8E73220F6E7C5F23F02A9F23F0278
:10570800B4F23F02A4F23F02B9F23F02BFF23F02F5
:1057180030B590F838305BB30D2929D0436983B18F
:10572800D0E90F340833D3E8EF2F551CC3E8EC5FFA
:10573800BCF1000FF7D1436CB2FBF3F503FB152264
:10574800A15490F82C309BB1436A8BB1046A7CB1A8
:1057580000F12802D2E8EF3F5D1CC2E8EC5FBCF123
:10576800000FF7D1426AB3FBF2F002FB1033E154A9
:1057780030BD07B50191FFF783FF0199FFF7C8FF17
:10578800012003B05DF804FBA0F12400FFF7F1BF8E
:1057980070B504460020C4E90000A0604E680D46BC
:1057A800864211DD314602F0F3F968B12060A66047
:1057B800D5E900321A449A4204D013F8011B00F8C4
:1057C800011BF8E76B686360204670BD08B5006888
:1057D800FFF7DEFF08BD38B5002383608B680446F9
:1057E8000D462BB102229847EB68E360AB68A360D3
:1057F800204638BD0022C0E90022826010B50C683E
:105808000A6004604C684A6044608C688A608460FE
:1058180010BD1FB5044601A8FFF7ECFF019B029AD3
:105828002068236063686260039A0293A368A26099
:105838000190039302F09EF904B010BD0022C0E964
:105848000022826010B50C680A6004604C684A60E7
:1058580044608C688A60846010BD0022C0E9002220
:10586800826010B50C680A6004604C684A60446045
:105878008C688A60846010BDFF2313B504460374E6
:105888000B7C064A03745BB20133019052F8233053
:1058980001A89847204602B010BD00BFE8F43F02B7
:1058A80038B504460D4604F0A2FB05F1100104F1D9
:1058B8001000FFF7E1FF204638BD0000002313B5B4
:1058C8008DF804300B7C0446FF2B01D102F08AF9D5
:1058D800044A5BB252F823300A4601A99847204689
:1058E80002B010BD70F53F02002313B58DF80430E7
:1058F8000B7C0446FF2B01D102F074F9044A5BB219
:1059080052F823300A4601A99847204602B010BD34
:1059180044F53F02F0B51D46012442F20F7742F2EA
:105928001076092D02D9632D07D80134551AA542DE
:1059380010D28B2302604360F0BDB5F57A7F01D2A7
:105948000234F3E7BD4201D80334EFE7B5FBF6F5BF
:105958000434E6E70C4422464FF0640C104D632BE8
:105968000ED9B3FBFCF70CFB17363B4605EB460795
:105978007F7815F8166002F8017C02F8026DEEE7F0
:10598800092B89BF064A303302EB43056D7884BF83
:1059980012F813304D700B7004600023CBE700BF82
:1059A800BDF63F02F0B513688BB004460E4602AD53
:1059B80073B930230DF109078DF808300123294602
:1059C800204633707A1B04F0CEFA20460BB0F0BDA7
:1059D800294668460AAAFFF79DFFDDE90073002BF8
:1059E800ECD00A20024A034901F04EFEE6E700BF68
:1059F800DD843F0273F23F02F0B513688BB0002BD1
:105A080004460E4602AD0ED130230DF109078DF87C
:105A1800083001232946204633707A1B04F0A3FA84
:105A280020460BB0F0BDBDBF2D225B428DF808208B
:105A380029466846B8BF0DF109010AAAFFF76AFFAF
:105A4800DDE90073002BE4D00A20024A024901F084
:105A58001BFEDEE7DD843F0273F23F022DE9F84FBB
:105A68000746DDE90A468846914620463146012523
:105A780042F2107A0A2871F1000304D3642871F104
:105A880000030BD20135A9EB0803AB421AD28B23D2
:105A9800C7F8009038467B60BDE8F88FB0F57A7F8C
:105AA80071F1000301D20235EDE7504571F10003B1
:105AB80001D20335E7E742F210720023FEF7E6FF52
:105AC8000435D7E74544AA46DFF868B0642C76F178
:105AD80000031AD32046314664220023FEF7D6FF7E
:105AE80000234FEA4209204631466422FEF7CEFFE2
:105AF80019F101031BF8033004460AF8013C1BF8AE
:105B080009300E460AF8023DE0E70A2C76F1000358
:105B18000BD3084B2419621C9A5C1B5D88F8012082
:105B280088F8003000233D60B4E7303488F800403E
:105B3800F8E700BFF4F53F02F0B50E46D2E90013CE
:105B48008DB051EA0302044604AD0ED130230DF1A5
:105B580011078DF8103001232946204633707A1B2F
:105B680004F001FA20460DB0F0BDCDE900130CAAEF
:105B7800294602A8FFF772FFDDE90273002BEAD07D
:105B88000A20024A024901F07FFDE4E7DD843F0272
:105B980073F23F02F0B50D46D2E900328DB053EAF8
:105BA8000201044604AE0ED130230DF111078DF821
:105BB80010300123314620462B70BA1B04F0D3F96C
:105BC80020460DB0F0BD002A17DA2D215B428DF872
:105BD800101062EB42020DF11101CDE9003202A86A
:105BE8000CAAFFF73BFFDDE90273002BE1D00A2086
:105BF800034A044901F048FDDBE73146EDE700BF01
:105C0800DD843F0273F23F0213B5037C0446FF2B89
:105C180008D0054A5BB2014652F8233001A89847DC
:105C2800FF23237402B010BD18F53F0210B50446D7
:105C38001030FFF7E9FF204604F036F9204610BD82
:105C480070B52826D0E90053044606FB0356AE4239
:105C580004D02846FFF7EAFF2835F8E7206801F066
:105C680089FF204670BD1FB5002369460446CDE96B
:105C780000330293FFF7F1FD0A2368462374FFF708
:105C8800DFFF204604B010BD10B50446104B40F8A5
:105C9800083BFFF7E8FF04F12000FFF7E4FF04F1F9
:105CA8003800FFF7E0FF0B4904F1500004F047F912
:105CB800094904F1600004F042F900232046C4E9D0
:105CC8001C33C4E91F33A4F87830C4F8843010BDFD
:105CD800A4F73F02C9F23F02DEF23F0238B5064D93
:105CE8002B683BB98820FFF7C6F8044608B1FFF7D0
:105CF800CBFF2C60286838BD54AE071008B508469D
:105D0800FFF79EFF08BD70B51826D0E9005304467A
:105D180006FB0356AE4204D02846FFF775FF183538
:105D2800F8E7206801F026FF204670BD08B5084650
:105D3800FFF7E9FF08BD000070B50446D0E91F561B
:105D4800164B0360AE4204D02846FFF7DEFB103541
:105D5800F8E7E06F20B1D4F88410091AFFF791F83A
:105D680004F17400FFF749FC04F17000FFF745FCEB
:105D780004F1600004F098F804F1500004F094F87D
:105D880004F13800FFF740FF04F12000FFF73CFF63
:105D980004F10800FFF738FF204670BDA4F73F0262
:105DA80010B50446FFF7C8FF20468821FFF769F8B9
:105DB800204610BD08B50068FFF726FF08BD10B5DE
:105DC8000468237C23B12046FFF71EFF00232374B9
:105DD80010BD70B504680546237C0E46032B04D11C
:105DE80023680A6822600B6070BDFF2B0CD00E6818
:105DF80040682146FFF7E2FA2C682046FFF704FFC7
:105E0800032326602374EFE72046FFF7FDFE33687F
:105E18002360032323746868FFF7F6FEE4E770B590
:105E280004680546237C0E46022B04D123680A68C1
:105E380022600B6070BDFF2B0CD00E6840682146B5
:105E4800FFF7BCFA2C682046FFF7DEFE0223266027
:105E58002374EFE72046FFF7D7FE33682360022359
:105E680023746868FFF7D0FEE4E770B50468054658
:105E7800237C0E46012B04D123780A7822700B70FC
:105E880070BDFF2B0CD00E7840682146FFF796FABC
:105E98002C682046FFF7B8FE012326702374EFE72D
:105EA8002046FFF7B1FE3378237001232374686816
:105EB800FFF7AAFEE4E710B5016804460B7CFF2B48
:105EC80005D04068FFF77AFA2068FFF79DFE10BDFD
:105ED80038B5056804462B7C5BB1FF2B0AD02946F0
:105EE8004068FFF76BFA24682046FFF78DFE002311
:105EF800237438BD2846FFF787FE00232B7460689B
:105F0800FFF782FEF5E77FB504680546237C0E4659
:105F1800092B14D101A8FFF791FC2B6801991A6885
:105F28001960029901925A685960039902929A6815
:105F380001A899600392FFF7E6FE04B070BD204601
:105F4800FFF762FE0923314620462374FFF776FCEB
:105F5800207C0928F1D0A0F1FF0358425841FFF7EF
:105F680038FB38B504680D46237C2046082B03D13E
:105F7800BDE83840FFF74DBCFFF746FE0823294629
:105F880020462374FFF736FC207C082805D0A0F1B2
:105F9800FF0358425841FFF71CFB38BD38B5046869
:105FA8000D46237C2046072B03D1BDE8384004F07A
:105FB80029B8FFF729FE072329462046237403F052
:105FC800FCFF207C072805D0A0F1FF035842584168
:105FD800FFF7FFFA38BD38B504680D46237C062B59
:105FE80004D1D5E90023C4E9002338BD2046FFF7D2
:105FF8000BFE06232374F4E738B504680D46237CAA
:10600800052B04D1D5E90023C4E9002338BD204677
:10601800FFF7FAFD05232374F4E738B504680D4645
:10602800237C042B04D1D5E90023C4E9002338BD1F
:106038002046FFF7E9FD04232374F4E738B5046824
:106048000D46237C032B02D12B68236038BD2046E4
:10605800FFF7DAFD03232374F6E738B504680D4625
:10606800237C022B02D12B68236038BD2046FFF722
:10607800CBFD02232374F6E738B504680D46237C6C
:10608800012B02D12B78237038BD2046FFF7BCFDC9
:1060980001232374F6E7F8B504680546237C0E4609
:1060A800062B08D1D4E90023D1E90001C4E9000195
:1060B800C6E90023F8BDFF2B0ED0D1E90067406880
:1060C8002146FFF77BF92C682046FFF79DFD062344
:1060D800C4E900672374EDE72046FFF795FDD6E98C
:1060E8000023C4E90023062323746868FFF78CFDA6
:1060F800E0E7F8B504680546237C0E46052B08D171
:10610800D4E90023D1E90001C4E90001C6E900236C
:10611800F8BDFF2B0ED0D1E9006740682146FFF794
:106128004DF92C682046FFF76FFD0523C4E9006789
:106138002374EDE72046FFF767FDD6E90023C4E99D
:106148000023052323746868FFF75EFDE0E7F8B5D0
:1061580004680546237C0E46042B08D1D4E90023A5
:10616800D1E90001C4E90001C6E90023F8BDFF2B0D
:106178000ED0D1E9006740682146FFF71FF92C6867
:106188002046FFF741FD0423C4E900672374EDE7C7
:106198002046FFF739FDD6E90023C4E9002304238C
:1061A80023746868FFF730FDE0E77FB504680646AA
:1061B800237C0D46092B0DD123680A6822600B60E9
:1061C80063684A6862604B60A3688A68A2608B60F3
:1061D80004B070BDFF2B14D001A8FFF72FFBD6E940
:1061E8000010FFF7EBF834682046FFF70DFD204656
:1061F80001A9FFF723FB092301A82374FFF783FDF7
:10620800E6E72046FFF700FD29462046FFF716FB84
:10621800092323747068FFF7F7FCD9E77FB5056891
:1062280004462B7C0E46082B10D1294601A8FFF7FF
:10623800E1FA31462846FFF7ECFA304601A9FFF7A4
:10624800E8FA019801F096FC04B070BDFF2B11D05C
:1062580001A8FFF7CFFAD4E90010FFF7AFF82468D8
:106268002046FFF7D1FC204601A9FFF7C3FA08230F
:106278002374E6E72846FFF7C7FC31462846FFF7B0
:10628800B9FA08232B746068FFF7BEFCDCE77FB51A
:10629800056804462B7C0E46072B10D12946684614
:1062A80003F08BFE3146284603F0ACFE69463046C3
:1062B80003F0A8FE684603F0F7FD04B070BDFF2B9D
:1062C80011D0684603F079FED4E90010FFF776F89C
:1062D80024682046FFF798FC6946204603F06DFEC7
:1062E80007232374E6E72846FFF78EFC3146284645
:1062F80003F063FE07232B746068FFF785FCDCE777
:1063080008B5037C0A2B04D0FF3B58425841FFF7DD
:1063180060F908BD7FB506680546337C0C460A2B34
:1063280010D13046FFF7ECFF226803680260236053
:1063380043686268426063608368A2688260A360A1
:1063480004B070BDFF2B14D06846FFF786FAD5E974
:106358000010FFF733F82C682046FFF755FC694614
:106368002046FFF77AFA0A2368462374FFF768FC89
:10637800E6E73046FFF748FC21463046FFF76DFA5E
:106388000A2333746868FFF73FFCD9E77FB50468D0
:106398000546237C0E460A2B14D16846FFF75DFAA2
:1063A8002B6800991A681960019900925A68596017
:1063B800029901929A68684699600292FFF740FC38
:1063C80004B070BD2046FFF71FFC0A233146204663
:1063D8002374FFF742FA2046FFF792FFF0E710B563
:1063E800037C04460A2B88B01FD001466846FFF795
:1063F8007BFA237C0A2B1DD1694604A8FFF72DFAE6
:106408002046FFF77DFF049A03680260059A04930B
:1064180043684260069A05938368826004A80693DD
:10642800FFF70EFC6846FFF70BFC2046FFF768FFF6
:1064380008B010BD2046FFF7E7FB0A23694620464F
:106448002374FFF70AFA2046FFF75AFFEAE700002D
:1064580007B591F91030054A0133CDE9000152F82A
:1064680023306846984703B05DF804FBB8F43F0250
:1064780030B590F87830044687B023B3016D68468C
:1064880001F09EFC009A236F684622670093FFF78D
:10649800B4F8224B04F170050393214B6946284652
:1064A8000293009402F0A4FB6846FFF72EF82946F1
:1064B800684602F00BFB04F108006946FFF7C8FFC5
:1064C8006846FFF7A1FB94F8793023B3216E68463C
:1064D80001F076FC009A636F684662670093FFF7E5
:1064E8008CF8104B04F1740503930F4B694628464A
:1064F8000293009402F07CFB6846FFF706F82946F1
:10650800684602F0E3FA04F138006946FFF7A0FF95
:106518006846FFF779FB07B030BD00BF3D763F0204
:1065280015653F026D763F0201653F0210B50B68A5
:1065380088B00193002304460B6002A801A902F069
:10654800C5FA206802A90830FFF782FF02A8FFF702
:106558005BFB01A8FFF751F808B010BD10B50B6838
:1065680088B00193002304460B6002A801A902F039
:10657800ADFA206802A93830FFF76AFF02A8FFF7D2
:1065880043FB01A8FFF739F808B010BD002310B588
:1065980004460374FFF75CFF204610BD002310B5C6
:1065A80003740B7C04460A2B8AB00CD104A8FFF7AD
:1065B800EDFF204604A9FFF74BFF04A8FFF724FBD3
:1065C80020460AB010BD6846FFF78EF9694604A850
:1065D800FFF743F90A23204604A98DF82030FFF776
:1065E80037FF04A8FFF710FB6846FFF729FBE7E72A
:1065F80000232DE9F047C0E900338360D1F8049007
:1066080006469945884657DD4FF0280A0AFB09F0E7
:1066180001F0A2FA074600284ED0D6E90045A0426C
:106628000AFB054519D9A84218D2283DA4F1280A21
:106638002C1B0444AA4528D04CB12946204603F017
:10664800D6FC05F1100104F11000FFF79FFF284662
:10665800FFF7ECFA283D283CECE716D0BA46A542ED
:1066680013D0BAF1000F09D02146504603F0BFFC01
:1066780004F110010AF11000FFF788FF2046FFF728
:10668800D5FA28340AF1280AE9E72825306801F004
:1066980071FA3760C6F80890D8E9004305FB03454E
:1066A800A54206D021463846FFF7FAF8283428379D
:1066B800F6E7D8F8043073603046BDE8F087012368
:1066C80010B504460B701146FFF792FF204610BD27
:1066D80008B50068FFF78CFF08BD00006FF078432D
:1066E8002DE9F3478846D0E900791146A9EB07025E
:1066F800B3EB221F06464FEA221402D11B4805F0CD
:10670800AFFB012C224638BF0122A418A8EB070AC8
:1067180028D24CB39C4228BF1C4620010191FEF7A9
:10672800AAFB0546019915EB0A0001D0FFF753F8BB
:1067380041462A463846FEF7F1FE494600F1100266
:106748004046FEF7EBFE804627B1B1683846C91BC4
:10675800FEF797FB05EB0414C6E90058B46002B0D5
:10676800BDE8F0871C46D8E72546DCE705F33F027D
:10677800F8B50E1E054613DD142707FB06F001F0D9
:10678800EBF9044658B1D5E9001207FB0212FEF7EF
:1067980013FC286801F0EEF901202C60AE60F8BD0A
:1067A8000024F6E770B5044625460E468AB0114621
:1067B80001A8FEF72FFC01A904A8FEF72BFC124B39
:1067C80004A945F8043B07A8FEF724FC314607AAAC
:1067D800284602F00BFF07A8FEF7DBFB04A8FEF72C
:1067E800D8FB2346094A01A843F8242B2362FEF765
:1067F800D0FB00232046A362054B03F10802243393
:10680800226063620AB070BD40F23F026CFA3F0238
:10681800ACF73F028842F8B504460D46164614D92F
:10682800904213D2A2F11806751AA1F118072C4448
:10683800B74218D01CB131462046FFF7A7FE3046B4
:10684800FFF7E2F9183E183CF2E70CD0B5420AD03F
:106858001CB129462046FFF799FE2846FFF7D4F9D0
:1068680018351834F2E7F8BDF8B50E1E054613DDE5
:10687800182707FB06F001F06FF9044658B1D5E96F
:10688800001207FB0212FFF7C5FF286801F072F932
:1068980001202C60AE60F8BD0024F6E700232DE946
:1068A800F041C0E9003383600D46496804469942C7
:1068B80015DDFFF7D9FF90B1D5E900634FF018084F
:1068C80008FB03682768B04507D01FB13146384632
:1068D800FEF7D2FF18361837F5E76B686360204675
:1068E800BDE8F08108B50068FFF7D8FF08BD30B5EE
:1068F800044687B045686846FFF748FED4E90113A7
:10690800994210DA18222368616802FB053502FBF8
:10691800013205F118002946FFF77CFF75B9636855
:106928000133636005E020460131FFF79DFF002831
:10693800E8D16846FFF768F907B030BD69462846D0
:10694800FFF724FEEBE72DE9F0410C469AB0154617
:1069580000211822064605F0A6FB002304F12007B3
:1069680029463846CDE90133039304F0DDF958B1DF
:106978002A46394610A804F0EEF901A810A9FFF735
:10698800B6FF10A8FFF740F904F108072946384672
:1069980004F0CAF958B12A46394610A804F0DBF9C0
:1069A80001A810A9FFF7A3FF10A8FFF72DF93834A5
:1069B8002946204604F0B8F958B12A46214610A8BD
:1069C80004F0C9F901A810A9FFF791FF10A8FFF773
:1069D8001BF9DDE90157182303FB0757AF424DD0D8
:1069E800294604A8FEF748FF9DF820300A2B1FD13E
:1069F80004A8FFF7F4FC4FF02808D0E9004308FB8F
:106A08000348444535D0214610A8FEF749FF14A98C
:106A18000AA8FEF731FF0AAA10A9304604F0C2FA04
:106A28000AA8FFF7F1F810A8FFF700F92834E8E7FB
:106A3800092B13D1002404A803F084FFA04218DD19
:106A4800224604A910A803F0D5FE10A9304604F088
:106A580005F910A8FFF7D8F80134ECE704A910A845
:106A6800FEF70AFF304610A9FFF7F2FC10A8FFF75F
:106A7800CBF804A8FFF7C8F81835AFE701A8FFF767
:106A880042F930461AB0BDE8F0810000022310B583
:106A98008EB002928DF818300A4602AB014608A85B
:106AA800FFF751FF00238DF804309DF83030FF2B9D
:106AB80001D101F097F8084A5BB252F8233008A9CF
:106AC80001A89847044608A8FFF79EF802A8FFF710
:106AD8009BF820460EB010BD9CF53F0230B50D4620
:106AE80004468FB0194602A80192FEF775FD019A77
:106AF80002AB294608A8FFF726FF08A92046FEF79B
:106B0800DDFE08A8FFF780F802A8FFF77DF8204609
:106B18000FB030BD10B590B00C460190FFF7DEF80D
:106B2800012301468DF82030019A04AB0AA88DF89C
:106B38001040FFF708FF00238DF80C309DF838301F
:106B4800FF2B01D101F04EF8084A5BB252F823300E
:106B58000AA903A8984704460AA8FFF755F804A805
:106B6800FFF752F8204610B010BD00BFC8F53F022D
:106B78001822F0B505469BB000210DEB020005F088
:106B880092FA05F12803D3E8AF7F87B36E6ABE4255
:106B980028BF3E46701CFEF770F90446F8B1BB1BCF
:106BA800411EBB420AD0686AB3FBF0F200FB123206
:106BB800286A0133825C01F8012FF2E7002321469D
:106BC800A35512A8FEF708FD8A4912AA06A804F0E0
:106BD8007BF912A8FFF718F82046FEF750F90023B2
:106BE80085F82C30002205F12803C3E8AF2FE969A6
:106BF80051B112A8FEF7F0FC7F4912AA06A804F0CA
:106C080063F912A8FFF700F8AB6CDBB1129302230B
:106C18007A4912AA06A88DF8583004F055F912A836
:106C2800FEF7F2FFAB6C8C2B0CD1EB6C7449129312
:106C3800032312AA06A88DF8583004F045F912A8C3
:106C4800FEF7E2FF00216F48FFF764FF0CACF8B1D4
:106C58006D49204603F073F94FF48071204603F024
:106C680041F90022694B11461046CDE9004200F077
:106C7800A5FD0C9912A804F012FC654912AA06A8F1
:106C880004F022F912A8FEF7BFFF204603F00CF922
:106C980000216048FFF73EFF002864D0102600213D
:106CA800324602A805F0FFF9002102A8ADF80860F5
:106CB80000F02AFB0146002840F0968002261822A0
:106CC800204605F0F0F9BDF80E30534912AA2046C7
:106CD80012938DF8586004F0F7F812A8FEF794FFA5
:106CE800BDF810304D4912AA204612938DF858600D
:106CF80004F0EAF812A8FEF787FF059B48491293AB
:106D0800032312AA20468DF8583004F0DDF812A8A3
:106D1800FEF77AFFBDF8123012AA424920461293B4
:106D28008DF8586004F0D0F812A8FEF76DFF2146E0
:106D380012A8FEF7A1FD3C4912AA06A804F0C4F85F
:106D480012A8FEF761FFBDF8103038480193BDF86E
:106D58000E30059A00933649BDF81230FEF709FC4B
:106D68002046FEF751FF00213248FFF7D3FEF0B16D
:106D78001C260021324612A805F095F9002112A818
:106D8800ADF8486000F0FEFC14A9204603F0D7F8DF
:106D98000C9912A8FEF720FC274912AA06A804F0AD
:106DA80093F812A8FEF730FF204603F07DF806A9F5
:106DB8002046FEF761FD214612A8FFF7EFFB0022EF
:106DC80012A905F1500001F0A3FE12A8FEF71CFF5E
:106DD8002046FEF719FF19491448FEF7CAFB06A812
:106DE800FEF712FF1BB0F0BD024615490F48FEF72B
:106DF800D8FBB8E71FF33F0227F33F022FF33F0208
:106E08003BF33F024BF33F0236FA3F0271643F0205
:106E180057F33F025CF33F0269F33F026DF33F0211
:106E280071F33F0275F33F0279F33F024CAE07104E
:106E38007FF33F02CEF33F02DDF33F02E4F33F026C
:106E4800ABF33F022DE9F041A4B00D4614460746C6
:106E5800FEF744FF514B0146514A1AA8FFF73EFE80
:106E68001A993846FEF71CFC142628701AA803F055
:106E78001BF8D4E9005306FB0356AE4204D028465B
:106E880003F012F81435F8E700236360CDE91833EE
:106E98008DF86030FEF722FF054614A91AA8FEF700
:106EA800EBFC1AAB29463F4A0EA8FFF74CFD1AA87F
:106EB800FEF7AAFE14A8FEF7A7FE9DF848300A2B95
:106EC80065D10EA8FFF78BFA4FF02808D0E90053D8
:106ED80008FB035845455AD029461AA8FEF7E0FC96
:106EE8001AA901A803F083F81EA914A8FEF7E6FC66
:106EF80014993846FEF7D4FB064614A802F0D4FFCE
:106F080001A905A803F073F805A909A803F06FF80B
:106F180009A914A88DF83460666803F04EF89DF846
:106F280034308DF86030D4E90113994210DA142214
:106F38002368616802FB063602FB013206F1140081
:106F48003146FEF739F8D6B963680133636005E066
:106F580020460131FFF70CFC0028E8D114A802F004
:106F6800A3FF09A802F0A0FF05A802F09DFF01A851
:106F780002F09AFF1AA8FEF759FE2835AAE730460C
:106F880014A903F01AF89DF860303374DCE70EA8F2
:106F9800FEF73AFE24B0BDE8F08100BF36FA3F02A2
:106FA800F1F23F02FAF23F0230B5436D044689B070
:106FB8005BB102F02FF8616D02F078FA606D10B1E4
:106FC80003685B68984700236365002302AA20468C
:106FD8000DF10701CDE902330493FFF733FF02A94E
:106FE80005A8FEF717F82C20FDF745FF054620B148
:106FF8009DF8071005AAFFF7D5FB656505A8FDF7FD
:10700800C8FF02F007F8616D02F00AFA02A8FDF75E
:10701800C0FF09B030BD000070B586B00446FEF769
:107028002FFBFEF75BFE00221F49FFF72FFD0546E9
:10703800FEF726FBFEF752FE00221C49FFF726FD4D
:107048000646FEF71DFBFEF749FE194B0146194A95
:1070580002A8FFF743FD029B2A46174917480093E9
:107068003346FEF79EFA02A802F01EFF2046FFF7FD
:107078009BFFFEF705FBFEF731FE00220B49FFF7E9
:1070880005FD6062206A18B1FDF7F9FE002323624E
:10709800606A10B1FDF7F1FE2062002204F12803B6
:1070A800C3E8AF2F06B070BDF7F33F0202F43F020A
:1070B80036FA3F02F1F23F0210F43F024CAE0710DD
:1070C800F0B590F83830044685B0002B40F0958034
:1070D800FEF704FE554B00940393554B0546029367
:1070E800D0E92003984277D010B16946FEF773FBC8
:1070F800D5F880301033C5F880306846FEF705FAB9
:10710800002268461146009200F044F9009B0022D4
:107118008C2BA36406D169461046009200F03AF918
:10712800009BE3646168684600F04AFE009A236D9C
:10713800684622650093FEF760FA2046FFF76CFF69
:107148006369002B6DD0A2690C2A6AD903F10C017E
:107158002164A2F10C01E3636164364D1968A94208
:107168004DD199888A424AD19B790C2B47D1324913
:107178003248FEF716FAE36B0833D3E8AF3F002B2B
:1071880038D0E36B0833D3E8AF7F666CFEF7A6FD13
:1071980000222B49FFF77AFC051E26DDBE4228BFD8
:1071A8003E46B54228BF3546681CFDF766FEE061DD
:1071B800D8B16B42E818B3B1D4E90F260832D2E847
:1071C800AF2F616C1A44B2FBF1F701FB1722B15CD7
:1071D800E26901331154EDE701466A4605F17C0086
:1071E800FFF77CFA89E7E2695355E36B002208331D
:1071F800C3E8AF2F012384F8383005B0F0BD11493A
:107208000E48FEF7CEF9E36B1D60E36BA2699A8026
:107218000C22E36B9A710022E36BDA71E36B08339B
:10722800E6E70023C4E90533E4E700BF59833F02DA
:10723800ED643F02CC468EDE48F43F024CAE0710A8
:10724800F7F33F025EF43F020068FFF7E5BE000077
:10725800014B024A1A6070474CAE07107CF43F029B
:1072680010B50446254802F0E8FC94F82F3078B3AE
:1072780013B9012384F82F300022214B1146586896
:1072880000F0D0FB94F82D3038B313B9012384F8FB
:107298002D3000221B4B1146586800F0C3FB94F8B0
:1072A8002E30F8B113B9012384F82E3000F0CCFA4F
:1072B80094F83030D8B103BB012384F83030636BC5
:1072C8002046013363632368BDE810409B68184774
:1072D800002BD1D084F82F00CEE7002BD9D084F82A
:1072E8002D00D6E7002BE1D084F82E00DEE723B18D
:1072F800012384F8300084F82C3010BDE0AE07106C
:107308005CAE071024AF071009B504480068044BA9
:1073180003441B68D3F89430029309BD34AC0710BA
:107328006C00000009B504480068044B03441B685E
:107338005B6C029309BD000034AC071030000000FC
:1073480009B504480068044B03441B689B6C02930E
:1073580009BD000034AC07103000000009B504482E
:107368000068044B03441B68DB6C029309BD0000F2
:1073780034AC07103000000009B504480068044B1D
:1073880003441B685B6D029309BD000034AC071011
:107398003000000009B504480068044B03441B682A
:1073A800DB6E029309BD000034AC07101C0000001E
:1073B80009B504480068044B03441B685B680293E2
:1073C80009BD000034AC07100000000009B50448EE
:1073D8000068044B03441B68DB68029309BD000086
:1073E80034AC07100000000009B504480068044BDD
:1073F80003441B685B69029309BD000034AC0710A5
:107408000000000009B504480068044B03441B68E9
:10741800DB6D029309BD000034AC071000000000CA
:1074280009B504480068044B03441B685B69029370
:1074380009BD000034AC07104C00000009B5044831
:107448000068044B03441B689B68029309BD000055
:1074580034AC07105000000009B504480068044B1C
:1074680003441B68DB68029309BD000034AC0710B5
:107478005000000009B504480068044B03441B6829
:107488009B68029309BD000034AC0710240000007B
:1074980009B504480068044B03441B68DB68029381
:1074A80009BD000034AC07102400000009B50448E9
:1074B8000068044B03441B681B69029309BD000064
:1074C80034AC07102400000009B504480068044BD8
:1074D80003441B685B69029309BD000034AC0710C4
:1074E8002400000009B504480068044B03441B68E5
:1074F8009B69029309BD000034AC0710240000000A
:1075080009B504480068044B03441B68DB6902930F
:1075180009BD000034AC07102400000009B5044878
:107528000068044B03441B681B6A029309BD0000F2
:1075380034AC07102400000009B504480068044B67
:1075480003441B689B6A029309BD000034AC071012
:107558002400000009B504480068044B03441B6874
:10756800DB6A029309BD000034AC07102400000058
:1075780009B504480068044B03441B681B6C02935C
:1075880009BD000034AC07102400000009B5044808
:107598000068044B03441B681B68029309BD000084
:1075A80034AC07103400000009B504480068044BE7
:1075B80003441B685B68029309BD000034AC0710E4
:1075C8003400000009B504480068044B03441B68F4
:1075D8009B68029309BD000034AC0710340000001A
:1075E80009B504480068044B03441B681B690293EF
:1075F80009BD000034AC07103400000009B5044888
:107608000068044B03441B685B69029309BD0000D2
:1076180034AC07103400000009B504480068044B76
:1076280003441B689B69029309BD000034AC071032
:107638003400000009B504480068044B03441B6883
:10764800DB69029309BD000034AC07103400000068
:1076580009B504480068044B03441B681B6A02937D
:1076680009BD000034AC07103400000009B5044817
:107678000068044B03441B689B6A029309BD000021
:1076880034AC07103400000009B504480068044B06
:1076980003441B685B6B029309BD000034AC071000
:1076A8004800000009B504480068044B03441B68FF
:1076B8009B6B029309BD000034AC07104800000022
:1076C80009B504480068044B03441B681B6D02930A
:1076D80009BD000034AC07104800000009B5044893
:1076E8000068044B03441B685B6D029309BD0000EE
:1076F80034AC07104800000009B504480068044B82
:1077080003441B68DB6E029309BD000034AC07100C
:107718004800000009B504480068044B03441B688E
:107728001B6F029309BD000034AC0710480000002D
:1077380009B504480068044B03441B68D3F8AC300F
:10774800029309BD34AC07104800000009B504488D
:107758000068044B03441B685B68029309BD000082
:1077680034AC07100800000009B504480068044B51
:1077780003441B68DB6A029309BD000034AC0710A0
:107788000800000009B504480068044B03441B685E
:107798001B6B029309BD000034AC07100800000001
:1077A80009B504480068044B03441B685B6D0293E9
:1077B80009BD000034AC07100800000009B50448F2
:1077C8000068044B03441B68D3F88430029309BD56
:1077D80034AC07100800000009B504480068044BE1
:1077E80003441B68D3F88830029309BD34AC0710F2
:1077F8000800000009B504480068044B03441B68EE
:10780800D3F89430029309BD34AC07100800000087
:1078180009B504480068044B03441B689B6802933D
:1078280009BD000034AC07102C00000009B504485D
:107838000068044B03441B68DB68029309BD000021
:1078480034AC07102C00000009B504480068044B4C
:1078580003441B685B69029309BD000034AC071040
:107868002C00000009B504480068044B03441B6859
:10787800DB6B029309BD000034AC07102C0000003C
:1078880009B504480068044B03441B681B6802934D
:1078980009BD000034AC07107C00000009B504489D
:1078A8000068044B03441B685B68029309BD000031
:1078B80034AC07107C00000009B504480068044B8C
:1078C80003441B689B68029309BD000034AC071091
:1078D8007C00000009B504480068044B03441B6899
:1078E800DB68029309BD000034AC07107C0000007F
:1078F80009B504480068044B03441B681B690293DC
:1079080009BD000034AC07107C00000009B504482C
:107918000068044B03441B685B69029309BD0000BF
:1079280034AC07107C00000009B504480068044B1B
:1079380003441B689B69029309BD000034AC07101F
:107948007C00000009B504480068044B03441B6828
:10795800DB69029309BD000034AC07107C0000000D
:1079680009B504480068044B03441B685B6A02932A
:1079780009BD000034AC07107C00000009B50448BC
:107988000068044B03441B689B6A029309BD00000E
:1079980034AC07107C00000009B504480068044BAB
:1079A80003441B68DB6A029309BD000034AC07106E
:1079B8007C00000009B504480068044B03441B68B8
:1079C8001B6B029309BD000034AC07107C0000005B
:1079D80009B504480068044B03441B685B680293BC
:1079E80009BD000034AC07102800000009B50448A0
:1079F8000068044B03441B689B68029309BD0000A0
:107A080034AC07102800000009B504480068044B8E
:107A180003441B68DB68029309BD000034AC0710FF
:107A28002800000009B504480068044B03441B689B
:107A38001B69029309BD000034AC07102800000040
:107A480009B504480068044B03441B685B6902934A
:107A580009BD000034AC07102800000009B504482F
:107A68000068044B03441B689B69029309BD00002E
:107A780034AC07102800000009B504480068044B1E
:107A880003441B68DB69029309BD000034AC07108E
:107A98002800000009B504480068044B03441B682B
:107AA8001B6A029309BD000034AC071028000000CF
:107AB80009B504480068044B03441B681B6B029318
:107AC80009BD000034AC07102800000009B50448BF
:107AD8000068044B03441B685B6B029309BD0000FC
:107AE80034AC07102800000009B504480068044BAE
:107AF80003441B681B6C029309BD000034AC0710DB
:107B08002800000009B504480068044B03441B68BA
:107B18005B6C029309BD000034AC0710280000001C
:107B280009B504480068044B03441B685B6D029365
:107B380009BD000034AC07102800000009B504484E
:107B48000068044B03441B689B6D029309BD000049
:107B580034AC07102800000009B504480068044B3D
:107B680003441B681B68029309BD000034AC07106E
:107B78000400000009B504480068044B03441B686E
:107B88005B68029309BD000034AC071004000000D4
:107B980009B504480068044B03441B689B680293BA
:107BA80009BD000034AC07100400000009B5044802
:107BB8000068044B03441B68DB69029309BD00009D
:107BC80034AC07100400000009B504480068044BF1
:107BD80003441B685B6A029309BD000034AC0710BC
:107BE8000400000009B504480068044B03441B68FE
:107BF800DB6A029309BD000034AC071004000000E2
:107C080009B504480068044B03441B681B6B0293C6
:107C180009BD000034AC07100400000009B5044891
:107C28000068044B03441B68DB6B029309BD00002A
:107C380034AC07100400000009B504480068044B80
:107C480003441B681B6C029309BD000034AC071089
:107C58000400000009B504480068044B03441B688D
:107C68005B6C029309BD000034AC071004000000EF
:107C780010B504460068FFF77DFF204610BD38B5F3
:107C8800046805467CB16368013B63605BB923689F
:107C980020469B689847A368013BA3601BB92368EB
:107CA8002046DB689847284638BD38B50D1E04467F
:107CB800006803DDFFF76CFF18B938BDFFF75AFFFE
:107CC80000202060A5600120F7E710B5436804464E
:107CD800013B436063B903689B689847A368013B0D
:107CE800A3602BB923682046BDE81040DB6818471D
:107CF80010BD70B50446D0E9005305EB0316AE423B
:107D080004D0284602F0D0F81035F8E72068FFF7CD
:107D180031FF204670BD0000002302480360FFF7D2
:107D280001BB00BF58AE0710002240681146FFF79C
:107D380079BE002240681146FFF7ACBE00224068B9
:107D48001146FFF7C3BE00224068FFF7B1BE00220C
:107D5800406881F00101FFF78FBE002340681A4692
:107D68001946FFF77BBE002340681A461946FFF7FD
:107D780067BE002240681146FFF738BE0022022184
:107D88004068FFF741BE002340681A46FFF720BE4F
:107D980010B52824074B22461846002104F083F921
:107DA8004FF0FF3242600422034B04805A60034ABA
:107DB8001A6010BD64AE07105CAE0710E8F73F020A
:107DC80030B500258DB004462A4603A80395FFF771
:107DD80057FD00280FDA2023CDE90435074B019021
:107DE800009332202B46064904AAFFF769FC256058
:107DF80020460DB030BD039B2360F9E744F83F02ED
:107E080024F83F02002240681146FFF743BE0022D3
:107E180040681146FFF75ABE00224068FFF748BE87
:107E28000022406881F00101FFF726BE0023406868
:107E38001A461946FFF712BE002340681A4619462B
:107E4800FFF7FEBD002240681146FFF7EBBD002298
:107E580040681146FFF7CABD002202214068FFF7BB
:107E6800D3BD002340681A46FFF7B2BD0322024B78
:107E78005A60024A1A6070478CAE071070F83F02C9
:107E8800FF210022044B0120C3E9001264211A617A
:107E9800C3E90201704700BF94AE0710704710B5E0
:107EA80004461821FCF7EDFF204610BDF0B5037D10
:107EB8000E46062B4FF000048DB000F1040712D0D7
:107EC80000F1080515F8011D0A22304601F09DFF52
:107ED800AF42044419D0002CF4D02E21304601F0D2
:107EE80091FF0444EEE72F236A4639460A208DF8AD
:107EF8000040FFF795FA6846FCF780FF33680246B2
:107F080069463046DB689847044620460DB0F0BD08
:107F180010B50446044B1122002140F8043B04F03C
:107F2800C2F8204610BD00BFB4F83F020346074A16
:107F380010B543F8042B01F1100251F8044B91429B
:107F480043F8044BF9D10A781A7010BDB4F83F020F
:107F580010B59DF8084044EA032343EA024204238B
:107F680042EA01614160037510BD000007B5064B88
:107F78000360CB7800938B784A780978FFF7E8FF9D
:107F880003B05DF804FB00BFB4F83F02012200F122
:107F9800100313F8101C1846012908D153F8041CC3
:107FA80002EB4102013A03F11003F2D170470229B2
:107FB80004BF53F8041C5218F4E7704700207047B8
:107FC80010B504461021FCF75CFF204610BD08B52B
:107FD800FFF7F6FF08BD0EB4F0B588B0102100AF6A
:107FE80007F1340555F8042B04462B4678187A60B7
:107FF800FD60FFF7E9FD0F287A681AD900F1080338
:1080080023F007036E46ADEB030D411C2B46684673
:10801800FD60FFF7D9FD021E04DD2368694620468E
:108028009B689847B5462037BD46BDE8F04003B089
:1080380070470028F7D0236802469B68204607F15E
:1080480010019847EFE710B5C4687CB1206808B103
:10805800FCF715FF237A1BB1606808B1FCF70FFF26
:108068002046BDE810400C21FCF70BBF10BD38B509
:108078000B68044603604D6843689D4208D015B1FB
:108088006B6801336B60606808B1FFF71EFE6560BE
:1080980038BD07B503688DF8071001229B680DF1FC
:1080A8000701984703B05DF804FB0B461146002210
:1080B80010B50446C0E9002283600BB9204610BD04
:1080C800FFF7D5FFFAE78368EBB11A78032A1AD8C5
:1080D800DFE802F00417021B0520704702685B689E
:1080E8005268D05C2D2812D0A0F13003092B0ED98C
:1080F80074280ED066280CD0A0F16E03584258415F
:1081080070470620704700207047042070470320FE
:10811800704702207047000010B50446FFF7D3FFF0
:1081280003280DD004281ED002282BD12268A3686A
:1081380052685B68D05CA0F174035842584110BD86
:10814800A36822685B6854681C4420460E49FCF703
:108158004BFE0028F3D020460C49FCF745FE0038BA
:1081680018BF0120EBE72268A36852685B68D05CFF
:10817800D4180028E3D020460549FCF735FE00282E
:10818800E3D1DCE70020DAE7C2F83F02C0F83F029B
:108198006DF23F0210B50446FFF795FF02280ED096
:1081A800C31EDBB2012B14D82268A36850685B6831
:1081B8000A22BDE810400021184404F0B5BE226828
:1081C800A36852685B68D05CA0F1740358425841B8
:1081D80010BD0020FCE700002DE9F047074688465F
:1081E80000249946102386B0002102A892460293E3
:1081F800FFF758FA234642463946CDE9004402A81B
:10820800FFF796FA061E25DDB6F1006FA8BF4FF0FE
:10821800FF301149B8BF300103F020FE054698B180
:108228000024002102A8FFF73DFA2B4642463946B2
:10823800CDE9006402A8FFF77BFAA04207DD012020
:10824800CAF80050C9F8006006B0BDE8F0872846B3
:10825800FCF715FE2046F7E710FC3F022DE9F84F22
:10826800436886680B4488460E4407461C461946F0
:108278004FF00D094FF0090AB44263D0254615F8AE
:10828800012B5C2A2BD1A14207D0A4EB010B184685
:108298005A4603F0EEFE03465B44B54239D0627895
:1082A800752A2AD1A21CB21A032A32DD4FF0000C1B
:1082B800A01D04F1050EAE4553D015F8011FA1F11C
:1082C80030025FFA82FBBBF1090F05D9A1F1610207
:1082D800052A07D8A1F1570242EA0C1CEBE7284609
:1082E8000446C9E7A1F14102052A12D8A1F13702D3
:1082F800F2E7014603F801CBF2E76E2A1CD00ED84C
:10830800622A13D007D82F2A11D05C2A0FD0222A2C
:108318000DD0002023E0662AFBD10C2207E0722A48
:108328000DD0742AF5D183F800A001E008221A7054
:10833800A11C08460133D3E74FF00A02F7E783F898
:108348000090F5E7A14206D0641A1846224603F0C9
:1083580090FE034623440120A3EB0803BB60BDE85D
:10836800F88FBCF17F0FC4D92146B9E7F8B50446A8
:108378001546002700EB0116B44210D02378032BD2
:1083880008D129462046FFF769FF48B1A368EF5492
:108398001034F1E7002BFBD1A268AB54F8E70120B9
:1083A800F8BD000038B500230446C0E900330E4884
:1083B800C4E90203A9B10B78032B06D08BB9136863
:1083C80058684B68C35C6E2B07D013684D685868B3
:1083D8008B6828445B1BA060E36011462046FFF7CA
:1083E80046FE204638BD00BF36FA3F0238B50025A4
:1083F8000B4604461146C0E90055C0E90255C0E9DC
:1084080004554BB11A78012A06D103F11002DB6832
:1084180082604361FFF72BFE204638BD10B54369E3
:10842800044663B18068013BE0601030A0602061C1
:10843800636113B1FFF7AAFDA060012000E01846B0
:1084480010BD38B500250B4604461146C0E9005555
:10845800C0E9025505614BB11A78022A06D103F129
:108468001002DB6882600361FFF701FE204638BD19
:1084780010B5036904464BB18068013BE060236195
:1084880013B1FFF783FDA060012000E0184610BD7E
:1084980010B57D210446FFF7FCFD0123204623711A
:1084A80010BD08B50379012B02D0022B04D008BDFA
:1084B8002C21FFF7EEFDFAE73A21FAE710B504465A
:1084C800FFF7EFFF20467B21FFF7E3FD002320465F
:1084D800237110BD13B504460191FFF7E2FF23682D
:1084E8002046DB68019A03499847012320462371F7
:1084F80002B010BD41F83F0213B504460191FFF7E1
:10850800D0FF23682046DB68019A03499847012376
:108518002046237102B010BDA8F33F022DE9F047B1
:108528000D469046222104462F46FFF7B2FDDFF89C
:10853800A490A8444745BA463DD017F8016B222EAF
:1085480006D05C2E04D0304603F076FD0028F1D129
:108558002368294620469B68AAEB050298475C21B8
:108568002046FFF796FD0D2E0AD8072E1CD9A6F136
:108578000803052B18D8DFE803F00D0F11171315A2
:10858800222E01D05C2E0FD131462046FFF781FD07
:108598003D46CFE76221F8E77421F6E76E21F4E75C
:1085A8006621F2E77221F0E7236832464946204601
:1085B800DB689847ECE7BD4205D02368294620468A
:1085C8009B687A1B984722212046FFF762FDBDE889
:1085D800F08700BFC4F83F0213B50446CDE9002177
:1085E800FFF75FFFDDE900212046FFF797FF022331
:1085F8002046237102B010BD13B50446CDE9002111
:10860800FFF74FFFDDE900212046FFF787FF012331
:108618002046237102B010BD38B50023044603601C
:1086280010200D46FCF727FC28B10123C0E90133CF
:10863800024BC56003602060204638BDD4F83F0275
:10864800F0B504460E460C20274987B0154603F0BE
:1086580003FC014618B10023C0E90033037203A8E4
:108668000291FFF7D9FF029A42B9C4E90022A26039
:1086780003A8FFF704FB204607B0F0BD00232946F6
:108688000193304601ABFFF7A7FD18B9C4E9000014
:10869800A060EDE71449681C03F0E0FB029F7860D6
:1086A80018B9C4E90000A060E2E72A46314603F0A1
:1086B800D3FC01237A68019938683B72FFF756FEAC
:1086C8000028E3D0029B19680493039B059313B118
:1086D8005A6801325A60204604AAFFF7E6FC05A84A
:1086E800FFF7CDFAC4E700BF10FC3F024FF0FF30A0
:1086F8007047704730B5054640698BB0F8B16B6874
:10870800002B16DB0023FFF747F9041E13DA14F1D8
:10871800C90F01D1AB695BB120220023CDE9022347
:10872800084A322000920849019402AAFEF7C8FFBD
:108738006C60002003E02046AB692344AB610BB0BA
:1087480030BD00BFE8F83F0224F83F0207B5012218
:108758000DF10701FFF7CEFF012814BF4FF0FF30DE
:108768009DF8070003B05DF804FB000070B50546EE
:1087780040698AB0D8B16B68002B12DB0023FFF781
:1087880019F9041E0FDA20230026CDE90236094B19
:108798003220009308493346019402AAFEF790FF5D
:1087A8006C60002003E02046EB692344EB610AB0CB
:1087B80070BD00BF01F93F0224F83F0207B501224E
:1087C8008DF807100DF10701FFF7D0FF03B05DF832
:1087D80004FB000030B5054640698BB0C0B10022EB
:1087E800FFF7CCF8041E0BDA20220023CDE9022380
:1087F800084A322000920849019402AAFEF760FF55
:108808000023C5E905336B60EB6120460BB030BD32
:108818000446FAE71BF93F0224F83F0210B5044664
:10882800034B01210360FFF7D5FF204610BD00BFB1
:10883800B8F93F0210B50446FFF7F0FF20462021A3
:10884800FCF71FFB204610BD10B504468CB0039101
:108858000121FFF7BFFF0023216904F11400039AE7
:10886800FFF77EF8041E4FF000030DDA2022CDE951
:108878000423064A322000920549019404AAFEF70F
:108888001FFF20460CB010BD1C46FAE735F93F0221
:1088980024F83F0210B504460021FEF7FFFF00222E
:1088A80021460548FEF77CFF28B12046BDE8104068
:1088B8000021FFF701B810BDB19A3F0238B5002179
:1088C8000546FFF73FF80446D0B901462846FFF7AA
:1088D80001F821462846FFF735F8044660B910200C
:1088E800084903F0B9FA044630B100230146836011
:1088F800054A2846FFF718F800212846FEF7F8FF32
:10890800204638BD10FC3F02999A3F0270B54FF4DB
:108918007A73002592B0CDE90353184BCDE90605CB
:108928000E4602A80221CDE908550293FFF78CFFF5
:10893800041E15DB304602A902F0E3F8041E15DA1E
:10894800039B3220AB42B8BF1C462023CDE90A3531
:108958000B4B0C49009301942B460AAAFEF7B0FE74
:1089680002A8FFF75BFF204612B070BD294602A897
:10897800FFF730FF00EAE074F2E700BFB8F93F0202
:108988004EF93F0224F83F0210B5044638B1FCF70F
:10899800BCFD2046BDE810401021FCF772BA10BD9E
:1089A80037B50546FFF78AFF044690B1836883B15F
:1089B80001953DB100212846FEF770FFA3680BB969
:1089C80003F051FA2046E36801A9984701A8FCF78B
:1089D80014FE0021284603B0BDE83040FEF76CBF06
:1089E80070B54FF47A7300259EB0CDE90F53324B22
:1089F800CDE912050E460EA80121CDE914550E93B6
:108A0800FFF722FF041E2EDB1822294602A803F0D6
:108A18004AFB0EA902A803F071F8041E29DA0F9B7D
:108A2800AB42B8BF1C4614F1C90F0DD1149D5DB9F6
:108A380016A8FDF718F9304616A9FDF709FD16A87E
:108A4800FDF7E2F82C460BE020220023CDE916239F
:108A58001A4A322000921A49019416AAFEF730FEEB
:108A680002A8FDF7D1F80EA8FFF7D8FE20461EB0E1
:108A780070BD9DF818300A2B0CD02023CDE916358F
:108A8800104B322000930E492B4616AAFEF718FE0B
:108A98000D4CE5E702A908A8FDF778FD08A916A876
:108AA800FDF77CFD304616A9FDF7D2FC16A8FDF7A8
:108AB800ABF808A8C4E700BFB8F93F026FF93F0256
:108AC80024F83F0290F93F02E8FEFFFF30B50B683B
:108AD80004460D4687B023B9FDF7C5F8204607B010
:108AE80030BD6846FDF7BFF869462868FFF778FF8C
:108AF8000028204605DAFDF7B6F86846FDF784F841
:108B0800ECE7FDF7B0F869462046FDF7A1FCF4E76D
:108B1800F0B5054600680E4693B0002848D032B933
:108B2800FFF7F4FE00EAE074204613B0F0BD684693
:108B3800FDF799F869462868FFF752FF041E28DBFD
:108B4800307C0A2805D0A0F1FF0358425841FCF7B1
:108B580040FD2823D6E9004703FB0747A7421CD05E
:108B680004F1100106A8FCF787FE06A90CA8FDF77A
:108B78000DFD21460CAA684602F014FA06460CA818
:108B8800FDF742F806A8FDF73FF82834002EE5D196
:108B9800094C6846FDF738F8C6E769462868FFF7C4
:108BA800B5FE041EF5DB6846FDF72EF80024BBE78A
:108BB8006FF0D104B8E700BFFCFEFFFF13B56C46A9
:108BC8000B460246D0E9000184E8030093E803005D
:108BD80082E8030094E8030083E80300986891683A
:108BE80090609960D168D868D060D96002B010BD33
:108BF8000346F0B51D68084689B0002D46D0002709
:108C080069460297FFF7DAFF39462846FEF762FE03
:108C18002846FFF753FE0646002833D0846804A987
:108C280068460697FFF7CAFF314604A8FFF7C6FF54
:108C380004A8FCF76AFCB668BEB12CBB01230493F8
:108C4800144B284604A922460593FEF75FFE2146E9
:108C58002846FEF723FE28460021FEF749FE68460F
:108C6800FCF753FC204609B0F0BD002CF3D0324687
:108C780031462846FEF74AFE31462846FEF71CFED6
:108C88003446E8E7044CE6E73C46E4E76FF0D104F5
:108C9800E8E700BFA5993F02FCFEFFFF8842F8B550
:108CA80004460D46164614D9904213D2A2F1100676
:108CB800751AA1F110072C44B74218D01CB13146DF
:108CC800204601F07AF9304601F0EEF8103E103CEB
:108CD800F2E70CD0B5420AD01CB12946204601F073
:108CE8006CF9284601F0E0F810351034F2E7F8BDC9
:108CF80070B50E1E054611DD3001FEF72DFF044646
:108D080058B1D5E9001201EB0212FFF7C7FF286836
:108D1800FEF730FF01202C60AE6070BD0024F6E73E
:108D280010B5044680680368DB689847E368184410
:108D3800E06010BD7047084611B10B685B681847C2
:108D48007047704770477047704738B504460D46FE
:108D580000682E2103F0EBF92368C31A2B6023B1B6
:108D6800037803B1013023682060184638BD10B578
:108D780004461021FCF785F8204610BD10B50446BE
:108D88000421FCF77EF8204610BD10B504460421E6
:108D9800FCF777F8204610BDFEF7E0BA08B5FCF7F7
:108DA80023F8B0FA80F0400908BD704710B50C46AA
:108DB80001F06EFA844205D101F06AFABDE810406C
:108DC80001F058BA02F0EEFF844205D102F0EAFF42
:108DD800BDE8104001F0F1B92CB123682046BDE888
:108DE80010405B68184710BD0B6803604B68436010
:108DF80013B15A6801325A60704713B504460846E1
:108E08000191FBF7FBFF02462046019902B0BDE83D
:108E18001040FFF7F1BB13B5044608460191FBF774
:108E2800EDFF0246204623680199DB6802B0BDE8E1
:108E38001040184707B503688DF807100122DB6852
:108E48000DF10701984703B05DF804FB2DE9F74FD2
:108E58004FF0140AD0E90084174645460AFB04F48B
:108E68000093174BA4105C43002C21DD66100AFB0D
:108E780006F005EB0009B9F804B03A465F4528BF8B
:108E88005A462858019103F064F900284FF001036D
:108E980001990BD15F4503D1009A13703446E3E77B
:108EA800FCD9A61B09F11405013EF7E7F9DBF5E744
:108EB800A5EB08050248AD10684303B0BDE8F08F84
:108EC800CDCCCCCC7FB50369057E019103B3F9B154
:108ED800002600F10C04039603A901A8FFF735FF4B
:108EE8000146A8B10DF10B032046039A8DF80B60DB
:108EF800FFF7ACFF9DF80B3053B12368142404FB33
:108F08000034B4F906300834002BA8BFDDB2E3E71B
:108F1800284604B070BD0EB4F0B58CB000AF07F1B0
:108F2800440555F8042B04462B46202107F1100070
:108F38007A60FD60FEF748FE1F287A681AD900F1AA
:108F4800080323F007036E46ADEB030D411C2B46C7
:108F58006846FD60FEF738FE021E04DD2368694698
:108F68002046DB689847B5463037BD46BDE8F04037
:108F780003B070470028F7D023680246DB68204614
:108F880007F110019847EFE710B5084CD4E88F3F78
:108F9800DB0709D42046FBF783FF28B12046FBF7FF
:108FA80084FF034803F042F8024810BDACAE071036
:108FB800539E3F0238AC071010B5084CD4E88F3FD9
:108FC800DB0709D42046FBF76BFF28B12046FBF7E7
:108FD8006CFF034803F02AF8024810BDB0AE071032
:108FE800BB9E3F023CAC071038B500250446C0E9DB
:108FF8000055C0E904558560856140F8245FFEF797
:1090080091F9FFF7C1FFE061FFF7D6FF25732062F2
:10901800204638BD10B50A4CD4E88F3FDB070CD486
:109028002046FBF73DFF40B10648FFF7DDFF20462D
:10903800FBF73BFF044802F0F9FF024810BD00BFF0
:10904800A8AE0710B8AE071099A63F020023024A3F
:1090580002490348FEF75EBB81A43F020DA43F020C
:109068008DA33F0200231A4619461846FEF752BB45
:1090780037B504468D686846FFF7B6FE6A46294646
:109088002046FFF7B3F901A8FEF7F9FD204603B023
:1090980030BD37B50446CD686846FFF7A5FE6A4679
:1090A80029462046FFF77EF901A8FEF7E8FD20468D
:1090B80003B030BD37B504460D696846FFF794FE26
:1090C8006A4629462046FEF7F0FF01A8FEF7D7FDBD
:1090D800204603B030BD000070B58AB00D46014689
:1090E80004A8FFF7C5FF144E04A8FFF797F9E8B1E5
:1090F800684604A9FFF7CDFF31460298FFF74EFEF8
:10910800044610B12C1E18BF012401A8FEF7B7FDB4
:10911800002CE9D0684604A9FFF7CCFF6846FFF7A2
:1091280039F8286001A8FEF7AAFDDDE705A8FEF7D3
:10913800A6FD0AB070BD00BFDCF93F0237B50C468A
:10914800134920461546FBF74FFE50B901F0A0F829
:109158004FF4165101F08AF803B0BDE8304001F031
:1091680097B820460B49FBF73FFE78B94FF41653E2
:1091780001A928460193FFF7AFFF02F013FE0199FA
:1091880001F018F802F00EFE03B030BD0020FBE736
:10919800E1F93F02E8F93F0270B51426D0E900531F
:1091A800044606FB0356AE4205D005F10800FFF75A
:1091B800F3FF1435F7E72068FEF7DCFC204670BDA6
:1091C80010B504460C30FFF7E7FF2046FEF791FD87
:1091D800204610BD10B50446034B40F8043BFFF78A
:1091E800EFFF204610BD00BF40F23F0210B5044615
:1091F800FFF7F0FF20462421FBF743FE204610BD71
:1092080010B50446024B0360FFF7E4FF204610BD8B
:1092180084FA3F0210B50446FFF7F2FF20462421E6
:10922800FBF72FFE204610BD0A6810B502604A6899
:1092380042600022C0E9022202618C688A60846070
:10924800CC68CA60C4600C690A61046110BD002260
:10925800C0E90022826010B50C680A6004604C689E
:109268004A6044608C688A60846010BD10B504460A
:1092780003681868FEF780F8204610BD2DE9F04F06
:1092880087B003931C4B80465B688946C3F3080389
:1092980016466BB9FFF7BEFE044600F12403406A88
:1092A8000593FFF779FD237B2BB105A8FFF7DEFFB8
:1092B80007B0BDE8F08F01235FFA89F92373D4E979
:1092C800005305EB830AAA4512D055F8047B3146B2
:1092D800381DFFF7F7FD8145F5D3039A3B680092E7
:1092E800D3F808B04A46334641463846D847EAE7F5
:1092F80000232373D9E700BF00ED00E02DE9F74F05
:109308009B461A4B80465B688946C3F3080316469A
:109318006BB9FFF77FFE044600F12403406A01930E
:10932800FFF73AFD237B2BB101A8FFF79FFF03B09E
:10933800BDE8F08F0123F6B22373D4E9005305EB9F
:10934800830A55450ED055F8047B5946381DFFF75A
:10935800B9FD8642F5D33B684A4641463846DB6844
:109368009847EEE700232373DEE700BF00ED00E037
:109378002DE9F341164B05465B680F46C3F3080316
:109388001BBBFFF747FE044600F12403406A019324
:10939800FFF702FDD4E90063462406EB8308B045D5
:1093A80009D101A8FFF762FFA542B4BF0020012040
:1093B80002B0BDE8F08156F8040B39460430FFF7D7
:1093C80081FD8442A8BF0446E9E70020F0E700BF1A
:1093D80000ED00E0F8B5D0E901539D4204460E4681
:1093E8000DDB6F1C002F006804DDB900FEF7D0FB11
:1093F80018B9F8BDFEF7BEFB00202060A7602768FB
:10940800626807EB85019200A2EB8502081D02F055
:1094180030FE47F825606368012001336360E8E7A0
:1094280037B5044600F12403406A01930D46FFF75F
:10943800B3FCD4E9003203EB8202934219460AD006
:1094480009680433A942F8D101A8FFF70FFF0025E6
:10945800284603B030BD29462046FFF7BBFF054626
:109468000028F1D06368012B01D1FFF7EFFD01A8B7
:10947800FFF7FCFEECE70B4670B50446D0E90002A6
:1094880000EB820282420FD001461D6851F8046B3E
:10949800AE4207D1521A02F0ECFD01206368013B8D
:1094A800636070BD0846EDE70020FAE71FB5044683
:1094B80000F12403406A01910393FFF76DFC2046F5
:1094C80001A9FFF7D8FF18B163680BB9FFF7CAFD08
:1094D80003A8FFF7CBFE04B010BD182370B50446EF
:1094E800D0E9045603FB0656AE4215D0204605F1D6
:1094F8001001FFF7C0FF63680BB9FFF7B3FDE06920
:1095080029690368DB689847696919B1206A0368A3
:10951800DB6898471835E7E71826D4E9045306FBB3
:109528000356AE4204D0284600F0BEFC1835F8E7D2
:109538000023636170BD73B50446FFF793FD04F122
:109548002403606A0193FFF727FC2046FFF7C5FF55
:1095580001A8FFF78BFE606A08B1FDF7F1FED4E9B8
:109568000453182606FB0356AE4204D0284600F0E2
:109578009BFC1835F8E72069FEF7FCFA2068FEF72F
:10958800F9FA204602B070BD0148FFF7D4BF00BF0A
:10959800B8AE07108842F8B504460D46164615D9E8
:1095A800904214D2A2F11406751AA1F114072C44A2
:1095B800B7421AD01CB131462046FFF735FE06F1F6
:1095C8000800FFF7E9FD143E143CF1E70DD0B54261
:1095D8000BD01CB129462046FFF726FE05F10800EE
:1095E800FFF7DAFD14351434F1E7F8BD2DE9F04F33
:1095F80090460023462295B00391D8F804100446FB
:109608009942C0E90033C0E90233C0E90433CDE927
:10961800083302760A9323DCD8E90057142303FBA6
:109628000757AF423BD029460BA800F0C6FC0BA950
:109638000FA8099E00F0C1FCDDE9091399421BDA65
:10964800089B099A03EB0616314603EB021206F152
:109658001000FFF723FBEEB9099B0133099311E0D2
:1096680008A8FFF745FB0028D6D108A8FEF741FB5C
:10967800204615B0BDE8F08F013108A8FFF738FB88
:109688000028DDD10FA800F00FFC0BA800F00CFC9F
:109698001435C6E730460FA900F08FFCDCE700263A
:1096A8004FF01409CDE90B660D96DDE908239E42BB
:1096B8007CDA3301D35806930BB90136F5E700235A
:1096C800079309FB06F30BAD029307A906A8FFF75A
:1096D8003CFB82460028F0D04FF0000301468DF88D
:1096E80017302846079A0DF11703FFF7AFFB9DF8CF
:1096F80017700190002F4AD1BDF81C30CDE91177C1
:10970800ADF840304FF6FF73CDF83CA0ADF84230CD
:109718001397D5E90132934217DB03F1010ABAF135
:10972800000F30DD09FB0AF0FEF716FA834660B336
:10973800D5E9001209FB0212FFF72CFF2868FEF793
:1097480019FAC5F800B0C5F808A02B68019A09FBFA
:10975800023A6A68514609FB02320AF11400FFF71F
:1097680019FFBAF1000F03D050460FA9FFF75CFDAF
:109778006B6801336B6011A8FFF70EFD3FB10BA8B2
:10978800FFF70AFD71E7BB46D8E70127F3E7019B1E
:109798002D6809FB0355069B1B782BB9D8F80030B8
:1097A800029A13441B7CEB8008358EE721682260FF
:1097B80062686360A36809920A9A0A93E368A260E0
:1097C8000B9A0B932369E2600C9A0C9363692261EC
:1097D8000D9A0D93039B089162612376CFE70000F1
:1097E800F0B504462646174687B00D466846194622
:1097F800FBF710FC0B4B694646F8043B03A8FBF744
:1098080009FC394603AA3046FFF7F0FE03A8FBF728
:10981800C0FB6846FBF7BDFB2046034B256223606F
:1098280007B0F0BD40F23F026CFA3F02F0B50F46B8
:1098380085B038461C4916461D460A9CFBF7D4FAE3
:10984800C0B9A4B1294601A8FFF701FD2420174992
:1098580002F002FB054630B101AB32462146FFF764
:10986800BFFF134B2B6001A8FBF793FB2C46204648
:1098780005B0F0BD38460F49FBF7B6FA90B9002C91
:10988800F5D0294601A8FFF7E2FC2420074902F099
:10989800E3FA05460028E6D03246214601ABFFF739
:1098A8009FFFE0E70024E2E7F0F93F0210FC3F02E7
:1098B80084FA3F02F4F93F02014B024A1A607047EA
:1098C800B4AE071005FA3F022DE9F047089DD0F81D
:1098D800209004460E461746984600F0D9FC81456C
:1098E8004DD02B79190704D520466A695449FFF7EA
:1098F80012FBB8F1000F0DD05B212046FFF79AFA52
:1099080041462046FFF787FA236802222046DB6893
:109918004C4998472B79DA0724D5D5F808802F21A8
:10992800404602F02AFC08B100F1010841462046F1
:10993800FFF771FA2B799B0708D53A212046FFF7E4
:1099480079FA2046EA684049FFF7E5FA2A79236858
:1099580012F0040F20464FF00202DB6814BF3B49A7
:109968003B4998472B7958071DD529690B461A4654
:1099780013F8010B60B1202808D11946F7E73548DC
:1099880000F083F90028ACD0BDE8F0872828EED194
:109998002368521A2046DB68984723680422204629
:1099A800DB682D49984700213846FDF7A5FE01469A
:1099B8002046FFF730FA236802222046DB68244954
:1099C80098471EB131462046FFF725FA2B7913F048
:1099D800300F2CD023682149DB68022220469847A3
:1099E8002B79D9060AD52368072220461C49DB684B
:1099F80098472046AA691B49FFF78DFA2B799A06E2
:109A080011D5DB0605D5236802222046DB680F49FD
:109A180098472368204614490A22DB68984720465D
:109A2800E969FFF7F8F95D212046FFF703FA236893
:109A38002046BDE8F0470222DB680C49184700BF02
:109A480009FA3F0210FA3F0241F83F0213FA3F02B7
:109A580018FA3F02E0AE071016FA3F021BFA3F025F
:109A68001EFA3F0226FA3F0229FA3F0234FA3F0261
:109A78002DE9F0410446076A0D46164600F008FC39
:109A8800874207D0206A324603682946BDE8F0417C
:109A9800DB681847034800F0F8F80028F2D0BDE862
:109AA800F08100BFE0AE07102DE9F04385B0D0F893
:109AB800209005460F4690461E460C9C00F0E8FB99
:109AC800814505D1494800F0E0F8002840F08A8037
