:02000002B0004C
:1040000000400B00DAF30B00000006000D00050273
:08401000040139180000000052
:0440180094DB0B002A
:1040200081F0004102E000BF83F0004330B54FEA69
:1040300041044FEA430594EA050F08BF90EA020FD6
:104040001FBF54EA000C55EA020C7FEA645C7FEA69
:10405000655C00F0E2804FEA5454D4EB5555B8BF8C
:104060006D420CDD2C4480EA020281EA030382EAFD
:10407000000083EA010180EA020281EA0303362D8F
:1040800088BF30BD11F0004F4FEA01314FF4801C62
:104090004CEA113102D0404261EB410113F0004F74
:1040A0004FEA03334CEA133302D0524263EB43032B
:1040B00094EA050F00F0A780A4F10104D5F1200EC9
:1040C0000DDB02FA0EFC22FA05F2801841F1000124
:1040D00003FA0EF2801843FA05F359410EE0A5F1F8
:1040E00020050EF1200E012A03FA0EFC28BF4CF029
:1040F000020C43FA05F3C01851EBE37101F00045DF
:1041000007D54FF0000EDCF1000C7EEB00006EEBEB
:104110000101B1F5801F1BD3B1F5001F0CD3490875
:104120005FEA30004FEA3C0C04F101044FEA4452CC
:1041300012F5800F80F09A80BCF1004F08BF5FEA53
:10414000500C50F1000041EB045141EA050130BD33
:104150005FEA4C0C404141EB0101013C28BFB1F545
:10416000801FE9D291F0000F04BF01460020B1FA90
:1041700081F308BF2033A3F10B03B3F120020CDA63
:104180000C3208DD02F1140CC2F10C0201FA0CF041
:1041900021FA02F10CE002F11402D8BFC2F1200CA6
:1041A00001FA02F120FA0CFCDCBF41EA0C0190405C
:1041B000E41AA2BF01EB0451294330BD6FEA0404A5
:1041C0001F3C1CDA0C340EDC04F11404C4F1200290
:1041D00020FA04F001FA02F340EA030021FA04F3A2
:1041E00045EA030130BDC4F10C04C4F1200220FAF9
:1041F00002F001FA04F340EA0300294630BD21FA37
:1042000004F0294630BD94F0000F83F4801306BFFC
:1042100081F480110134013D4EE77FEA645C18BFF0
:104220007FEA655C29D094EA050F08BF90EA020F87
:1042300005D054EA000C04BF1946104630BD91EA7F
:10424000030F1EBF0021002030BD5FEA545C05D182
:104250004000494128BF41F0004130BD14F58004C1
:104260003CBF01F5801130BD01F0004545F0FE4135
:1042700041F470014FF0000030BD7FEA645C1ABF6A
:10428000194610467FEA655C1CBF0B46024650EAA1
:10429000013406BF52EA033591EA030F41F40021CD
:1042A00030BD00BF90F0000F04BF0021704730B553
:1042B0004FF4806404F132044FF000054FF0000128
:1042C00050E700BF90F0000F04BF0021704730B5E9
:1042D0004FF4806404F1320410F0004548BF4042BE
:1042E0004FF000013EE700BF42004FEAE2014FEA13
:1042F00031014FEA02701FBF12F07F4393F07F4FEE
:1043000081F06051704732F07F4208BF704793F0F0
:104310007F4F04BF41F40021704730B54FF4607403
:1043200001F0004521F000411CE700BF50EA010206
:1043300008BF704730B54FF000050AE050EA0102AF
:1043400008BF704730B511F0004502D5404261EB1F
:1043500041014FF4806404F132045FEA915C3FF460
:10436000D8AE4FF003025FEADC0C18BF03325FEAFD
:10437000DC0C18BF033202EBDC02C2F1200300FAAE
:1043800003FC20FA02F001FA03FE40EA0E0021FAD3
:1043900002F11444BDE600BF70B54FF0FF0C4CF4C1
:1043A000E06C1CEA11541DBF1CEA135594EA0C0F73
:1043B00095EA0C0F00F0DEF82C4481EA030621EAAE
:1043C0004C5123EA4C5350EA013518BF52EA0335E9
:1043D00041F4801143F4801338D0A0FB02CE4FF09B
:1043E0000005E1FB02E506F00042E0FB03E54FF0CB
:1043F0000006E1FB03569CF0000F18BF4EF0010EC3
:10440000A4F1FF04B6F5007F64F5407404D25FEABE
:104410004E0E6D4146EB060642EAC62141EA555171
:104420004FEAC52040EA5E504FEACE2EB4F1FD0CB3
:1044300088BFBCF5E06F1ED8BEF1004F08BF5FEA31
:10444000500E50F1000041EB045170BD06F00046E3
:1044500046EA010140EA020081EA0301B4EB5C0490
:10446000C2BFD4EB0C0541EA045170BD41F4801188
:104470004FF0000E013C00F3AB8014F1360FDEBFAD
:10448000002001F0004170BDC4F10004203C35DA89
:104490000C341BDC04F11404C4F1200500FA05F30C
:1044A00020FA04F001FA05F240EA020001F00042AD
:1044B00021F0004110EBD37021FA04F642EB060123
:1044C0005EEA430E08BF20EAD37070BDC4F10C044D
:1044D000C4F1200500FA04F320FA05F001FA04F211
:1044E00040EA020001F0004110EBD37041F10001FD
:1044F0005EEA430E08BF20EAD37070BDC4F1200508
:1045000000FA05F24EEA020E20FA04F301FA05F26F
:1045100043EA020321FA04F001F0004121FA04F217
:1045200020EA020000EBD3705EEA430E08BF20EAE7
:10453000D37070BD94F0000F0FD101F00046400021
:1045400041EB010111F4801F08BF013CF7D041EAA3
:10455000060195F0000F18BF704703F000465200A7
:1045600043EB030313F4801F08BF013DF7D043EA78
:104570000603704794EA0C0F0CEA135518BF95EA2E
:104580000C0F0CD050EA410618BF52EA4306D1D1B5
:1045900081EA030101F000414FF0000070BD50EAD4
:1045A000410606BF1046194652EA430619D094EA5E
:1045B0000C0F02D150EA013613D195EA0C0F05D148
:1045C00052EA03361CBF104619460AD181EA03019C
:1045D00001F0004141F0FE4141F470014FF0000054
:1045E00070BD41F0FE4141F4780170BD70B54FF0EF
:1045F000FF0C4CF4E06C1CEA11541DBF1CEA13556F
:1046000094EA0C0F95EA0C0F00F0A7F8A4EB050450
:1046100081EA030E52EA03354FEA013100F0888047
:104620004FEA03334FF0805545EA131343EA126310
:104630004FEA022245EA111545EA10654FEA0026C5
:104640000EF000419D4208BF964244F1FD0404F57E
:10465000407402D25B084FEA3202B61A65EB0305DA
:104660005B084FEA32024FF480104FF4002CB6EB97
:10467000020E75EB030E22BFB61A754640EA0C0017
:104680005B084FEA3202B6EB020E75EB030E22BF57
:10469000B61A754640EA5C005B084FEA3202B6EB98
:1046A000020E75EB030E22BFB61A754640EA9C0057
:1046B0005B084FEA3202B6EB020E75EB030E22BF27
:1046C000B61A754640EADC0055EA060E18D04FEAE5
:1046D000051545EA16754FEA06164FEAC30343EA85
:1046E00052734FEAC2025FEA1C1CC0D111F4801F52
:1046F0000BD141EA00014FF000004FF0004CB6E74B
:1047000011F4801F04BF01430020B4F1FD0C88BFE9
:10471000BCF5E06F3FF6AFAEB5EB030C04BFB6EBF4
:10472000020C5FEA500C50F1000041EB045170BDE7
:104730000EF0004E4EEA113114EB5C04C2BFD4EB14
:104740000C0541EA045170BD41F480114FF0000E98
:10475000013C90E645EA060E8DE60CEA135594EA14
:104760000C0F08BF95EA0C0F3FF43BAF94EA0C0F17
:104770000AD150EA01347FF434AF95EA0C0F7FF48C
:1047800025AF104619462CE795EA0C0F06D152EAE0
:1047900003353FF4FDAE1046194622E750EA4106C4
:1047A00018BF52EA43067FF4C5AE50EA41047FF4D5
:1047B0000DAF52EA43057FF4EBAE12E74FF0FF3C3A
:1047C00006E000BF4FF0010C02E000BF4FF0010C0B
:1047D0004DF804CD4FEA410C7FEA6C5C4FEA430C84
:1047E00018BF7FEA6C5C1BD001B050EA410C0CBFD3
:1047F00052EA430C91EA030F02BF90EA020F002035
:10480000704710F1000F91EA030F58BF994208BF9B
:1048100090422CBFD8176FEAE37040F00100704758
:104820004FEA410C7FEA6C5C02D150EA013C07D1AF
:104830004FEA430C7FEA6C5CD6D152EA033CD3D0FA
:104840005DF8040B704700BF8446104662468C46F4
:104850001946634600E000BF01B5FFF7B7FF002827
:1048600048BF10F1000F01BD4DF808EDFFF7F4FF50
:104870000CBF012000205DF808FB00BF4DF808EDDB
:10488000FFF7EAFF34BF012000205DF808FB00BFFE
:104890004DF808EDFFF7E0FF94BF012000205DF820
:1048A00008FB00BF4DF808EDFFF7CEFF94BF0120D5
:1048B00000205DF808FB00BF4DF808EDFFF7C4FFCE
:1048C00034BF012000205DF808FB00BF4FEA410221
:1048D00012F5001215D211D56FF47873B3EB625252
:1048E00012D94FEAC12343F0004343EA505311F079
:1048F000004F23FA02F018BF404270474FF000000B
:10490000704750EA013005D111F0004008BF6FF048
:10491000004070474FF00000704700BF4A0011D2BE
:1049200012F5001211D20DD56FF47873B3EB625209
:104930000ED44FEAC12343F0004343EA505323FA15
:1049400002F070474FF00000704750EA013002D18A
:104950004FF0FF3070474FF0000070474FEA4102C0
:10496000B2F1E04324BFB3F5001CDCF1FE5C0DD9CD
:1049700001F0004C4FEAC0024CEA5070B2F1004F17
:1049800040EB830008BF20F00100704711F0804F1A
:1049900021D113F13872BCBF01F00040704741F4DF
:1049A00080114FEA5252C2F11802C2F1200C10FAE3
:1049B0000CF320FA02F018BF40F001004FEAC123C7
:1049C0004FEAD32303FA0CFC40EA0C0023FA02F36B
:1049D0004FEA4303CCE77FEA625307D150EA013341
:1049E0001EBF4FF0FE4040F44000704701F0004011
:1049F00040F0FE4040F40000704700BF53B94AB990
:104A0000002908BF00281CBF4FF0FF314FF0FF30D6
:104A100000F092B9ADF1080C6DE904CE00F024F875
:104A2000DDF804E0DDE9022304B07047D0B50C4B9B
:104A3000002206460F46FFF7AFFCFFF76FFF044664
:104A4000FFF730FC074B0022FFF7A6FC02460B469F
:104A500030463946FFF7E8FAFFF760FF2146D0BD40
:104A60000000F03D0000F0412DE9F047089D0446AC
:104A70008E46002B4DD18A42944669D9B2FA82F211
:104A800052B101FA02F3C2F1200120FA01F10CFA4D
:104A900002FC41EA030E94404FEA1C48210CBEFB85
:104AA000F8F61FFA8CF708FB16E341EA034306FB0E
:104AB00007F199420AD91CEB030306F1FF3080F09D
:104AC0001F81994240F21C81023E63445B1AA4B2EA
:104AD000B3FBF8F008FB103344EA034400FB07F78C
:104AE000A7420AD91CEB040400F1FF3380F00A81CD
:104AF000A74240F207816444023840EA0640E41BC2
:104B000000261DB1D4400023C5E900433146BDE86D
:104B1000F0878B4209D9002D00F0EF800026C5E90F
:104B2000000130463146BDE8F087B3FA83F6002E27
:104B30004AD18B4202D3824200F2F980841A61EB9F
:104B4000030301209E46002DE0D0C5E9004EDDE7BD
:104B500002B9FFDEB2FA82F2002A40F09280A1EBA5
:104B60000C014FEA1C471FFA8CFE0126200CB1FBFA
:104B7000F7F307FB131140EA01410EFB03F08842F3
:104B800008D91CEB010103F1FF3802D2884200F280
:104B9000CB804346091AA4B2B1FBF7F007FB101112
:104BA00044EA01440EFB00FEA64508D91CEB0404B0
:104BB00000F1FF3102D2A64500F2BB800846A4EB0B
:104BC0000E0440EA03409CE7C6F12007B34022FAF6
:104BD00007FC4CEA030C20FA07F401FA06F31C4325
:104BE000F9404FEA1C4900FA06F3B1FBF9F8200C32
:104BF0001FFA8CFE09FB181140EA014108FB0EF078
:104C0000884202FA06F20BD91CEB010108F1FF3AC7
:104C100080F08880884240F28580A8F102086144D3
:104C2000091AA4B2B1FBF9F009FB101144EA0141E1
:104C300000FB0EFE8E4508D91CEB010100F1FF348C
:104C40006CD28E456AD90238614440EA0840A0FB24
:104C50000294A1EB0E01A142C846A64656D353D0FA
:104C60005DB1B3EB080261EB0E0101FA07F722FA1E
:104C700006F3F1401F43C5E9007100263146BDE847
:104C8000F087C2F12003D8400CFA02FC21FA03F3AA
:104C9000914001434FEA1C471FFA8CFEB3FBF7F02B
:104CA00007FB10360B0C43EA064300FB0EF69E4250
:104CB00004FA02F408D91CEB030300F1FF382FD2E9
:104CC0009E422DD9023863449B1B89B2B3FBF7F691
:104CD00007FB163341EA034106FB0EF38B4208D96A
:104CE0001CEB010106F1FF3816D28B4214D9023EAB
:104CF0006144C91A46EA004638E72E46284605E7C9
:104D00000646E3E61846F8E64B45A9D2B9EB020899
:104D100064EB0C0E0138A3E74646EAE7204694E729
:104D20004046D1E7D0467BE7023B614432E730465C
:104D300009E76444023842E7704700BF10F8012BCE
:104D400011F8013B012A28BF9A42F7D0D01A7047C8
:104D5000034613F8012B002AFBD1181A01387047BB
:104D600038B50022002304460D46FFF787FD28B919
:104D700020462946BDE83840FFF758BE204605F1D9
:104D80000041FFF753FE404261EB410138BD00BFD7
:104D900009480A49884208B505D0094A824202D02A
:104DA000121A06F0B1FE0748074A0021121A06F04F
:104DB000D3FE014808BD00BF50E40320C8E90B0042
:104DC00034E6032034E60320FCE7032070B5074EE9
:104DD000074C06F017FDA41BA4080025AC4200D127
:104DE00070BD56F8043B98470135F7E76CE90B00B6
:104DF0009CE90B0000F04AB808B500F08BF8BDE85C
:104E0000084006F0B7BC02F0ABBC02F0A9BC02F04F
:104E1000AFBC02F0ADBC000008B5034A03490C204A
:104E200002F036FBFEE700BF11730B00A8DB0B009E
:104E30000078B0FA80F04009704701230370704792
:104E4000704700000A4B10B50446036003F0A8FE4B
:104E5000214604F0F2F805F01BF805F00BF82046A7
:104E6000044B40F8043B03F071FF204610BD00BF27
:104E7000FCDB0B00E4DB0B0010B50446FFF7E2FFA0
:104E800020462421FFF7C5FF204610BD38B500207D
:104E900002F04EFA42F210750446002002F048FA81
:104EA000001B61F10001A84271F1000307D204F078
:104EB000EFFF04F0E2FF10B902F062FBEDE704F04F
:104EC000E7FF04F0DAFF00F0D9FE0F490446503046
:104ED00004F066FE012384F87830204601F098FA49
:104EE00000F096FB09490446043004F059FE084BD3
:104EF00063614FF40063A361204602F0B5F8BDE89A
:104F0000384002F045BB00BFBDDB0B00CBDB0B0024
:104F100000F4032008B500F07BFBBDE8084002F078
:104F20007DB970B5D0E900531426044606FB03563C
:104F3000AE4204D0284604F07DFD1435F8E7206821
:104F400002F016FC204670BD8842F8B504460D46B6
:104F5000164616D9904215D2A2F11406751AA1F17F
:104F600014072C44B7421CD02CB13146204604F023
:104F7000EAFD337C2374304604F05CFD143E143C9F
:104F8000F0E70ED0B5420CD02CB12946204604F0F3
:104F9000DAFD2B7C2374284604F04CFD14351434C0
:104FA000F0E7F8BD2DE9F0410023C0E9003383604C
:104FB0004F689F4204460E4623DD4FF0140808FB5D
:104FC00007F002F0CDFB0546D8B1D4E9001208FB8A
:104FD0000212FFF7B9FF206802F0CAFB2560A76044
:104FE000D6E9007308FB0378B84508D0394628464F
:104FF00004F0C3FD3B7C2B7414371435F4E773685D
:1050000063602046BDE8F08170B52B4B2B4A9A6057
:1050100000248CB0C3E90044022002F073FA214658
:10502000012002F077FA06F01FFC234622460321F6
:1050300006F02AFC06F018FC224623460D2106F055
:105040001BFCCDE90044029404F022FF1C4C0546F1
:10505000694603A8FFF7A6FF264603A906A8FFF79F
:10506000A1FF184B46F8043B06A909A8FFF79AFFD1
:1050700009AA1E21304604F081F809A8FFF751FF64
:1050800006A8FFF74EFF104B2360256203A8FFF729
:1050900048FF0E4B236004F0FBFE4FF4165104F062
:1050A000E5FE03F07DFD214603F080FF6846FFF733
:1050B00038FF0CB070BD00BF34E603200000FFFFD6
:1050C00040E60320E4DB0B0010E40B00FCDB0B00EC
:1050D0000020704701230370087870470123037094
:1050E0000868003818BF0120704701230370086862
:1050F000003818BF0120704701230370D1E9002355
:10510000134314BF01200020704701230370D1E92D
:105110000023134314BF01200020704710B5012461
:105120000470D1E9000100220023FFF79DFB08B1C4
:105130004FF0000404F0010010BD00207047002073
:1051400070470020704700207047012303700878E3
:1051500070470123037008687047012303700868D3
:1051600070470123037008687047012303700868C3
:10517000704708B501230370D1E90001FFF7A6FBD2
:1051800008BD0020704700207047002070470022B3
:10519000C0E90022826070470022C0E900228260DC
:1051A00070470022C0E90022826070470022C0E9F7
:1051B0000022826070470022C0E9002282607047AE
:1051C0000022C0E90022826070470022C0E900226C
:1051D000826070470022C0E900228260704700228E
:1051E000C0E90022826070470022C0E9002282608C
:1051F00070477047704770477047704770477047F7
:105200007047704703680A781A70704703680A6825
:105210001A60704703680A681A60704738B501233E
:105220001578054A0B7005490446002D18BF114634
:1052300004F04BFC204638BD0CDC0B0011DC0B00ED
:1052400010B50349044604F040FC204610BD00BFE1
:10525000DAE30B0010B50349044604F036FC20469F
:1052600010BD00BFDAE30B0010B50349044604F09B
:105270002CFC204610BD00BFDAE30B0010B503493B
:10528000044604F022FC204610BD00BFDAE30B0008
:10529000084604F0CFBB10B5012304460B7011463D
:1052A00004F06BFC204610BD70B58AB002AD92EDE3
:1052B000000B04460E460AAA2946684604F06EFF13
:1052C000019B23B1074A08490A2002F0E1F8009A3D
:1052D00001233370521B2946204604F00AFC204665
:1052E0000AB070BD11730B0017DC0B001FB504462C
:1052F000684604F0FEFB6946204604F07FFC044645
:10530000684604F097FB201E18BF012004B010BDB2
:1053100070B50E4605460A49304604F088FC04463E
:1053200018B101232B70184670BD0649304604F0B1
:105330007EFC0028F8D001232B702046F4E700BF44
:105340000CDC0B0011DC0B0007B591F91030054A9D
:105350000190013301A852F82330984703B05DF85B
:1053600004FB00BF2CDE0B00012A02D101600020EB
:105370007047022A04BF0B680360F8E7012A02D1D4
:10538000016000207047022A04BF0B680360F8E741
:10539000012A02D1016000207047022A04BF0B6875
:1053A0000360F8E7006804F0E8BB0368D1E9000196
:1053B000C3E9000170470368D1E90001C3E90001B6
:1053C00070470368D1E90001C3E90001704700009C
:1053D00010B5044B044640F8043B03F0B7FC2046EC
:1053E00010BD00BFE4DB0B00A0F12400FFF7F0BF0D
:1053F00010B50446FFF7ECFF20462C21FFF709FD0E
:10540000204610BDA0F12400FFF7F2BFF0B50A68F6
:105410008C681444A24207461CD013782D2B19D156
:1054200001324FF0FF35164600230A20A642B4464B
:1054300012D09CF800103039C9B2092906F10106D2
:1054400025D8A3FB003CBCF1000F01D15B18EDD3C4
:1054500000201BE00125E6E7A242F9D085FB0312FC
:10546000B2EBE17F14BF01220022002B06DA0122F9
:105470001DB1013502D18B4200D100221046002A15
:10548000E6D1644502D101233B700846F0BD624578
:10549000E3E7086802F06CB910B58368044613B1FD
:1054A000032201469847204610BD2DE9F3410546E9
:1054B0000F4614464FF000086E46BD421CD0ACB1FA
:1054C000C4F8088095E8030086E8030094E8030028
:1054D00085E8030096E8030084E80300A268AB684F
:1054E000AA60A360EB68E268EA60E3602846FFF721
:1054F000D3FF10351034E0E7204602B0BDE8F0815C
:105500000EB400B58CB00DAA4FF0200C52F8041B5D
:105510000392CDE900120023016804AA0120CDE91D
:1055200004C301F0CDFF0CB05DF804EB03B070478D
:105530000EB400B58CB00DAA4FF0200C52F8041B2D
:105540000392CDE900120023016804AA1E20CDE9D0
:1055500004C301F0B5FF0CB05DF804EB03B0704775
:1055600008B502F025F91FB50446684604F0ADFA07
:105570006946204604F0E7FA07232374684604F0DE
:1055800059FA204604B010BD10B50446006810B1A9
:10559000002102F025F8204610BD000010B5054B93
:1055A000044640F8503BFFF7EFFF201D04F042FA9D
:1055B000204610BD34E10B0010B50446FFF7EEFFA6
:1055C00020465821FFF725FC204610BD10B50E4B94
:1055D0000E49044640F8043B04F077FA0023012208
:1055E000C4E90533C4E90733C4E90F33C4E911330F
:1055F000C4E913336362E26284F83030636384F891
:1056000038306365204610BD34E10B003CDC0B00F4
:1056100038B5064D2B683BB95820FFF7F4FB04461C
:1056200008B1FFF7D3FF2C60286838BD68E6032077
:1056300010B50C462046144906F00BFBE0B913499F
:10564000204606F006FBB8B91149204606F001FBDA
:10565000A0B91049204606F0FCFA88B90E49204648
:1056600006F0F7FA70B90D49204606F0F2FA002864
:1056700014BF3C20462010BD0120FCE71E20FAE7A5
:105680002820F8E73220F6E769DC0B004DDC0B0040
:1056900058DC0B0048DC0B005DDC0B0063DC0B000E
:1056A00030B590F838309BB30D2931D04369A3B1A0
:1056B000D0E90F34BFF35B8F083353E8002F551C3C
:1056C00043E8005CBCF1000FF7D1BFF35B8F436C84
:1056D000B2FBF3F503FB1522A15490F82C30BBB1BB
:1056E000436AABB1046A9CB1BFF35B8F00F128023F
:1056F00052E8003F5D1C42E8005CBCF1000FF7D1AE
:10570000BFF35B8F426AB3FBF2F002FB1033E1544C
:1057100030BD07B50191FFF77BFF0199FFF7C0FF8F
:10572000012003B05DF804FBA0F12400FFF7F1BFF6
:1057300070B504460020C4E90000A0604E688642AF
:105740000D4611DD314602F01BF868B12060A660FD
:10575000D5E900321A449A4204D013F8011B00F82C
:10576000011BF8E76B686360204670BD08B50068F0
:10577000FFF7DEFF08BD38B5002383608B68044661
:105780000D462BB102229847EB68E360AB68A3603B
:10579000204638BD0022C0E9002210B582600C68A6
:1057A00004604C6844608C680A604A6084608A6067
:1057B00010BD1FB5044601A8FFF7ECFF019B029A3C
:1057C0002068236063686260039A0293A368A26002
:1057D0000190039301F0CCFF04B010BD0022C0E99A
:1057E000002210B582600C6804604C6844608C68CC
:1057F0000A604A6084608A6010BD0022C0E900220D
:1058000010B582600C6804604C6844608C680A6063
:105810004A6084608A6010BD13B5FF2303740B7C5B
:1058200003745BB2054A01900133044652F82330F9
:1058300001A89847204602B010BD00BF8CDE0B00C7
:1058400038B504460D4604F098F905F1100104F14D
:105850001000FFF7E1FF204638BD000013B500231C
:105860008DF804300B7CFF2B044601D101F0A0FF22
:10587000044A5BB252F823300A4601A998472046F1
:1058800002B010BD14DF0B0013B500238DF80430F7
:105890000B7CFF2B044601D101F08AFF044A5BB266
:1058A00052F823300A4601A99847204602B010BD9D
:1058B000E8DE0B00F0B51D46012442F20F7742F2FC
:1058C0001076092D02D9632D07D80134551AA54247
:1058D00010D202608B234360F0BDB5F57A7F01D210
:1058E0000234F3E7BD4201D80334EFE70434B5FBDB
:1058F000F6F5E6E70C44124D22464FF0640C632B9C
:105900000ED9B3FBFCF70CFB17363B4605EB4607FD
:1059100015F816607F7802F8017C02F8026DEEE758
:10592000092B88BF064A046089BF02EB4305303368
:1059300012F813306D780B7088BF4D700023CAE7E2
:1059400061E00B00F0B513688BB004460E4602AD63
:1059500073B930238DF808300DF109070123337036
:105960007A1B2946204604F0C4F820460BB0F0BD4F
:105970000AAA29466846FFF79DFFDDE90073002B60
:10598000ECD0034A03490A2001F082FDE6E700BF9C
:1059900011730B0017DC0B00F0B513688BB0002BF4
:1059A00004460E4602AD0ED130238DF808300DF1BD
:1059B0000907012333707A1B2946204604F099F821
:1059C00020460BB0F0BDBFBF2D228DF808205B42F2
:1059D0000DF10901A8BF29460AAA6846FFF76AFF28
:1059E000DDE90073002BE4D0024A03490A2001F0EC
:1059F0004FFDDEE711730B0017DC0B002DE9F84FAC
:105A0000DDE90A460746884691462046314601258B
:105A100042F2107A0A2871F1000304D3642871F16C
:105A200000030BD20135A9EB0803AB421AD2C7F829
:105A300000908B237B603846BDE8F88FB0F57A7F05
:105A400071F1000301D20235EDE7504571F1000319
:105A500001D20335E7E742F210720023FEF7CEFFD2
:105A60000435D7E74544DFF86CB0AA46642C76F1DC
:105A700000031AD32046314664220023FEF7BEFFFE
:105A800000234FEA4209204631466422FEF7B6FF62
:105A900019F1010304461BF803300AF8013C1BF816
:105AA00009300AF8023D0E46E0E70A2C76F10003C1
:105AB0000BD32419074B621C9A5C1B5D88F80120EC
:105AC00088F800303D600023B4E7303488F80040A7
:105AD000F8E700BF98DF0B00F0B50E46D2E90013DF
:105AE0008DB051EA0302044604AD0ED130238DF887
:105AF00010300DF11107012333707A1B294620461F
:105B000003F0F7FF20460DB0F0BDCDE900130CAA5D
:105B1000294602A8FFF772FFDDE90273002BEAD0E5
:105B2000024A03490A2001F0B3FCE4E711730B00B9
:105B300017DC0B00F0B5D2E900328DB00D4653EA08
:105B40000201044604AE0ED130238DF810300DF161
:105B5000110701232B70BA1B3146204603F0C9FF01
:105B600020460DB0F0BD002A17DA2D215B428DF8DA
:105B7000101062EB42020DF11101CDE9003202A8D2
:105B80000CAAFFF73BFFDDE90273002BE1D0044ACA
:105B900004490A2001F07CFCDBE73146EDE700BF59
:105BA00011730B0017DC0B0013B5037CFF2B0446AD
:105BB00008D0054A5BB2014652F8233001A8984745
:105BC000FF23237402B010BDBCDE0B0010B50446E9
:105BD0001030FFF7E9FF204603F02CFF204610BDF0
:105BE00070B5D0E900532826044606FB0356AE42A2
:105BF00004D02846FFF7EAFF2835F8E7206801F0CF
:105C0000B7FD204670BD1FB5044600236946CDE9A7
:105C100000330293FFF7F1FD0A2323746846FFF770
:105C2000DFFF204604B010BD114B10B5044640F80C
:105C3000083BFFF7E8FF04F12000FFF7E4FF04F161
:105C40003800FFF7E0FF0B4904F1500003F03DFF7F
:105C5000094904F1600003F038FF0023C4E91C3354
:105C6000C4E91F33A4F87830C4F88430204610BD4E
:105C700048E10B006DDC0B0082DC0B0038B5064DF3
:105C80002B683BB98820FFF7BEF8044608B1FFF740
:105C9000CBFF2C60286838BD6CE6032008B50846A9
:105CA000FFF79EFF08BD70B5D0E9005318260446E3
:105CB00006FB0356AE4204D02846FFF775FF1835A1
:105CC000F8E7206801F054FD204670BD08B508468D
:105CD000FFF7E9FF08BD000070B5D0E91F56174B6C
:105CE00003600446AE4204D02846FFF7D5FB1035CA
:105CF000F8E7E06F20B1D4F88410091AFFF789F8AB
:105D000004F17400FFF740FC04F17000FFF73CFC65
:105D100004F1600003F08EFE04F1500003F08AFEEF
:105D200004F13800FFF740FF04F12000FFF73CFFCB
:105D300004F10800FFF738FF204670BD48E10B0072
:105D400010B50446FFF7C8FF20468821FFF761F829
:105D5000204610BD08B50068FFF726FF08BD10B546
:105D60000468237C23B12046FFF71EFF0023237421
:105D700010BD70B50468237C032B05460E4604D184
:105D800023680A6822600B6070BDFF2B0CD00E6880
:105D900040682146FFF7D8FA2C682046FFF704FF39
:105DA000032326602374EFE72046FFF7FDFE3368E8
:105DB0002360032323746868FFF7F6FEE4E770B5F9
:105DC0000468237C022B05460E4604D123680A682A
:105DD00022600B6070BDFF2B0CD00E68406821461E
:105DE000FFF7B2FA2C682046FFF7DEFE022326609A
:105DF0002374EFE72046FFF7D7FE336823600223C2
:105E000023746868FFF7D0FEE4E770B50468237C6C
:105E1000012B05460E4604D123780A7822700B70B8
:105E200070BDFF2B0CD00E7840682146FFF78CFA2E
:105E30002C682046FFF7B8FE012326702374EFE795
:105E40002046FFF7B1FE337823700123237468687E
:105E5000FFF7AAFEE4E710B501680B7CFF2B0446B0
:105E600005D04068FFF770FA2068FFF79DFE10BD6F
:105E700038B505682B7C04465BB1FF2B0AD040681F
:105E80002946FFF761FA24682046FFF78DFE0023BC
:105E9000237438BD2846FFF787FE00232B74606803
:105EA000FFF782FEF5E77FB50468237C092B0546E2
:105EB0000E4614D101A8FFF791FC2B6801991A68CE
:105EC0001960029901925A6859600399029201A8D7
:105ED0009A6899600392FFF7E6FE04B070BD204611
:105EE000FFF762FE0923237431462046FFF776FC54
:105EF000207C0928F1D0A0F1FF0358425841FFF758
:105F00002FFB38B50468237C082B0D46204603D1AF
:105F1000BDE83840FFF74DBCFFF746FE0823237469
:105F200029462046FFF736FC207C082805D0A0F142
:105F3000FF0358425841FFF713FB38BD38B50468DA
:105F4000237C072B0D46204603D1BDE8384003F0E3
:105F50001FBEFFF729FE072323742946204603F0BE
:105F6000F2FD207C072805D0A0F1FF0358425841DC
:105F7000FFF7F6FA38BD38B50468237C062B0D46CA
:105F800004D1D5E90023C4E9002338BD2046FFF73A
:105F90000BFE06232374F4E738B50468237C052B35
:105FA0000D4604D1D5E90023C4E9002338BD2046BD
:105FB000FFF7FAFD05232374F4E738B50468237C62
:105FC000042B0D4604D1D5E90023C4E9002338BDD4
:105FD0002046FFF7E9FD04232374F4E738B504688D
:105FE000237C032B0D4602D12B68236038BD20464D
:105FF000FFF7DAFD03232374F6E738B50468237C42
:10600000022B0D4602D12B68236038BD2046FFF7D6
:10601000CBFD02232374F6E738B50468237C012BFB
:106020000D4602D12B78237038BD2046FFF7BCFD0A
:1060300001232374F6E7F8B50468237C062B054694
:106040000E4608D1D4E90023D1E90001C4E90001DA
:10605000C6E90023F8BDFF2B0ED0D1E900674068E8
:106060002146FFF771F92C682046FFF79DFD0623B6
:10607000C4E900672374EDE72046FFF795FDD6E9F4
:106080000023C4E90023062323746868FFF78CFD0E
:10609000E0E7F8B50468237C052B05460E4608D1D9
:1060A000D4E90023D1E90001C4E90001C6E90023D5
:1060B000F8BDFF2B0ED0D1E9006740682146FFF7FD
:1060C00043F92C682046FFF76FFD0523C4E90067FC
:1060D0002374EDE72046FFF767FDD6E90023C4E906
:1060E0000023052323746868FFF75EFDE0E7F8B539
:1060F0000468237C042B05460E4608D1D4E900230E
:10610000D1E90001C4E90001C6E90023F8BDFF2B75
:106110000ED0D1E9006740682146FFF715F92C68D9
:106120002046FFF741FD0423C4E900672374EDE72F
:106130002046FFF739FDD6E90023C4E900230423F4
:1061400023746868FFF730FDE0E77FB50468237CBF
:10615000092B06460D460DD123680A6822600B60A4
:1061600063684A6862604B60A3688A68A2608B605B
:1061700004B070BDFF2B14D001A8FFF72FFBD6E9A8
:106180000010FFF7E1F834682046FFF70DFD01A984
:106190002046FFF723FB0923237401A8FFF783FDA3
:1061A000E6E72046FFF700FD29462046FFF716FBED
:1061B000092323747068FFF7F7FCD9E77FB50568FA
:1061C0002B7C082B04460E4610D1294601A8FFF768
:1061D000E1FA31462846FFF7ECFA01A93046FFF70D
:1061E000E8FA019801F0C4FA04B070BDFF2B11D099
:1061F00001A8FFF7CFFAD4E90010FFF7A5F824684B
:106200002046FFF7D1FC01A92046FFF7C3FA082377
:106210002374E6E72846FFF7C7FC31462846FFF718
:10622000B9FA08232B746068FFF7BEFCDCE77FB582
:1062300005682B7C072B04460E4610D1294668467C
:1062400003F081FC3146284603F0A2FC6946304643
:1062500003F09EFC684603F0EDFB04B070BDFF2B1D
:1062600011D0684603F06FFCD4E90010FFF76CF81A
:1062700024682046FFF798FC6946204603F063FC3B
:1062800007232374E6E72846FFF78EFC31462846AD
:1062900003F059FC07232B746068FFF785FCDCE7EB
:1062A00008B5037C0A2B04D0FF3B58425841FFF746
:1062B00057F908BD7FB50668337C0A2B05460C46A6
:1062C00010D13046FFF7ECFF2268036802602360BC
:1062D00043686268426063608368A2688260A3600A
:1062E00004B070BDFF2B14D06846FFF786FAD5E9DD
:1062F0000010FFF729F82C682046FFF755FC694687
:106300002046FFF77AFA0A2323746846FFF768FCF1
:10631000E6E73046FFF748FC21463046FFF76DFAC6
:106320000A2333746868FFF73FFCD9E77FB5046838
:10633000237C0A2B05460E4614D16846FFF75DFA0A
:106340002B6800991A681960019900925A6859607F
:106350000299019268469A6899600292FFF740FCA0
:1063600004B070BD2046FFF71FFC0A23237431469A
:106370002046FFF742FA2046FFF792FFF0E710B5FC
:10638000037C0A2B88B004461FD001466846FFF7FD
:106390007BFA237C0A2B1DD1694604A8FFF72DFA4E
:1063A0002046FFF77DFF049A03680260059A049374
:1063B00043684260069A05938368826004A8069346
:1063C000FFF70EFC6846FFF70BFC2046FFF768FF5F
:1063D00008B010BD2046FFF7E7FB0A232374694687
:1063E0002046FFF70AFA2046FFF75AFFEAE70000C7
:1063F00007B591F91030054A0133CDE9000152F893
:1064000023306846984703B05DF804FB5CDE0B0060
:1064100030B590F8783087B0044623B3016D6846F4
:1064200001F096FA009A236F2267684604F170051E
:106430000093FFF7A9F8214B03936946204B029381
:106440002846009402F09CF96846FFF725F8294693
:10645000684602F003F904F108006946FFF7C8FF37
:106460006846FFF7A1FB94F8793023B3216E6846A4
:1064700001F06EFA009A636F6267684604F1740572
:106480000093FFF781F80F4B039369460E4B02937D
:106490002846009402F074F96846FEF7FDFF29468D
:1064A000684602F0DBF804F138006946FFF7A0FF08
:1064B0006846FFF779FB07B030BD00BFCD640B0025
:1064C00091530B00FD640B007D530B0010B588B099
:1064D0000B680193044600230B6002A801A902F097
:1064E000BDF8206802A90830FFF782FF02A8FFF775
:1064F0005BFB01A8FFF748F808B010BD10B588B0E5
:106500000B680193044600230B6002A801A902F066
:10651000A5F8206802A93830FFF76AFF02A8FFF744
:1065200043FB01A8FFF730F808B010BD10B50023F9
:1065300004460374FFF75CFF204610BD10B500232E
:1065400003740B7C0A2B8AB004460CD104A8FFF715
:10655000EDFF204604A9FFF74BFF04A8FFF724FB3B
:1065600020460AB010BD6846FFF78EF9694604A8B8
:10657000FFF743F90A2304A920468DF82030FFF7DE
:1065800037FF04A8FFF710FB6846FFF729FBE7E792
:106590002DE9F0470023C0E900338360D1F804906F
:1065A00099450646884657DD4FF0280A0AFB09F050
:1065B00001F0D6F8074600284ED0D6E90045A042A3
:1065C0000AFB054519D9A84218D2283DA4F1280A8A
:1065D0002C1B0444AA4528D04CB12946204603F080
:1065E000CCFA05F1100104F11000FFF79FFF2846D7
:1065F000FFF7ECFA283D283CECE716D0BA46A54256
:1066000013D0BAF1000F09D02146504603F0B5FA75
:1066100004F110010AF11000FFF788FF2046FFF790
:10662000D5FA28340AF1280AE9E7306801F0A0F821
:106630003760C6F80890D8E90043282505FB0345D4
:10664000A54206D021463846FFF7FAF82834283705
:10665000F6E7D8F8043073603046BDE8F08710B52F
:10666000012304460B701146FFF792FF204610BD30
:1066700008B50068FFF78CFF08BD00002DE9F3475F
:10668000D0E9007988466FF078431146A9EB0702FC
:10669000B3EB221F06464FEA221402D11B4805F035
:1066A0003FF9012C224638BF0122A418A8EB070AA3
:1066B00028D24CB39C4228BF1C4620010191FEF712
:1066C000A2FB0199054615EB0A0001D0FFF753F82C
:1066D00041462A463846FEF7E8FE494600F11002D8
:1066E0004046FEF7E2FE804627B1B1683846C91B36
:1066F000FEF78FFB05EB0414C6E90058B46002B046
:10670000BDE8F0871C46D8E72546DCE7A9DC0B008E
:10671000F8B50E1E054613DD142707FB06F001F041
:106720001FF8044658B1D5E9001207FB0212FEF724
:106730000BFC286801F01CF82C60AE600120F8BD4D
:106740000024F6E770B58AB004460E4601A811464B
:10675000FEF728FC254601A904A8FEF723FC124BEE
:1067600045F8043B04A907A8FEF71CFC07AA31461C
:10677000284602F003FD07A8FEF7D3FB04A8FEF7A6
:10678000D0FB2346094A43F8242B01A82362FEF7D5
:10679000C8FB0023A362064B204603F10802243302
:1067A000226063620AB070BDE4DB0B0010E40B00F2
:1067B00050E10B008842F8B504460D46164614D940
:1067C000904213D2A2F11806751AA1F118072C44B1
:1067D000B74218D01CB131462046FFF7A7FE30461D
:1067E000FFF7E2F9183E183CF2E70CD0B5420AD0A8
:1067F0001CB129462046FFF799FE2846FFF7D4F939
:1068000018351834F2E7F8BDF8B50E1E054613DD4D
:10681000182707FB06F000F0A3FF044658B1D5E99E
:10682000001207FB0212FFF7C5FF286800F0A0FF67
:106830002C60AE600120F8BD0024F6E72DE9F041A0
:106840000023C0E9003383600D464968994204463D
:1068500015DDFFF7D9FF90B1D5E900634FF01808B7
:10686000276808FB0368B04507D01FB1314638469A
:10687000FEF7D2FF18361837F5E76B6863602046DD
:10688000BDE8F08108B50068FFF7D8FF08BD30B556
:1068900087B0456804466846FFF748FED4E901130F
:1068A000994210DA23686168182202FB053505F168
:1068B000180002FB01322946FFF77CFF75B96368B7
:1068C0000133636005E001312046FFF79DFF00289A
:1068D000E8D16846FFF768F907B030BD6946284639
:1068E000FFF724FEEBE72DE9F0410C469AB0154680
:1068F0000021182204F12007064605F02DF9002397
:1069000029463846CDE90133039304F00FF858B116
:106910002A46394610A804F020F801A810A9FFF76C
:10692000B6FF10A8FFF740F904F1080729463846DA
:1069300003F0FCFF58B12A46394610A804F00DF8C0
:1069400001A810A9FFF7A3FF10A8FFF72DF938340D
:106950002946204603F0EAFF58B12A46214610A8EE
:1069600003F0FBFF01A810A9FFF791FF10A8FFF7A4
:106970001BF9DDE90157182303FB0757AF424DD040
:10698000294604A8FEF748FF9DF820300A2B1FD1A6
:1069900004A8FFF7F4FCD0E900434FF0280808FBF7
:1069A0000348444535D0214610A8FEF749FF14A9F5
:1069B0000AA8FEF731FF0AAA10A9304604F0F4F83D
:1069C0000AA8FFF7F1F810A8FFF700F92834E8E764
:1069D000092B13D1002404A803F0B6FDA04218DD52
:1069E000224604A910A803F007FD10A9304603F0C1
:1069F00037FF10A8FFF7D8F80134ECE704A910A876
:106A0000FEF70AFF304610A9FFF7F2FC10A8FFF7C7
:106A1000CBF804A8FFF7C8F81835AFE701A8FFF7CF
:106A200042F930461AB0BDE8F081000010B58EB0D2
:106A3000022302928DF818300A4602AB014608A8DC
:106A4000FFF751FF00238DF804309DF83030FF2B05
:106A500001D100F0ADFE084A5BB208A952F823301C
:106A600001A89847044608A8FFF79EF802A8FFF778
:106A70009BF820460EB010BD40DF0B0030B58FB044
:106A800004460D4602A819460192FEF76CFD019AD4
:106A900002AB294608A8FFF726FF08A92046FEF703
:106AA000DDFE08A8FFF780F802A8FFF77DF8204672
:106AB0000FB030BD10B590B00C460190FFF7DEF876
:106AC000012301468DF82030019A8DF8104004AB67
:106AD0000AA8FFF708FF00238DF80C309DF8383026
:106AE000FF2B01D100F064FE084A5BB20AA952F8FC
:106AF000233003A8984704460AA8FFF755F804A8CE
:106B0000FFF752F8204610B010BD00BF6CDF0B003D
:106B1000F0B518229BB0054600210DEB020005F0F0
:106B20001BF8BFF35B8FAF6ABFF35B8F87B36E6AEF
:106B3000BE4228BF3E46701CFEF767F90446F8B116
:106B4000BB1B411EBB420AD0686AB3FBF0F200FBDC
:106B50001232286A825C01F8012F0133F2E7002328
:106B6000A355214612A8FEF7FEFC8B4912AA06A8DF
:106B700003F0ACFF12A8FFF717F82046FEF747F91D
:106B8000002385F82C30BFF35B8FAB62BFF35B8FC4
:106B9000E96951B112A8FEF7E6FC804912AA06A8DD
:106BA00003F094FF12A8FEF7FFFFAB6CDBB17C494A
:106BB000129312AA022306A88DF8583003F086FF1C
:106BC00012A8FEF7F1FFAB6C8C2B0CD1EB6C12937F
:106BD0007449032312AA06A88DF8583003F076FFF3
:106BE00012A8FEF7E1FF70480021FFF763FF0CAC2D
:106BF000F8B16E49204602F068FF4FF480712046DC
:106C000002F036FF00226A4B1146CDE900421046E1
:106C100000F098FC0C9912A804F045FA654912AAF4
:106C200006A803F053FF12A8FEF7BEFF204602F0AD
:106C300001FF61480021FFF73DFF002864D01026C6
:106C40003246002102A804F087FF002102A8ADF817
:106C5000086000F023FB0146002840F096801822CF
:106C6000204604F079FF0226BDF80E3053491293F6
:106C700012AA20468DF8586003F028FF12A8FEF7EC
:106C800093FFBDF810304E49129312AA20468DF89A
:106C9000586003F01BFF12A8FEF786FF059B4949C9
:106CA000129312AA032320468DF8583003F00EFFEA
:106CB00012A8FEF779FFBDF812304349129312AAC9
:106CC00020468DF8586003F001FF12A8FEF76CFF14
:106CD000214612A8FEF7A0FD3C4912AA06A803F01F
:106CE000F5FE12A8FEF760FFBDF810300193BDF865
:106CF0000E3037480093059ABDF812303549FEF73B
:106D0000FFFB2046FEF750FF33480021FFF7D2FE7D
:106D1000F0B11C263246002112A804F01DFF00210C
:106D200012A8ADF8486000F0FDFB14A9204602F05F
:106D3000CCFE0C9912A8FEF716FC284912AA06A848
:106D400003F0C4FE12A8FEF72FFF204602F072FEE9
:106D500006A92046FEF760FD214612A8FFF7EEFBCC
:106D6000002212A905F1500001F09AFC12A8FEF7CA
:106D70001BFF2046FEF718FF19491548FEF7C0FB18
:106D800006A8FEF711FF1BB0F0BD024615491048DA
:106D9000FEF7CEFBB8E700BFC3DC0B00CBDC0B007B
:106DA000D3DC0B00DFDC0B00EFDC0B00DAE30B00C5
:106DB000ED520B00FBDC0B0000DD0B000DDD0B00CA
:106DC00011DD0B0015DD0B0019DD0B001DDD0B00C7
:106DD00064E6032023DD0B0072DD0B0081DD0B0078
:106DE00088DD0B004FDD0B002DE9F041A4B00D460E
:106DF00014460746FEF742FF514B524A01461AA875
:106E0000FFF73CFE1A993846FEF712FC28701AA8C4
:106E100002F010FED4E90053142606FB0356AE42DE
:106E200004D0284602F006FE1435F8E7002363601C
:106E3000CDE918338DF86030FEF720FF14A9054620
:106E40001AA8FEF7E9FC1AAB3F4A29460EA8FFF73D
:106E50004AFD1AA8FEF7A8FE14A8FEF7A5FE9DF8A5
:106E600048300A2B65D10EA8FFF789FAD0E9005304
:106E70004FF0280808FB035845455AD029461AA860
:106E8000FEF7DEFC1AA901A802F077FE1EA914A8DD
:106E9000FEF7E4FC14993846FEF7CAFB064614A830
:106EA00002F0C8FD01A905A802F067FE05A909A81E
:106EB00002F063FE09A914A88DF83460666802F038
:106EC00042FE9DF834308DF86030D4E901139942C8
:106ED00010DA23686168142202FB063606F11400FA
:106EE00002FB01323146FEF72FF8D6B96368013351
:106EF000636005E001312046FFF70AFC0028E8D175
:106F000014A802F097FD09A802F094FD05A802F06C
:106F100091FD01A802F08EFD1AA8FEF757FE283554
:106F2000AAE714A9304602F00EFE9DF860303374D3
:106F3000DCE70EA8FEF738FE24B0BDE8F08100BF04
:106F4000DAE30B0095DC0B009EDC0B0030B5436DE3
:106F500089B004465BB101F023FE616D02F06DF86B
:106F6000606D10B103685B68984700236365002378
:106F700002AA0DF107012046CDE902330493FFF781
:106F800033FF02A905A8FEF70DF82C20FDF73BFF03
:106F9000054620B19DF8071005AAFFF7D3FB6565EC
:106FA00005A8FDF7BEFF01F0FBFD616D01F0FEFFDE
:106FB00002A8FDF7B6FF09B030BD000070B586B07D
:106FC0000446FEF725FBFEF759FE21490022FFF794
:106FD0002DFD0546FEF71CFBFEF750FE1D49002265
:106FE000FFF724FD0646FEF713FBFEF747FE1A4B9C
:106FF0001A4A014602A8FFF741FD029B18491948A9
:1070000000932A463346FEF793FA02A802F012FDD7
:107010002046FFF79BFFFEF7FBFAFEF72FFE0D4918
:107020000022FFF703FD6062206A18B1FDF7EFFE52
:1070300000232362606A10B1FDF7E7FE206200239F
:10704000BFF35B8FA362BFF35B8F06B070BD00BF61
:107050009BDD0B00A6DD0B00DAE30B0095DC0B00DB
:10706000B4DD0B0064E60320F0B590F8383085B04D
:107070000446002B40F09E80FEF700FE5A4B03931F
:107080005A4B009402930546D0E9200398427ED0E3
:1070900010B16946FEF76FFBD5F880301033C5F8A4
:1070A00080306846FEF7F8F90022114668460092E3
:1070B00000F01EF9009BA3648C2B4FF0000206D158
:1070C00069461046009200F013F9009BE364616882
:1070D000684600F03DFC009A236D226568460093E7
:1070E000FEF752FA2046FFF769FF6369002B77D05D
:1070F000A2690C2A74D903F10C012164A2F10C01DC
:10710000E36361643A4D1968A94255D199888A426E
:1071100052D19B790C2B4FD136493748FEF708FAEC
:10712000E36BBFF35B8F9B68BFF35B8F002B3ED09D
:10713000E36BBFF35B8F9F68BFF35B8F666CFEF7FB
:107140009DFD2E490022FFF771FC051E28DDBE4281
:1071500028BF3E46B54228BF3546681CFDF755FEA0
:10716000E061E8B16B42E818C3B1D4E90F26BFF380
:107170005B8F9268BFF35B8F616C1A44B2FBF1F7CF
:1071800001FB17220133B15CE2691154EBE70146C0
:107190006A4605F17C00FFF771FA82E7E269535510
:1071A000E36BBFF35B8F00229A60BFF35B8F012319
:1071B00084F8383005B0F0BD11490F48FEF7B8F932
:1071C000E36B1D60E36BA2699A80E36B0C229A71FA
:1071D000E26B0023D371E26BBFF35B8F9360E4E754
:1071E0000023C4E90533E2E705720B0069530B0085
:1071F000CC468EDEECDD0B0064E603209BDD0B004D
:1072000002DE0B000068FFF7D9BE0000014B024A06
:107210001A60704764E6032020DE0B0010B50446B8
:107220001C4802F0D0FA94F82F3010B313B90123A0
:1072300084F82F30184B00225868114600F038FAB5
:1072400094F82D30D0B113B9012384F82D3000F01B
:10725000A7F994F83030B0B1DBB9012384F83030AD
:10726000636B01336363236820469B68BDE810406D
:107270001847002BDED084F82F00DBE7002BE6D088
:1072800084F82D00E3E723B1012384F8300084F86B
:107290002C3010BDF8E6032074E6032008B5034B3C
:1072A0001B68D3F89430019308BD000074020300FA
:1072B00008B5024B1B685B6C019308BD48020300D4
:1072C00008B5024B1B689B6C019308BD4802030084
:1072D00008B5024B1B68DB6C019308BD4802030034
:1072E00008B5024B1B685B6D019308BD48020300A3
:1072F00008B5024B1B68DB6E019308BD3402030026
:1073000008B5024B1B685B68019308BD18020300B7
:1073100008B5024B1B68DB68019308BD1802030027
:1073200008B5024B1B685B69019308BD1802030096
:1073300008B5024B1B68DB6D019308BD1802030002
:1073400008B5024B1B685B69019308BD640203002A
:1073500008B5024B1B689B68019308BD68020300D7
:1073600008B5024B1B68DB68019308BD6802030087
:1073700008B5024B1B689B68019308BD3C020300E3
:1073800008B5024B1B68DB68019308BD3C02030093
:1073900008B5024B1B681B69019308BD3C02030042
:1073A00008B5024B1B685B69019308BD3C020300F2
:1073B00008B5024B1B689B69019308BD3C020300A2
:1073C00008B5024B1B68DB69019308BD3C02030052
:1073D00008B5024B1B689B6A019308BD3C02030081
:1073E00008B5024B1B68DB6A019308BD3C02030031
:1073F00008B5024B1B681B6C019308BD3C020300DF
:1074000008B5024B1B681B68019308BD4C020300C2
:1074100008B5024B1B685B68019308BD4C02030072
:1074200008B5024B1B689B68019308BD4C02030022
:1074300008B5024B1B681B69019308BD4C02030091
:1074400008B5024B1B685B69019308BD4C02030041
:1074500008B5024B1B689B69019308BD4C020300F1
:1074600008B5024B1B68DB69019308BD4C020300A1
:1074700008B5024B1B681B6A019308BD4C02030050
:1074800008B5024B1B689B6A019308BD4C020300C0
:1074900008B5024B1B685B6B019308BD60020300DB
:1074A00008B5024B1B689B6B019308BD600203008B
:1074B00008B5024B1B681B6D019308BD60020300F9
:1074C00008B5024B1B685B6D019308BD60020300A9
:1074D00008B5024B1B68DB6E019308BD6002030018
:1074E00008B5024B1B681B6F019308BD60020300C7
:1074F00008B5034B1B68D3F8AC30019308BD0000FE
:107500006002030008B5024B1B685B68019308BD6D
:107510002002030008B5024B1B68DB6A019308BD1B
:107520002002030008B5024B1B681B6B019308BDCA
:107530002002030008B5024B1B685B6D019308BD78
:107540002002030008B5034B1B68D3F88430019375
:1075500008BD00002002030008B5034B1B68D3F8E8
:107560008830019308BD00002002030008B5034BDA
:107570001B68D3F89430019308BD0000200203007B
:1075800008B5024B1B689B68019308BD44020300C9
:1075900008B5024B1B68DB68019308BD4402030079
:1075A00008B5024B1B685B69019308BD44020300E8
:1075B00008B5024B1B68DB6B019308BD4402030056
:1075C00008B5024B1B681B68019308BD94020300B9
:1075D00008B5024B1B685B68019308BD9402030069
:1075E00008B5024B1B689B68019308BD9402030019
:1075F00008B5024B1B68DB68019308BD94020300C9
:1076000008B5024B1B681B69019308BD9402030077
:1076100008B5024B1B685B69019308BD9402030027
:1076200008B5024B1B689B69019308BD94020300D7
:1076300008B5024B1B68DB69019308BD9402030087
:1076400008B5024B1B685B6A019308BD94020300F6
:1076500008B5024B1B689B6A019308BD94020300A6
:1076600008B5024B1B68DB6A019308BD9402030056
:1076700008B5024B1B681B6B019308BD9402030005
:1076800008B5024B1B685B68019308BD400203000C
:1076900008B5024B1B689B68019308BD40020300BC
:1076A00008B5024B1B68DB68019308BD400203006C
:1076B00008B5024B1B681B69019308BD400203001B
:1076C00008B5024B1B685B69019308BD40020300CB
:1076D00008B5024B1B689B69019308BD400203007B
:1076E00008B5024B1B68DB69019308BD400203002B
:1076F00008B5024B1B681B6A019308BD40020300DA
:1077000008B5024B1B681B6B019308BD40020300C8
:1077100008B5024B1B685B6B019308BD4002030078
:1077200008B5024B1B681B6C019308BD40020300A7
:1077300008B5024B1B685B6C019308BD4002030057
:1077400008B5024B1B685B6D019308BD4002030046
:1077500008B5024B1B689B6D019308BD40020300F6
:1077600008B5024B1B681B68019308BD1C0203008F
:1077700008B5024B1B685B68019308BD1C0203003F
:1077800008B5024B1B689B68019308BD1C020300EF
:1077900008B5024B1B68DB69019308BD1C0203009E
:1077A00008B5024B1B685B6A019308BD1C0203000D
:1077B00008B5024B1B68DB6A019308BD1C0203007D
:1077C00008B5024B1B681B6B019308BD1C0203002C
:1077D00008B5024B1B68DB6B019308BD1C0203005C
:1077E00008B5024B1B681B6C019308BD1C0203000B
:1077F00008B5024B1B685B6C019308BD1C020300BB
:1078000010B504460068FFF7B3FF204610BD38B539
:10781000046805467CB16368013B63605BB923681B
:1078200020469B689847A368013BA3601BB9236867
:107830002046DB689847284638BD38B50D1E0446FB
:10784000006803DDFFF79CFF18B938BDFFF790FF14
:1078500000202060A5600120F7E710B54368013BD8
:107860000446436063B903689B689847A368013B7B
:10787000A3602BB923682046DB68BDE81040184799
:1078800010BD70B5D0E90053044605EB0316AE42B7
:1078900004D0284602F0CEF81035F8E72068FFF74C
:1078A00067FF204670BD0000024800230360FFF719
:1078B000FFBC00BF70E60320002240681146FFF7BE
:1078C000F7BE002240681146FFF712BF0022406851
:1078D0001146FFF71DBF40680022FFF711BF406847
:1078E000002281F00101FFF7FBBE002340681A4629
:1078F0001946FFF7EDBE002340681A461946FFF708
:10790000DFBE002240681146FFF7C2BE4068002279
:107910000221FFF7C5BE002340681A46FFF7B0BE3C
:10792000084B10B5282422461846002104F014F90B
:10793000054B04804FF0FF32426004225A60034A34
:107940001A6010BD7CE6032074E603208CE10B0076
:1079500030B500258DB004462A4603A80395FFF7ED
:107960002FFE00280FDA2023CDE90435074B0190C4
:10797000009307492B4604AA3220FFF799FD2560A2
:1079800020460DB030BD039B2360F9E7E8E10B0012
:10799000C8E10B00002240681146FFF7A9BE002293
:1079A00040681146FFF7B4BE40680022FFF7A8BE4A
:1079B0004068002281F00101FFF792BE0023406879
:1079C0001A461946FFF784BE002340681A46194636
:1079D000FFF776BE002240681146FFF769BE00221D
:1079E00040681146FFF754BE406800220221FFF7AD
:1079F00057BE002340681A46FFF742BE024B0322DF
:107A00005A60024A1A607047A4E6032014E20B0091
:107A1000054BFF210022C3E9001201206421C3E9C4
:107A200002011A61704700BFACE60320704710B531
:107A300018210446FDF7EDF9204610BDF0B5037D91
:107A4000062B8DB00E4600F104074FF0000412D053
:107A500000F1080515F8011D0A22304601F09BFFD0
:107A6000AF42044419D0002CF4D02E21304601F04E
:107A70008FFF0444EEE72F236A4639460A208DF82B
:107A80000040FFF75DFC6846FDF762F93368024687
:107A9000DB68694630469847044620460DB0F0BD85
:107AA00010B5054B0446112240F8043B002104F0B8
:107AB00053F8204610BD00BF58E20B000346074AAA
:107AC00010B543F8042B01F1100251F8044B43F8B0
:107AD000044B9142F9D10A781A7010BD58E20B009C
:107AE00010B59DF8084044EA032343EA024242EA03
:107AF000016104234160037510BD000007B5064B0A
:107B00000360CB7800938B784A780978FFF7E8FF19
:107B100003B05DF804FB00BF58E20B0000F1100356
:107B2000012213F8101C0129184608D153F8041C2F
:107B300002EB4102013A03F11003F2D1704702292E
:107B400004BF53F8041C5218F4E770470020704734
:107B500010B510210446FDF75CF9204610BD08B5AC
:107B6000FFF7F6FF08BD0EB4F0B588B000AF07F11F
:107B70003405102155F8042B7A6004462B467818FA
:107B8000FD60FFF70DFE0F287A681AD900F108038F
:107B900023F007036E46ADEB030D411C2B466846F0
:107BA000FD60FFF7FDFD021E04DD236869469B684A
:107BB00020469847B5462037BD46BDE8F04003B0A3
:107BC00070470028F7D0236802469B6807F1100130
:107BD00020469847EFE710B5C4687CB1206808B12B
:107BE000FDF715F9237A1BB1606808B1FDF70FF9AD
:107BF00020460C21BDE81040FDF70BB910BD38B58B
:107C00000B6803604D6843689D42044608D015B177
:107C10006B6801336B60606808B1FFF71EFE65603A
:107C200038BD07B503688DF807109B6801220DF178
:107C30000701984703B05DF804FB0B46114600228C
:107C400010B5C0E90022044683600BB9204610BD80
:107C5000FFF7D5FFFAE78368EBB11A78032A1AD841
:107C6000DFE802F00417021B0520704702685B681A
:107C70005268D05C2D2812D0A0F13003092B0ED908
:107C800074280ED066280CD0A0F16E0358425841DB
:107C9000704706207047002070470420704703207B
:107CA000704702207047000010B50446FFF7D3FF6D
:107CB00003280DD004281ED002282BD12268A368E7
:107CC00052685B68D05CA0F174035842584110BD03
:107CD000A36822685B6854681C440F492046FDF77E
:107CE0002DF80028F3D00D492046FDF727F800387D
:107CF00018BF0120EBE72268A36852685B68D05C7C
:107D0000D4180028E3D006492046FDF717F80028CC
:107D1000E3D1DCE70020DAE766E20B0064E20B0067
:107D200011DC0B0010B50446FFF795FF02280ED0BA
:107D3000C31EDBB2012B14D82268A36850685B68AD
:107D4000BDE810400A220021184404F049BE226810
:107D5000A36852685B68D05CA0F174035842584134
:107D600010BD0020FCE700002DE9F04786B0074673
:107D7000884602A8002100249946102392460293C7
:107D8000FFF78EFBCDE9004423464246394602A860
:107D9000FFF7AEFB061E24DDB6F1006F1249B4BF3B
:107DA00030014FF0FF3003F0B9FD054698B10021D6
:107DB00002A80024FFF774FBCDE900642B4642467D
:107DC000394602A8FFF794FBA04207DDCAF800502D
:107DD0000120C9F8006006B0BDE8F0872846FDF72D
:107DE00016F82046F7E700BFB4E50B002DE9F84F81
:107DF000436886680B4488460E4407461C4619466D
:107E00004FF00D094FF0090AB44263D0254615F82A
:107E1000012B5C2A2BD1A14207D0A4EB010B184601
:107E20005A4603F07FFE03465B44B54239D0627880
:107E3000752A2AD1A21CB21A032A32DDA01D04F130
:107E4000050E4FF0000CAE4553D015F8011FA1F1FF
:107E500030025FFA82FBBBF1090F05D9A1F1610283
:107E6000052A07D8A1F1570242EA0C1CEBE7284685
:107E70000446C9E7A1F14102052A12D8A1F137024F
:107E8000F2E703F801CB0146F2E76E2A1CD00ED8C8
:107E9000622A13D007D82F2A11D05C2A0FD0222AA9
:107EA0000DD0002023E0662AFBD10C2207E0722AC5
:107EB0000DD0742AF5D183F800A001E008221A70D1
:107EC000A11C01330846D3E74FF00A02F7E783F815
:107ED0000090F5E7A14206D0641A1846224603F046
:107EE00021FE03462344A3EB0803BB600120BDE849
:107EF000F88FBCF17F0FC4D92146B9E7F8B5044625
:107F0000154600EB01160027B44210D02378032B4E
:107F100008D129462046FFF769FF48B1A368EF540E
:107F20001034F1E7002BFBD1A268AB54F8E7012035
:107F3000F8BD000038B50023C0E9003304460E4800
:107F4000C4E90203A9B10B78032B06D08BB91368DF
:107F500058684B68C35C6E2B07D013684D6858682F
:107F60008B6828445B1BA060E36011462046FFF746
:107F700046FE204638BD00BFDAE30B0038B50025C9
:107F80000B46C0E90055C0E90255C0E90455044656
:107F900011464BB11A78012A06D103F11002DB68B1
:107FA00082604361FFF72BFE204638BD10B5436960
:107FB000044663B18068E060013B1030A06020613E
:107FC000636113B1FFF7AAFDA060012000E018462D
:107FD00010BD38B500250B46C0E90055C0E9025573
:107FE0000446114605614BB11A78022A06D103F105
:107FF0001002DB6882600361FFF701FE204638BD96
:1080000010B5036904464BB18068E060013B236111
:1080100013B1FFF783FDA060012000E0184610BDFA
:1080200010B57D210446FFF7FCFD01232371204696
:1080300010BD08B50379012B02D0022B04D008BD76
:108040002C21FFF7EEFDFAE73A21FAE710B50446D6
:10805000FFF7EFFF20467B21FFF7E3FD00232371AD
:10806000204610BD13B504460191FFF7E2FF2368D7
:10807000019ADB6803492046984701232046237173
:1080800002B010BDE5E10B0013B504460191FFF706
:10809000D0FF2368019ADB680349204698470123F3
:1080A0002046237102B010BD4CDD0B002DE9F047D6
:1080B0000D46222190460446FFF7B3FDDFF8A49059
:1080C000A8442F464745BA463DD017F8016B222EEB
:1080D00006D05C2E04D0304603F006FD0028F1D116
:1080E0002368AAEB05029B682946204698475C2135
:1080F0002046FFF796FD0D2E0AD8072E1CD9A6F1B3
:108100000803052B18D8DFE803F00D0F111713151E
:10811000222E01D05C2E0FD131462046FFF781FD83
:108120003D46CFE76221F8E77421F6E76E21F4E7D8
:108130006621F2E77221F0E723683246DB684946A0
:1081400020469847ECE7BD4205D023687A1B9B6820
:1081500029462046984722212046FFF762FDBDE8C8
:10816000F08700BF68E20B0013B50446CDE900219B
:10817000FFF75FFF2046DDE90021FFF797FF0223AD
:108180002046237102B010BD13B50446CDE900218D
:10819000FFF74FFF2046DDE90021FFF787FF0123AE
:1081A0002046237102B010BD38B500230446036099
:1081B00010200D46FCF727FE28B10123C0E901334A
:1081C000024B0360C5602060204638BD78E20B009A
:1081D000F0B5044687B00E460C202749154603F03B
:1081E0009BFB014618B10023C0E90033037203A8CA
:1081F0000291FFF7D9FF029A42B9C4E90022A260B6
:1082000003A8FFF704FB204607B0F0BD002301934D
:10821000294601AB3046FFF7A7FD18B9C4E90000B5
:10822000A060EDE71449681C03F078FB029F7860BA
:1082300018B9C4E90000A060E2E72A46314603F01D
:1082400063FC01237A68019938683B72FFF756FE98
:108250000028E3D0029B19680493039B059313B194
:108260005A6801325A6004AA2046FFF7E6FC05A8C6
:10827000FFF7CDFAC4E700BFB4E50B004FF0FF30C5
:108280007047704730B5054640698BB0F8B16B68F0
:10829000002B16DB0023FFF7E3F9041E13DA14F1B9
:1082A000C90F01D1AB695BB120220023CDE90223C4
:1082B000084A00920849019402AA3220FFF7F8F810
:1082C0006C60002003E0AB6923442046AB610BB037
:1082D00030BD00BF8CE20B00C8E10B0007B50122E6
:1082E0000DF10701FFF7CEFF01280CBF9DF8070035
:1082F0004FF0FF3003B05DF804FB000070B5054699
:1083000040698AB0D8B16B68002B12DB0023FFF7FD
:10831000AFF9041E0FDA20230026CDE90236094BFF
:10832000009309490194334602AA3220FFF7C0F8AE
:108330006C60002003E0EB6923442046EB610AB047
:1083400070BD00BFA5E20B00C8E10B0007B501221C
:108350008DF807100DF10701FFF7D0FF03B05DF8AE
:1083600004FB000030B5054640698BB0C0B1002267
:10837000FFF76EF9041E0BDA20220023CDE9022359
:10838000084A00920849019402AA3220FFF790F8A7
:108390000023C5E905336B60EB6120460BB030BDAF
:1083A0000446FAE7BFE20B00C8E10B0010B5044B2E
:1083B000036004460121FFF7D5FF204610BD00BF32
:1083C0005CE30B0010B50446FFF7F0FF20462021C8
:1083D000FCF71FFD204610BD10B58CB0044603917C
:1083E0000121FFF7BFFF2169039A002304F1140064
:1083F000FFF726F9041E4FF000030DDA2022CDE925
:108400000423064A00920649019404AA3220FFF789
:108410004FF820460CB010BD1C46FAE7D9E20B001D
:10842000C8E10B0010B500210446FFF7D1F806485B
:1084300000222146FFF77EF828B120460021BDE842
:108440001040FFF7CDB810BD31850B0038B50021C5
:108450000546FFF7EDF80446D0B901462846FFF778
:10846000C7F821462846FFF7E3F8044660B90949F2
:10847000102003F051FA044630B100238360014616
:10848000054A2846FFF7CCF800212846FFF7B8F840
:10849000204638BDB4E50B0019850B0070B54FF4CC
:1084A0007A7392B00025CDE90353CDE90605174B49
:1084B00002930E4602A80221CDE90855FFF78CFF72
:1084C000041E15DB02A9304602F01DF9041E15DA60
:1084D000039B0F49AB42B8BF1C462023CDE90A35A8
:1084E0000C4B009301942B460AAA3220FEF7E0FFC2
:1084F00002A8FFF75BFF204612B070BD294602A814
:10850000FFF730FF00EAE074F2E700BF5CE30B0026
:10851000C8E10B00F2E20B0010B5044638B1FCF7DD
:10852000BBFF20461021BDE81040FCF772BC10BD17
:1085300037B50546FFF78AFF044690B1836883B1DB
:1085400001953DB100212846FFF742F8A3680BB919
:1085500003F0E9F92046E36801A9984701A8FDF76F
:1085600013F80021284603B0BDE83040FFF738B8C3
:1085700070B54FF47A739EB00025CDE90F53CDE965
:108580001205314B0E930E460EA80121CDE914556C
:10859000FFF722FF041E2EDB1822294602A803F053
:1085A000DBFA0EA902A803F0AFF8041E29DA0F9B2C
:1085B000AB42B8BF1C4614F1C90F0DD1149D5DB973
:1085C00016A8FDF720FB304616A9FDF711FF16A8E7
:1085D000FDF7EAFA2C460BE020220023CDE9162312
:1085E0001A4A00921A49019416AA3220FEF760FF37
:1085F00002A8FDF7D9FA0EA8FFF7D8FE20461EB054
:1086000070BD9DF818300A2B0CD02023CDE916350B
:10861000104B00930E49104C2B4616AA3220FEF741
:1086200047FFE5E702A908A8FDF780FF08A916A8FB
:10863000FDF784FF16A93046FDF7DAFE16A8FDF710
:10864000B3FA08A8C4E700BF5CE30B0013E30B0018
:10865000C8E10B0034E30B00E8FEFFFF30B50B6808
:1086600087B004460D4623B9FDF7CDFA204607B082
:1086700030BD6846FDF7C7FA28686946FFF778FFFE
:108680000028204605DAFDF7BEFA6846FDF78CFAA9
:10869000ECE7FDF7B8FA69462046FDF7A9FEF4E7D6
:1086A000F0B50546006893B00E46002848D032B9B0
:1086B000FFF7F4FE00EAE074204613B0F0BD684610
:1086C000FDF7A1FA28686946FFF752FF041E28DB70
:1086D000307C0A2805D0A0F1FF0358425841FCF72E
:1086E0003FFFD6E90047282303FB0747A7421CD0DA
:1086F00004F1100106A8FDF78FF806A90CA8FDF7F4
:1087000015FF21460CAA684602F04EFA06460CA850
:10871000FDF74AFA06A8FDF747FA2834002EE5D1FE
:10872000094C6846FDF740FAC6E728686946FFF736
:10873000B5FE041EF5DB6846FDF736FA0024BBE7FC
:108740006FF0D104B8E700BFFCFEFFFF13B50B4686
:108750000246D0E900016C4684E8030093E8030078
:1087600082E8030094E8030083E8030098689168B6
:1087700090609960D168D868D060D96002B010BDAF
:10878000F0B5034689B01D680846002D46D0002785
:1087900069460297FFF7DAFF39462846FEF728FFB9
:1087A0002846FFF753FE0646002833D08468069714
:1087B00004A96846FFF7CAFF314604A8FFF7C6FFC1
:1087C00004A8FCF769FEB668BEB12CBB0123049374
:1087D00004A9144B059328462246FEF719FF2146AB
:1087E0002846FEF7F5FE28460021FEF709FF6846F9
:1087F000FCF752FE204609B0F0BD002CF3D0324603
:1088000031462846FEF704FF31462846FEF7E8FECB
:108810003446E8E7044CE6E73C46E4E76FF0D10471
:10882000E8E700BF25840B00FCFEFFFF8842F8B597
:1088300004460D46164614D9904213D2A2F11006F2
:10884000751AA1F110072C44B74218D01CB131465B
:10885000204601F078F9304601F0ECF8103E103C6B
:10886000F2E70CD0B5420AD01CB12946204601F0EF
:108870006AF9284601F0DEF810351034F2E7F8BD49
:1088800070B50E1E054611DD3001FEF769FF044686
:1088900058B1D5E9001201EB0212FFF7C7FF2868B3
:1088A000FEF766FF2C60AE60012070BD0024F6E785
:1088B00010B5044680680368DB689847E36818448D
:1088C000E06010BD7047084611B10B685B6818473F
:1088D0007047704770477047704738B504460D467B
:1088E00000682E2103F07BF92368C31A2B6023B1A3
:1088F000037803B1013023682060184638BD10B5F5
:1089000010210446FCF785FA204610BD10B504215D
:108910000446FCF77EFA204610BD10B5042104463B
:10892000FCF777FA204610BDFEF7D2BC08B5FCF77D
:1089300005FAB0FA80F0400908BD704710B50C4642
:1089400001F0A6FA844210D002F0C2FF844205D1A1
:1089500002F0BEFFBDE8104001F033BA2CB123682D
:1089600020465B68BDE81040184710BD0B680360E7
:108970004B68436013B15A6801325A60704713B5AF
:10898000044608460191FCF7E3F9019902462046A6
:1089900002B0BDE81040FFF7F7BB13B50446084628
:1089A0000191FCF7D5F923680199DB68024620465E
:1089B00002B0BDE81040184707B503688DF80710EE
:1089C000DB6801220DF10701984703B05DF804FB55
:1089D0002DE9F74FD0E900844FF0140A00930AFB09
:1089E00004F4184BA41017465C434546002C21DDC7
:1089F00066100AFB06F005EB00093A46B9F804B028
:108A0000285801915F4528BF5A4603F0FAF800281C
:108A100001994FF001030BD15F4503D1009A137008
:108A20003446E3E7FCD9A61B09F11405013EF7E73C
:108A3000F9DBF5E7A5EB08050248AD10684303B084
:108A4000BDE8F08FCDCCCCCC7FB50369057E01911C
:108A500003B3F9B1002600F10C04039603A901A8A1
:108A6000FFF73BFF0146A8B10DF10B03039A8DF808
:108A70000B602046FFF7ACFF9DF80B3053B1236825
:108A8000142404FB0034083434F9023C002BA8BF42
:108A9000DDB2E3E7284604B070BD0EB4F0B58CB08B
:108AA00000AF07F14405044655F8042B7A602B46C5
:108AB000202107F11000FD60FEF772FE1F287A6882
:108AC0001AD900F1080323F007036E46ADEB030D3E
:108AD000411C2B466846FD60FEF762FE021E04DD67
:108AE00023686946DB6820469847B5463037BD465F
:108AF000BDE8F04003B070470028F7D02368024675
:108B0000DB6807F1100120469847EFE710B5094CE4
:108B10002378BFF35B8FDB0709D42046FCF788F985
:108B200028B12046FCF789F9034802F0D7FF034833
:108B300010BD00BFC4E60320D3880B0050E403201F
:108B400010B5094C2378BFF35B8FDB0709D42046AF
:108B5000FCF76EF928B12046FCF76FF9034802F0E4
:108B6000BDFF034810BD00BFC8E603203B890B00D2
:108B700054E4032038B500250446C0E90055C0E997
:108B800004558560856140F8245FFEF791FBFFF78F
:108B9000BDFFE061FFF7D4FF25732062204638BD9A
:108BA00010B50A4C2378BFF35B8FDB070CD420464B
:108BB000FCF73EF940B10648FFF7DCFF2046FCF722
:108BC0003CF9044802F08AFF014810BDC0E60320CA
:108BD000D0E6032019910B00024A03490348002301
:108BE000FEF77EBCFD8E0B00898E0B00098E0B00FC
:108BF00000231A4619461846FEF772BC37B58D6831
:108C000004466846FFF7B2FE6A4629462046FFF74B
:108C1000B5F901A8FEF7FBFD204603B030BD37B51E
:108C2000CD6804466846FFF7A1FE6A4629462046FD
:108C3000FFF780F901A8FEF7EAFD204603B030BD3A
:108C400037B50D6904466846FFF790FE6A46294627
:108C50002046FEF7F2FF01A8FEF7D9FD204603B03B
:108C600030BD000070B58AB00D46014604A8FFF77C
:108C7000C5FF144E04A8FFF799F9E8B104A96846A6
:108C8000FFF7CDFF02983146FFF750FE044610B1C2
:108C90002C1E18BF012401A8FEF7B9FD002CE9D055
:108CA00004A96846FFF7CCFF6846FFF73BF8286049
:108CB00001A8FEF7ACFDDDE705A8FEF7A8FD0AB0A8
:108CC00070BD00BF80E30B0037B50C46204613494A
:108CD0001546FCF733F850B901F0DAF84FF41651A5
:108CE00001F0C4F803B0BDE8304001F0D1B80C4940
:108CF0002046FCF723F878B94FF4165301A928460B
:108D00000193FFF7AFFF02F0E3FD019901F056F880
:108D100002F0DEFD03B030BD0020FBE785E30B0071
:108D20008CE30B0070B5D0E900531426044606FB13
:108D30000356AE4205D005F10800FFF7F3FF1435E6
:108D4000F7E72068FEF714FD204670BD10B5044615
:108D50000C30FFF7E7FF2046FEF793FD204610BDDD
:108D600010B5044B044640F8043BFFF7EFFF2046E4
:108D700010BD00BFE4DB0B0010B50446FFF7F0FFA9
:108D800020462421FCF745F8204610BD10B5034BC2
:108D900003600446FFF7E4FF204610BD28E40B0003
:108DA00010B50446FFF7F2FF20462421FCF731F806
:108DB000204610BD0A6802604A6842600022C0E98D
:108DC000022210B502618C688460CC68C4600C69B2
:108DD0008A60CA6004610A6110BD0022C0E90022F5
:108DE00010B582600C6804604C6844608C680A604E
:108DF0004A6084608A6010BD10B503680446186834
:108E0000FEF76EFA204610BD2DE9F04F87B0804680
:108E100003931C4B5B68C3F30803894616466BB982
:108E2000FFF7BEFE044600F12403406A0593FFF7F6
:108E30007BFD237B2BB105A8FFF7DEFF07B0BDE864
:108E4000F08F01232373D4E900535FFA89F905EB0E
:108E5000830AAA4512D055F8047B3146381DFFF726
:108E6000F3FD8145F5D33B68039A0092D3F808B02F
:108E70004A46334641463846D847EAE7002323733B
:108E8000D9E700BF00ED00E02DE9F74F9B461A4BF4
:108E90005B68C3F308038046894616466BB9FFF743
:108EA0007FFE044600F12403406A0193FFF73CFD76
:108EB000237B2BB101A8FFF79FFF03B0BDE8F08F24
:108EC00001232373D4E90053F6B205EB830A554519
:108ED0000ED055F8047B5946381DFFF7B5FD864284
:108EE000F5D33B684A46DB68414638469847EEE78B
:108EF00000232373DEE700BF00ED00E02DE9F3411E
:108F0000164B5B68C3F3080305460F461BBBFFF710
:108F100047FE00F124030446406A0193FFF704FD75
:108F2000D4E90063462406EB8308B04509D101A8C3
:108F3000FFF762FFA542B4BF0020012002B0BDE8E8
:108F4000F08156F8040B39460430FFF77DFD84426A
:108F5000A8BF0446E9E70020F0E700BF00ED00E00D
:108F6000F8B5D0E901539D4204460E460DDB6F1C57
:108F7000002F006804DDB900FEF702FC18B9F8BD47
:108F8000FEF7F6FB00202060A7602768626807EB09
:108F900085019200A2EB8502081D02F0C3FD47F88F
:108FA00025606368013363600120E8E737B500F1AD
:108FB00024030446406A01930D46FFF7B5FCD4E94B
:108FC000003203EB8202934219460BD00968A94292
:108FD00003F10403F7D101A8FFF70EFF002528468F
:108FE00003B030BD29462046FFF7BAFF05460028EA
:108FF000F1D06368012B01D1FFF7EEFD01A8FFF767
:10900000FBFEECE770B50446D0E900020B4600EB2E
:10901000820282420FD001461D6851F8046BAE42B5
:1090200007D1521A02F07EFD6368013B63600120A4
:1090300070BD0846EDE70020FAE71FB500F12403F4
:109040000446406A01910393FFF76EFC01A9204694
:10905000FFF7D8FF18B163680BB9FFF7C9FD03A884
:10906000FFF7CAFE04B010BD70B5D0E9045618234E
:10907000044603FB0656AE4215D005F1100120460A
:10908000FFF7C0FF63680BB9FFF7B2FDE06929691C
:109090000368DB689847696919B1206A0368DB686F
:1090A00098471835E7E7D4E90453182606FB03561A
:1090B000AE4204D0284600F0BDFC1835F8E7002386
:1090C000636170BD73B50446FFF792FD04F124039C
:1090D000606A0193FFF728FC2046FFF7C5FF01A84F
:1090E000FFF78AFE606A08B1FEF7EAF8D4E9045394
:1090F000182606FB0356AE4204D0284600F09AFC20
:109100001835F8E72069FEF733FB2068FEF730FBDF
:10911000204602B070BD00000148FFF7D3BF00BF7A
:10912000D0E603208842F8B504460D46164615D908
:10913000904214D2A2F11406751AA1F114072C441E
:10914000B7421AD01CB131462046FFF733FE06F174
:109150000800FFF7E7FD143E143CF1E70DD0B542DF
:109160000BD01CB129462046FFF724FE05F108006C
:10917000FFF7D8FD14351434F1E7F8BD2DE9F04FB1
:10918000904695B000230391D8F804100A93462224
:109190009942C0E90033C0E90233C0E90433CDE9A4
:1091A00008330446027623DCD8E90057142303FB76
:1091B0000757AF423BD029460BA800F0C4FC0BA9CF
:1091C0000FA8099E00F0BFFCDDE9091399421BDAE4
:1091D000089B099A03EB061603EB0212314606F1CF
:1091E0001000FFF723FBEEB9099B0133099311E04F
:1091F00008A8FFF745FB0028D6D108A8FEF741FBD9
:10920000204615B0BDE8F08F013108A8FFF738FB04
:109210000028DDD10FA800F00DFC0BA800F00AFC1F
:109220001435C6E70FA9304600F08DFCDCE70026B8
:10923000CDE90B660D964FF01409DDE908239E4237
:109240007CDA3301D35806930BB90136F5E70023D6
:10925000079309FB06F302930BAD07A906A8FFF7D6
:109260003CFB82460028F0D04FF000038DF8173009
:109270000146079A0DF117032846FFF7A9FB9DF851
:1092800017700190002F4AD1BDF81C30ADF8403066
:10929000CDE911774FF6FF73CDF83CA0ADF8423021
:1092A0001397D5E90132934217DB03F1010ABAF1B2
:1092B000000F30DD09FB0AF0FEF752FA834660B377
:1092C000D5E9001209FB0212FFF72CFF2868FEF710
:1092D0004FFAC5F800B0C5F808A02B68019A09FB41
:1092E000023A6A68514609FB02320AF11400FFF79C
:1092F00019FFBAF1000F03D00FA95046FFF75AFD2E
:109300006B6801336B6011A8FFF70CFD3FB10BA830
:10931000FFF708FD71E7BB46D8E70127F3E7019B9C
:109320002D6809FB0355069B1B782BB9D8F8003034
:10933000029A13441B7CEB8008358EE7216822607B
:1093400062686360A36809920A9A0A93E368A2605C
:109350000B9A0B932369E2600C9A0C936369226168
:109360000D9A0D93039B089162612376CFE700006D
:10937000F0B5044687B00D4626461946684617469E
:10938000FBF710FE0B4B46F8043B694603A8FBF7BE
:1093900009FE03AA39463046FFF7F0FE03A8FBF7A3
:1093A000C0FD6846FBF7BDFD034B236020462562E8
:1093B00007B0F0BDE4DB0B0010E40B00F0B50F4686
:1093C00085B01D490A9C384616461D46FBF7B6FC7B
:1093D000C0B9A4B1294601A8FFF7FFFC1749242012
:1093E00002F09AFA054630B101AB32462146FFF74A
:1093F000BFFF134B2B6001A8FBF793FD2C462046C3
:1094000005B0F0BD0F493846FBF798FC90B9002C29
:10941000F5D0294601A8FFF7E0FC0849242002F016
:109420007BFA05460028E6D001AB32462146FFF71D
:109430009FFFE0E70024E2E794E30B00B4E50B00B4
:1094400028E40B0098E30B00014B024A1A607047B6
:10945000CCE60320A9E30B002DE9F047089DD0F8E6
:10946000209004460E461746984600F011FD8145AF
:109470004CD02B79190704D56A6954492046FFF767
:109480000CFBB8F1000F0DD05B212046FFF794FADA
:1094900041462046FFF781FA23684D49DB680222E6
:1094A000204698472B79DA0723D5D5F808802F2155
:1094B000404602F0BAFB08B100F1010841462046DF
:1094C000FFF76BFA2B799B0708D53A212046FFF767
:1094D00073FAEA683F492046FFF7DFFA2A792368E2
:1094E00012F0040FDB6814BF3B493C4902222046BE
:1094F00098472B7958071DD529690B461A4613F84A
:10950000010B60B1202808D11946F7E7344800F074
:1095100082F90028ADD0BDE8F0872828EED1236875
:10952000521ADB682046984723682E49DB680422DC
:109530002046984700213846FDF7CAFF01462046DD
:10954000FFF72BFA23682549DB680222204698475B
:109550001EB131462046FFF720FA2B7913F0300F69
:109560002CD023682049DB680222204698472B79BB
:10957000D9060AD523681D49DB680722204698478B
:10958000AA691B492046FFF788FA2B799A0611D55C
:10959000DB0605D523681049DB6802222046984780
:1095A00023681449DB6820460A229847E969204667
:1095B000FFF7F3F95D212046FFF7FEF923680E4916
:1095C000DB6820460222BDE8F0471847ADE30B00F8
:1095D000B4E30B00E5E10B00B7E30B00BCE30B00C9
:1095E000F8E60320BAE30B00BFE30B00C2E30B0075
:1095F000CAE30B00CDE30B00D8E30B002DE9F041EB
:109600000446076A0D46164600F042FC874207D022
:10961000206A036832462946DB68BDE8F0411847F6
:10962000034800F0F8F80028F2D0BDE8F08100BF50
:10963000F8E603202DE9F04385B0D0F820900C9C8B
:1096400005460F4690461E4600F022FC814505D196
:10965000494800F0E0F8002840F08A802B6A474A29
:1096600000924FF000096846CDE902398DF8049068
:10967000FEF7ECFC49464046FDF72AFF404980468C
:1096800001226846FEF770FD4146FFF778F93FB1C9
:109690003C4901226846FEF767FD3946FFF76FF93E
:1096A0003EB1394901226846FEF75EFD3146FFF7BB
:1096B00066F92379DF070ED5A6682F21304602F020
:1096C000B4FA00B1461C314901226846FEF74CFD50
:1096D0003146FFF754F923799E0707D52C4902221A
:1096E0006846FEF741FDE168FEF7BCFC23795807A8
:1096F00014D5266933461F4613F8012B2AB1202AB8
:1097000001D11E46F7E7282AF5D1224902226846F0
:10971000FEF72AFDBA1B3146FEF736FD23791907FD
:1097200007D51D4901226846FEF71EFD6169FEF757
:10973000ABFC2379DA0607D5184904226846FEF700
:1097400013FDA169FEF78EFC23799B0607D514490A
:1097500006226846FEF708FDE169FFF710F9684642
:10976000FEF75EFC286A0F4903680222DB6898470F
:1097700005B0BDE8F08300BFF8E60320F8E30B0076
:109780008AE30B00DBE30B006AE80B0026E60B0024
:10979000DDE30B00E0E30B00C1DC0B00E3E30B00B7
:1097A000E8E30B00D8E30B00002340681A46FDF7FE
:1097B00067BF406800220221FDF772BF00224068A7
:1097C0001146FDF765BF002240681146FDF770BFE6
:1097D000002340681A461946FDF772BF002340680F
:1097E0001A461946FDF774BF40680021FDF798BF7F
:1097F00040680021FDF79CBF4068002281F0010114
:10980000FDF76EBF40680022FDF77ABF0022406876
:109810001146FDF77DBF002240681146FDF768BF85
:1098200040680021FDF794BF2DE9F04395B0144640
:109830000D460746FEF734F900211C220DA80091C1
:1098400002F08AF940230C9320466B460CAA0021B3
:10985000FDF786FD044600284BD1024601216868C9
:10986000FDF726FF0221804622466868FDF720FFAB
:10987000009E81462146002E3BD0002939D17368D5
:10988000022B03D00A2B11D0F669F4E7B8F1000FD0
:10989000FAD0716906A8043107ADFEF72FF90FCD94
:1098A0003C1D0FC42B6823704146EDE7B9F1000F52
:1098B000EAD07469102201A802F04EF906238DF84F
:1098C000143001AD04F108031834186859682A46A9
:1098D00003C20833A3421546F7D101A906A807AD74
:1098E000FEF7ECF80FCD3C1D0FC42B6823704946E2
:1098F000CAE70098FDF72CFD384615B0BDE8F083A7
:10990000033803289ABF024B53F8200001487047E0
:1099100068E40B00F8E6032008B500224068FDF774
:109920000FFFBDE80840FFF7EBBF0000024B034A02
:109930001A6000225A607047F8E6032080E40B00AA
:10994000F8B506460D468F180024BD420CD033688A
:1099500015F8011B9B6830469847031E01DB1C4429
:10996000F3E7002C08BF1C462046F8BD13B504469B
:10997000084659B10191FBF7EBF923680199DB68BF
:109980000246204602B0BDE81040184702B010BDA4
:1099900003689B68184730B58BB00023012A8DF807
:1099A000243098BF0A2209AC0D46B1FBF2F101FB4D
:1099B000125303F0FF03092B94BF30333733DBB26C
:1099C000AA4204F8013DEFD92146FFF7CFFF0BB0C3
:1099D00030BD0000014B00229A60704700E7032071
:1099E00010B50446FDF79CFCE060236820465B69E7
:1099F0009847002808DAFDF793FCE368C01AA368CB
:109A00009842F2D34FF0FF3010BD2DE9F0410746E8
:109A10000C468E180D46B542A5EB040807D0384613
:109A2000FFF7DEFF031E02DB05F8013BF3E74046CC
:109A3000BDE8F08110B504460068FDF799FE2046A8
:109A400010BD10B50446006808B1FDF791FE002373
:109A5000C4E90133236010BD38B504460D460068E3
:109A60000131FDF78DFE10B1C4E90005012038BDBC
:109A700010B50368044623B143688B4201D301202B
:109A800010BD2046FFF7E8FF0028F9D0A368002B9F
:109A9000F5D122681370F2E737B50D4611460192F1
:109AA0000446FFF7E5FF019A28B92046FFF7C9FFF2
:109AB000204603B030BDA2602946206802F024F899
:109AC0002268A3680021D154F2E7002313B5C0E94E
:109AD000003304468360037341B108460191FBF7EC
