:02000002B0004C
:1040000000400B00726E0B00000006000D00050260
:08401000040138180000000053
:04401800A4680B008D
:10401C0010F8012B11F8013B012A28BF9A42F7D066
:10402C00D01A7047034613F8012B002AFBD1181A3B
:10403C000138704709480A49884208B505D0094A31
:10404C00824202D0121A02F08FFA0748074A002166
:10405C00121A02F0B1FA014808BD00BFC4E50320F2
:10406C00D06D0B0038E6032038E60320FCE7032074
:10407C0070B5074E074C02F0F3F9A41BA4080025F9
:10408C00AC4200D170BD56F8043B98470135F7E7B8
:10409C00806D0B00AC6D0B0000F052B808B500F051
:1040AC008FF8BDE8084002F093B900F017BB00F0A0
:1040BC0015BB00F01BBB000008B5034A03490C20DC
:1040CC0000F038FAFEE700BFC1430B00B8680B00E4
:1040DC000078B0FA80F040097047012303707047F4
:1040EC00704700000A4B10B50446036001F036F827
:1040FC00214601F080FA02F023F902F013F9204670
:10410C00044B40F8043B01F0FFF8204610BD00BF03
:10411C000C690B00F4680B0010B50446FFF7E2FFC6
:10412C0020462421FFF7C5FF204610BD10B50446DC
:10413C00006810B1002100F059FA204610BD0000B3
:10414C0037B5002000F046F942F210750446002005
:10415C0000F040F9001B61F10001A84271F100036D
:10416C0007D202F0EDF802F0E0F810B900F026FAF0
:10417C00EDE702F0E5F802F0D8F801A80C4900F0E0
:10418C0075FB0C4B01991A68196001A80192FFF795
:10419C00CDFF01A8084900F069FB084B01991A688A
:1041AC00196001A80192FFF7C1FF03B030BD00BF39
:1041BC00CD680B0038E60320DB680B003CE60320DF
:1041CC00704770B5D0E900531426044606FB03561D
:1041DC00AE4204D0284601F00BFF1435F8E72068F6
:1041EC0000F084FA204670BD8842F8B504460D46AE
:1041FC00164616D9904215D2A2F11406751AA1F1E1
:10420C0014072C44B7421CD02CB13146204601F087
:10421C0058FF337C2374304601F0EAFE143E143C04
:10422C00F0E70ED0B5420CD02CB12946204601F057
:10423C0048FF2B7C2374284601F0DAFE1435143425
:10424C00F0E7F8BD2DE9F0410023C0E900338360AD
:10425C004F689F4204460E4623DD4FF0140808FBBE
:10426C0007F000F03BFA0546D8B1D4E9001208FB80
:10427C000212FFF7B9FF206800F038FA2560A7603A
:10428C00D6E9007308FB0378B84508D039462846B0
:10429C0001F031FF3B7C2B7414371435F4E7736851
:1042AC0063602046BDE8F081F0B5264B264A9A6043
:1042BC0000248DB0C3E90044012000F05BF92146D5
:1042CC00012000F05FF9CDE90044029402F038F8C7
:1042DC001E4D0646694603A8FFF7B4FF2F4603A9F7
:1042EC0006A8FFF7AFFF1A4B47F8043B06A909A82D
:1042FC00FFF7A8FF09AA1E21384601F01DFA09A8EC
:10430C00FFF75FFF06A8FFF75CFF124B2B6003A8BB
:10431C002E62FFF756FF104B2B6002F011F84FF492
:10432C00165101F0FBFF00F019FF294601F01CF9B2
:10433C006846FFF746FF094B1C60094B1C600DB02B
:10434C00F0BD00BF40E603200000FFFF4CE6032059
:10435C00F4680B00986A0B000C690B003CE6032018
:10436C0038E6032008B5024B1B685B6C019308BD53
:10437C004802030008B5024B1B689B6C019308BDF7
:10438C004802030008B5024B1B68DB6C019308BDA7
:10439C004802030008B5024B1B685B6D019308BD16
:1043AC004802030008B5024B1B685B68019308BD0B
:1043BC001802030008B5024B1B68DB68019308BDAB
:1043CC001802030008B5024B1B685B69019308BD1A
:1043DC001802030008B5024B1B68DB6D019308BD86
:1043EC001802030008B5024B1B685B69019308BDFA
:1043FC006402030008B5024B1B689B68019308BD5F
:10440C006802030008B5024B1B68DB68019308BD0A
:10441C006802030008B5024B1B689B68019308BD3A
:10442C003C02030008B5024B1B68DB68019308BD16
:10443C003C02030008B5024B1B681B69019308BDC5
:10444C003C02030008B5024B1B685B69019308BD75
:10445C003C02030008B5024B1B689B69019308BD25
:10446C003C02030008B5024B1B68DB69019308BDD5
:10447C003C02030008B5024B1B689B6A019308BD04
:10448C003C02030008B5024B1B68DB6A019308BDB4
:10449C003C02030008B5024B1B681B6C019308BD62
:1044AC003C02030008B5024B1B681B68019308BD56
:1044BC004C02030008B5024B1B685B68019308BDF6
:1044CC004C02030008B5024B1B689B68019308BDA6
:1044DC004C02030008B5024B1B681B69019308BD15
:1044EC004C02030008B5024B1B685B69019308BDC5
:1044FC004C02030008B5024B1B689B69019308BD75
:10450C004C02030008B5024B1B68DB69019308BD24
:10451C004C02030008B5024B1B681B6A019308BDD3
:10452C004C02030008B5024B1B689B6A019308BD43
:10453C004C02030008B5024B1B685B6B019308BD72
:10454C006002030008B5024B1B681B6D019308BD8C
:10455C006002030008B5024B1B68DB6E019308BDBB
:10456C006002030008B5024B1B681B6F019308BD6A
:10457C006002030008B5024B1B685B68019308BD21
:10458C002002030008B5024B1B68DB6A019308BDCF
:10459C002002030008B5034B1B68D3F88830019345
:1045AC0008BD00002002030008B5034B1B68D3F8BC
:1045BC009430019308BD00002002030008B5024BA3
:1045CC001B689B68019308BD4402030008B5024BAD
:1045DC001B68DB6B019308BD4402030008B5024B5A
:1045EC001B681B68019308BD9402030008B5024BBD
:1045FC001B689B68019308BD9402030008B5024B2D
:10460C001B685B68019308BD4002030008B5024BB0
:10461C001B689B68019308BD4002030008B5024B60
:10462C001B68DB68019308BD4002030008B5024B10
:10463C001B681B69019308BD4002030008B5024BBF
:10464C001B685B69019308BD4002030008B5024B6F
:10465C001B689B69019308BD4002030008B5024B1F
:10466C001B68DB69019308BD4002030008B5024BCF
:10467C001B681B6A019308BD4002030008B5024B7E
:10468C001B681B6B019308BD4002030008B5024B6D
:10469C001B685B6B019308BD4002030008B5024B1D
:1046AC001B681B6C019308BD4002030008B5024B4C
:1046BC001B685B6C019308BD4002030008B5024BFC
:1046CC001B685B6D019308BD4002030008B5024BEB
:1046DC001B689B6D019308BD4002030008B5024B9B
:1046EC001B681B68019308BD1C02030008B5024B34
:1046FC001B685B68019308BD1C02030008B5024BE4
:10470C001B689B68019308BD1C02030008B5024B93
:10471C001B685B6A019308BD1C02030008B5024BC1
:10472C001B68DB6B019308BD1C02030008B5024B30
:10473C001B681B6C019308BD1C02030008B5024BDF
:10474C001B685B6C019308BD1C02030038B5046840
:10475C0005467CB16368013B63605BB92368204606
:10476C009B689847A368013BA3601BB9236820464C
:10477C00DB689847284638BD10B54368013B0446B2
:10478C00436063B903689B689847A368013BA360C7
:10479C002BB923682046DB68BDE81040184710BDD4
:1047AC0070B5D0E90053044605EB0316AE4204D0B5
:1047BC00284601F01DFC1035F8E72068FFF796FF3E
:1047CC00204670BD024800230360FFF7CBBD00BF3D
:1047DC0070E60320002240681146FFF727BF002235
:1047EC0040681146FFF742BF002240681146FFF7B0
:1047FC004DBF40680022FFF741BF4068002281F0A6
:10480C000101FFF72BBF002340681A461946FFF73A
:10481C001DBF002340681A461946FFF70FBF002240
:10482C0040681146FFF7F2BE406800220221FFF7F4
:10483C00F5BE002340681A46FFF7E0BE084B10B5E2
:10484C00282422461846002101F0B6FE054B0480B0
:10485C004FF0FF32426004225A60034A1A6010BDC6
:10486C007CE6032074E6032024690B0030B5002598
:10487C008DB004462A4603A80395FFF7AFFE002827
:10488C000FDA2023CDE90435074B0190009307493B
:10489C002B4604AA3220FFF755FE256020460DB0AA
:1048AC0030BD039B2360F9E780690B0060690B0046
:1048BC00002240681146FFF7D9BE0022406811461D
:1048CC00FFF7E4BE40680022FFF7D8BE4068002224
:1048DC0081F00101FFF7C2BE002340681A46194659
:1048EC00FFF7B4BE002340681A461946FFF7A6BE70
:1048FC00002240681146FFF799BE0022406811461D
:10490C00FFF784BE406800220221FFF787BE002318
:10491C0040681A46FFF772BE024B03225A60024AE5
:10492C001A607047A4E60320AC690B00054BFF210D
:10493C000022C3E9001201206421C3E902011A61BB
:10494C00704700BFACE60320704710B51821044631
:10495C00FFF7AFFB204610BDF0B5037D062B8DB0E5
:10496C000E4600F104074FF0000412D000F10805C8
:10497C0015F8011D0A22304601F0EBFAAF4204444F
:10498C0019D0002CF4D02E21304601F0DFFA04446B
:10499C00EEE72F236A4639460A208DF80040FFF7D0
:1049AC0021FD6846FFF73EFB33680246DB6869462B
:1049BC0030469847044620460DB0F0BD10B5054B67
:1049CC000446112240F8043B002101F0F5FD20467D
:1049DC0010BD00BFF0690B000346074A10B543F841
:1049EC00042B01F1100251F8044B43F8044B914293
:1049FC00F9D10A781A7010BDF0690B0010B59DF84A
:104A0C00084044EA032343EA024242EA01610423D8
:104A1C004160037510BD000007B5064B0360CB78F1
:104A2C0000938B784A780978FFF7E8FF03B05DF8BC
:104A3C0004FB00BFF0690B0000F11003012213F816
:104A4C00101C0129184608D153F8041C02EB410232
:104A5C00013A03F11003F2D17047022904BF53F855
:104A6C00041C5218F4E70EB4F0B588B000AF07F18F
:104A7C003405102155F8042B7A6004462B4678181F
:104A8C00FD60FFF743FE0F287A681AD900F108037E
:104A9C0023F007036E46ADEB030D411C2B46684615
:104AAC00FD60FFF733FE021E04DD236869469B6838
:104ABC0020469847B5462037BD46BDE8F04003B0C8
:104ACC0070470028F7D0236802469B6807F1100155
:104ADC0020469847EFE738B50B6803604D6843688C
:104AEC009D42044608D015B16B6801336B60606859
:104AFC0008B1FFF741FE656038BD07B503688DF856
:104B0C0007109B6801220DF10701984703B05DF86F
:104B1C0004FB0B461146002210B5C0E900220446E6
:104B2C0083600BB9204610BDFFF7D5FFFAE7836809
:104B3C00EBB11A78032A1AD8DFE802F00417021B2B
:104B4C000520704702685B685268D05C2D2812D033
:104B5C00A0F13003092B0ED974280ED066280CD086
:104B6C00A0F16E0358425841704706207047002050
:104B7C00704704207047032070470220704710B51F
:104B8C000446FFF7D4FF02280ED0C31EDBB2012B64
:104B9C0014D82268A36850685B68BDE810400A22EC
:104BAC000021184401F008BE2268A36852685B68B3
:104BBC00D05CA0F174035842584110BD0020FCE7B2
:104BCC0038B50023C0E9003304460E48C4E902039B
:104BDC00A9B10B78032B06D08BB9136858684B68B6
:104BEC00C35C6E2B07D013684D6858688B682844DB
:104BFC005B1BA060E36011462046FFF76CFF20466C
:104C0C0038BD00BF5F6A0B0038B500250B46C0E904
:104C1C000055C0E90255C0E90455044611464BB194
:104C2C001A78012A06D103F11002DB688260436115
:104C3C00FFF751FF204638BD10B54369044663B1F8
:104C4C008068E060013B1030A0602061636113B1AB
:104C5C00FFF7F2FEA060012000E0184610BD10B571
:104C6C007D210446FFF749FF01232371204610BD27
:104C7C0008B50379012B02D0022B04D008BD2C21DE
:104C8C00FFF73BFFFAE73A21FAE710B50446FFF7C6
:104C9C00EFFF20467B21FFF730FF002323712046D6
:104CAC0010BD000013B504460191FFF7E1FF236826
:104CBC00019ADB680349204698470123204623715B
:104CCC0002B010BD7D690B0013B504460191FFF7CE
:104CDC00CFFF2368019ADB680349204698470123DC
:104CEC002046237102B010BDFC690B002DE9F04782
:104CFC000D46222190460446FFF7FFFEDFF8A490F4
:104D0C00A8442F464745BA463DD017F8016B222ED2
:104D1C0006D05C2E04D0304601F01EFC0028F1D1E8
:104D2C002368AAEB05029B682946204698475C211C
:104D3C002046FFF7E2FE0D2E0AD8072E1CD9A6F14D
:104D4C000803052B18D8DFE803F00D0F1117131506
:104D5C00222E01D05C2E0FD131462046FFF7CDFE1E
:104D6C003D46CFE76221F8E77421F6E76E21F4E7C0
:104D7C006621F2E77221F0E723683246DB68494688
:104D8C0020469847ECE7BD4205D023687A1B9B6808
:104D9C0029462046984722212046FFF7AEFEBDE863
:104DAC00F08700BFFF690B0013B50446CDE9002165
:104DBC00FFF75EFF2046DDE90021FFF797FF022396
:104DCC002046237102B010BD13B50446CDE9002175
:104DDC00FFF74EFF2046DDE90021FFF787FF012397
:104DEC002046237102B010BD8842F8B504460D462A
:104DFC00164614D9904213D2A2F11006751AA1F1DD
:104E0C0010072C44B74218D01CB13146204601F093
:104E1C0058F9304601F0ECF8103E103CF2E70CD09B
:104E2C00B5420AD01CB12946204601F04AF9284661
:104E3C0001F0DEF810351034F2E7F8BD70B50E1E37
:104E4C00054611DD3001FFF749FC044658B1D5E9A0
:104E5C00001201EB0212FFF7C7FF2868FFF746FCB0
:104E6C002C60AE60012070BD0024F6E710B504463E
:104E7C0080680368DB689847E3681844E06010BDFD
:104E8C007047084611B10B685B681847704770474C
:104E9C0070477047704738B504460D4600682E21A0
:104EAC0001F0CDFB2368C31A2B6023B1037803B147
:104EBC00013023682060184638BD10B51021044617
:104ECC00FFF7F7F8204610BD10B504210446FFF794
:104EDC00F0F8204610BD10B504210446FFF7E9F8A0
:104EEC00204610BDFFF74EBA08B5FFF791F8B0FA9F
:104EFC0080F0400908BD704710B50C4601F020FA4F
:104F0C00844210D001F0FAFA844205D101F0F6FA8D
:104F1C00BDE8104001F0ADB92CB1236820465B68A8
:104F2C00BDE81040184710BD0B6803604B68436028
:104F3C0013B15A6801325A60704713B504460846DB
:104F4C000191FFF76FF801990246204602B0BDE8C7
:104F5C001040FFF739BF13B5044608460191FFF71F
:104F6C0061F823680199DB680246204602B0BDE86F
:104F7C001040184707B503688DF80710DB6801224D
:104F8C000DF10701984703B05DF804FB2DE9F74FCD
:104F9C00D0E900844FF0140A00930AFB04F4184B78
:104FAC00A41017465C434546002C21DD66100AFB15
:104FBC0006F005EB00093A46B9F804B028580191FF
:104FCC005F4528BF5A4601F04CFB002801994FF071
:104FDC0001030BD15F4503D1009A13703446E3E70C
:104FEC00FCD9A61B09F11405013EF7E7F9DBF5E73F
:104FFC00A5EB08050248AD10684303B0BDE8F08F7F
:10500C00CDCCCCCC7FB50369057E019103B3F9B14E
:10501C00002600F10C04039603A901A8FFF73BFF3F
:10502C000146A8B10DF10B03039A8DF80B602046D5
:10503C00FFF7ACFF9DF80B3053B12368142404FB2D
:10504C000034083434F9023C002BA8BFDDB2E3E78E
:10505C00284604B070BD0EB4F0B58CB000AF07F1AB
:10506C004405044655F8042B7A602B46202107F1A1
:10507C001000FD60FFF74AFB1F287A681AD900F16F
:10508C00080323F007036E46ADEB030D411C2B46C2
:10509C006846FD60FFF73AFB021E04DD2368694693
:1050AC00DB6820469847B5463037BD46BDE8F04032
:1050BC0003B070470028F7D023680246DB6807F17D
:1050CC00100120469847EFE710B5094C2378BFF341
:1050DC005B8FDB0709D42046FEF7FAFF28B1204688
:1050EC00FEF7FBFF034801F031FA034810BD00BF87
:1050FC00C4E603209B4E0B00C4E5032010B5094CFD
:10510C002378BFF35B8FDB0709D42046FEF7E0FF63
:10511C0028B12046FEF7E1FF034801F017FA0348D7
:10512C0010BD00BFC8E60320034F0B00C8E50320E9
:10513C0038B500250446C0E90055C0E90455856022
:10514C00856140F8245FFFF70DF9FFF7BDFFE061C3
:10515C00FFF7D4FF25732062204638BD10B50A4CEA
:10516C002378BFF35B8FDB070CD42046FEF7B0FF30
:10517C0040B10648FFF7DCFF2046FEF7AEFF0448BF
:10518C0001F0E4F9014810BDC0E60320D0E603208D
:10519C00E1560B00024A034903480023FFF7E2B92A
:1051AC00C5540B0051540B00D1530B0000231A466D
:1051BC0019461846FFF7D6B937B58D6804466846C8
:1051CC00FFF7B2FE6A4629462046FFF71DFD01A8EF
:1051DC00FFF7BCFA204603B030BD37B5CD680446A6
:1051EC006846FFF7A1FE6A4629462046FFF7E8FC11
:1051FC0001A8FFF7ABFA204603B030BD37B50D69F7
:10520C0004466846FFF790FE6A4629462046FFF79B
:10521C0080FC01A8FFF79AFA204603B030BD0000CD
:10522C0070B58AB00D46014604A8FFF7C5FF144EB1
:10523C0004A8FFF701FDE8B104A96846FFF7CDFF0C
:10524C0002983146FFF750FE044610B12C1E18BFD1
:10525C00012401A8FFF77AFA002CE9D004A96846CA
:10526C00FFF7CCFF6846FFF78AFC286001A8FFF720
:10527C006DFADDE705A8FFF769FA0AB070BD00BF4B
:10528C00056A0B0037B50C46204613491546FEF748
:10529C00BFFE50B901F054F84FF4165101F03EF82E
:1052AC0003B0BDE8304001F04BB80C492046FEF786
:1052BC00AFFE78B94FF4165301A928460193FFF7B6
:1052CC00AFFF01F01BF9019900F0D0FF01F016F9C6
:1052DC0003B030BD0020FBE70A6A0B00116A0B001B
:1052EC0070B5D0E900531426044606FB0356AE42B3
:1052FC0005D005F10800FFF7F3FF1435F7E7206838
:10530C00FFF7F4F9204670BD10B504460C30FFF7DA
:10531C00E7FF2046FFF744FA204610BD10B5044BBA
:10532C00044640F8043BFFF7EFFF204610BD00BFDA
:10533C00F4680B0010B50446FFF7F0FF204624215B
:10534C00FEF7B7FE204610BD10B5034B03600446B4
:10535C00FFF7E4FF204610BDB06A0B0010B5044601
:10536C00FFF7F2FF20462421FEF7A3FE204610BDD6
:10537C000A6802604A6842600022C0E9022210B545
:10538C0002618C688460CC68C4600C698A60CA60F5
:10539C0004610A6110BD0022C0E9002210B58260D0
:1053AC000C6804604C6844608C680A604A608460D5
:1053BC008A6010BD10B5036804461868FEF7EAFF52
:1053CC00204610BD2DE9F04F87B0804603931C4B4F
:1053DC005B68C3F30803894616466BB9FFF7BEFE3C
:1053EC00044600F12403406A0593FFF77BFD237B01
:1053FC002BB105A8FFF7DEFF07B0BDE8F08F012346
:10540C002373D4E900535FFA89F905EB830AAA45A3
:10541C0012D055F8047B3146381DFFF7F3FD81455A
:10542C00F5D33B68039A0092D3F808B04A4633464A
:10543C0041463846D847EAE700232373D9E700BF33
:10544C0000ED00E02DE9F74F9B461A4B5B68C3F368
:10545C0008038046894616466BB9FFF77FFE044663
:10546C0000F12403406A0193FFF73CFD237B2BB131
:10547C0001A8FFF79FFF03B0BDE8F08F0123237352
:10548C00D4E90053F6B205EB830A55450ED055F816
:10549C00047B5946381DFFF7B5FD8642F5D33B68B2
:1054AC004A46DB68414638469847EEE700232373AB
:1054BC00DEE700BF00ED00E02DE9F341164B5B6821
:1054CC00C3F3080305460F461BBBFFF747FE00F16D
:1054DC0024030446406A0193FFF704FDD4E90063FA
:1054EC00462406EB8308B04509D101A8FFF762FFFB
:1054FC00A542B4BF0020012002B0BDE8F08156F8EF
:10550C00040B39460430FFF77DFD8442A8BF0446E6
:10551C00E9E70020F0E700BF00ED00E0F8B5D0E9C6
:10552C0001539D4204460E460DDB6F1C002F006894
:10553C0004DDB900FFF7E2F818B9F8BDFFF7D6F8AB
:10554C0000202060A7602768626807EB8501920045
:10555C00A2EB8502081D01F015F847F82560636879
:10556C00013363600120E8E737B500F124030446FA
:10557C00406A01930D46FFF7B5FCD4E9003203EB0A
:10558C008202934219460BD00968A94203F1040325
:10559C00F7D101A8FFF70EFF0025284603B030BD58
:1055AC0029462046FFF7BAFF05460028F1D063686C
:1055BC00012B01D1FFF7EEFD01A8FFF7FBFEECE795
:1055CC0070B50446D0E900020B4600EB8202824221
:1055DC000FD001461D6851F8046BAE4207D1521A28
:1055EC0000F0D0FF6368013B6360012070BD08468A
:1055FC00EDE70020FAE71FB500F124030446406AEA
:10560C0001910393FFF76EFC01A92046FFF7D8FF29
:10561C0018B163680BB9FFF7C9FD03A8FFF7CAFE01
:10562C0004B010BD70B5D0E904561823044603FB32
:10563C000656AE4215D005F110012046FFF7C0FF0B
:10564C0063680BB9FFF7B2FDE06929690368DB6891
:10565C009847696919B1206A0368DB68984718355F
:10566C00E7E7D4E90453182606FB0356AE4204D0F0
:10567C00284600F0BDFC1835F8E70023636170BDC7
:10568C0073B50446FFF792FD04F12403606A01939D
:10569C00FFF728FC2046FFF7C5FF01A8FFF78AFE9D
:1056AC00606A08B1FEF766FED4E90453182606FBBF
:1056BC000356AE4204D0284600F09AFC1835F8E7A1
:1056CC002069FFF713F82068FFF710F8204602B0A6
:1056DC0070BD00000148FFF7D3BF00BFD0E6032028
:1056EC008842F8B504460D46164615D9904214D298
:1056FC00A2F11406751AA1F114072C44B7421AD062
:10570C001CB131462046FFF733FE06F10800FFF7C7
:10571C00E7FD143E143CF1E70DD0B5420BD01CB1A3
:10572C0029462046FFF724FE05F10800FFF7D8FDB7
:10573C0014351434F1E7F8BD2DE9F04F904695B0CF
:10574C0000230391D8F804100A9346229942C0E929
:10575C000033C0E90233C0E90433CDE90833044611
:10576C00027623DCD8E90057142303FB0757AF421A
:10577C003BD029460BA800F0A4FC0BA90FA8099E4E
:10578C0000F09FFCDDE9091399421BDA089B099A8A
:10579C0003EB061603EB0212314606F11000FFF77D
:1057AC0023FBEEB9099B0133099311E008A8FFF71D
:1057BC0045FB0028D6D108A8FEF7F2FF204615B00D
:1057CC00BDE8F08F013108A8FFF738FB0028DDD1C8
:1057DC000FA800F00DFC0BA800F00AFC1435C6E76E
:1057EC000FA9304600F06DFCDCE70026CDE90B6616
:1057FC000D964FF01409DDE908239E427CDA330143
:10580C00D35806930BB90136F5E70023079309FB30
:10581C0006F302930BAD07A906A8FFF73CFB8246E3
:10582C000028F0D04FF000038DF817300146079A8E
:10583C000DF117032846FFF7A9FB9DF8177001908F
:10584C00002F4AD1BDF81C30ADF84030CDE91177AE
:10585C004FF6FF73CDF83CA0ADF842301397D5E965
:10586C000132934217DB03F1010ABAF1000F30DD6C
:10587C0009FB0AF0FEF732FF834660B3D5E900124C
:10588C0009FB0212FFF72CFF2868FEF72FFFC5F863
:10589C0000B0C5F808A02B68019A09FB023A6A68A7
:1058AC00514609FB02320AF11400FFF719FFBAF155
:1058BC00000F03D00FA95046FFF75AFD6B68013358
:1058CC006B6011A8FFF70CFD3FB10BA8FFF708FDAB
:1058DC0071E7BB46D8E70127F3E7019B2D6809FB6D
:1058EC000355069B1B782BB9D8F80030029A134449
:1058FC001B7CEB8008358EE7216822606268636050
:10590C00A36809920A9A0A93E368A2600B9A0B9314
:10591C002369E2600C9A0C93636922610D9A0D93D2
:10592C00039B089162612376CFE70000F0B5044633
:10593C0087B00D462646194668461746FEF782FC88
:10594C000B4B46F8043B694603A8FEF77BFC03AA05
:10595C0039463046FFF7F0FE03A8FEF732FC6846E6
:10596C00FEF72FFC034B23602046256207B0F0BDE9
:10597C00F4680B00986A0B00F0B50F4685B01D4912
:10598C000A9C384616461D46FEF742FBC0B9A4B128
:10599C00294601A8FFF7FFFC1749242000F0D2FD8F
:1059AC00054630B101AB32462146FFF7BFFF134B22
:1059BC002B6001A8FEF705FC2C46204605B0F0BD77
:1059CC000F493846FEF724FB90B9002CF5D0294638
:1059DC0001A8FFF7E0FC0849242000F0B3FD0546C0
:1059EC000028E6D001AB32462146FFF79FFFE0E7E7
:1059FC000024E2E7196A0B000C6C0B00B06A0B0078
:105A0C001D6A0B00014B024A1A607047CCE603205A
:105A1C002E6A0B002DE9F047089DD0F82090044623
:105A2C000E461746984600F08BFC81454CD02B79DE
:105A3C00190704D56A6954492046FFF70CFBB8F1E5
:105A4C00000F0DD05B212046FFF794FA414620460B
:105A5C00FFF781FA23684D49DB68022220469847FC
:105A6C002B79DA0723D5D5F808802F21404600F092
:105A7C000CFE08B100F1010841462046FFF76BFA15
:105A8C002B799B0708D53A212046FFF773FAEA6871
:105A9C003F492046FFF7DFFA2A79236812F0040FFA
:105AAC00DB6814BF3B493C490222204698472B79BE
:105ABC0058071DD529690B461A4613F8010B60B11E
:105ACC00202808D11946F7E7344800F082F900285D
:105ADC00ADD0BDE8F0872828EED12368521ADB68D8
:105AEC002046984723682E49DB68042220469847B5
:105AFC0000213846FEF72EFD01462046FFF72BFA13
:105B0C0023682549DB680222204698471EB131469E
:105B1C002046FFF720FA2B7913F0300F2CD0236896
:105B2C002049DB680222204698472B79D9060AD5F2
:105B3C0023681D49DB68072220469847AA691B4940
:105B4C002046FFF788FA2B799A0611D5DB0605D586
:105B5C0023681049DB6802222046984723681449C1
:105B6C00DB6820460A229847E9692046FFF7F3F9DB
:105B7C005D212046FFF7FEF923680E49DB682046BD
:105B8C000222BDE8F0471847326A0B00396A0B0055
:105B9C007D690B003C6A0B00416A0B00F8E60320A0
:105BAC003F6A0B00446A0B00476A0B004F6A0B00FC
:105BBC00526A0B005D6A0B002DE9F0410446076A3E
:105BCC000D46164600F0BCFB874207D0206A0368DE
:105BDC0032462946DB68BDE8F0411847034800F01F
:105BEC00F8F80028F2D0BDE8F08100BFF8E60320F9
:105BFC002DE9F04385B0D0F820900C9C05460F465B
:105C0C0090461E4600F09CFB814505D1494800F0AA
:105C1C00E0F8002840F08A802B6A474A00924FF047
:105C2C0000096846CDE902398DF80490FFF72DF88C
:105C3C0049464046FEF78EFC4049804601226846A4
:105C4C00FFF7B2F84146FFF778F93FB13C49012222
:105C5C006846FFF7A9F83946FFF76FF93EB13949A5
:105C6C0001226846FFF7A0F83146FFF766F9237961
:105C7C00DF070ED5A6682F21304600F006FD00B1D7
:105C8C00461C314901226846FFF78EF83146FFF772
:105C9C0054F923799E0707D52C4902226846FFF751
:105CAC0083F8E168FEF7FEFF2379580714D52669BF
:105CBC0033461F4613F8012B2AB1202A01D11E4668
:105CCC00F7E7282AF5D1224902226846FFF76CF83B
:105CDC00BA1B3146FFF778F82379190707D51D4908
:105CEC0001226846FFF760F86169FEF7EDFF237942
:105CFC00DA0607D5184904226846FFF755F8A1695A
:105D0C00FEF7D0FF23799B0607D514490622684677
:105D1C00FFF74AF8E169FFF710F96846FEF79FFFB5
:105D2C00286A0F4903680222DB68984705B0BDE872
:105D3C00F08300BFF8E60320806A0B000F6A0B00AB
:105D4C00606A0B007B6C0B00626A0B00646A0B00D0
:105D5C00676A0B006A6A0B006C6A0B00716A0B00B5
:105D6C005D6A0B00002340681A46FEF747BC40688A
:105D7C0000220221FEF752BC002240681146FEF7B9
:105D8C0045BC002240681146FEF750BC0023406819
:105D9C001A461946FEF752BC002340681A461946AB
:105DAC00FEF754BC40680021FEF778BC4068002127
:105DBC00FEF77CBC4068002281F00101FEF74EBC6E
:105DCC0040680022FEF75ABC002240681146FEF7DC
:105DDC005DBC002240681146FEF748BC40680021BB
:105DEC00FEF774BC2DE9F04395B014460D460746FA
:105DFC00FEF7E4FD00211C220DA8009100F0DCFB55
:105E0C0040230C9320466B460CAA0021FEF7FAFAAD
:105E1C00044600284BD1024601216868FEF706FCB7
:105E2C000221804622466868FEF700FC009E8146EF
:105E3C002146002E3BD0002939D17368022B03D0A8
:105E4C000A2B11D0F669F4E7B8F1000FFAD071699A
:105E5C0006A8043107ADFEF7DFFD0FCD3C1D0FC4C6
:105E6C002B6823704146EDE7B9F1000FEAD0746955
:105E7C00102201A800F0A0FB06238DF8143001AD10
:105E8C0004F108031834186859682A4603C2083309
:105E9C00A3421546F7D101A906A807ADFEF79CFD54
:105EAC000FCD3C1D0FC42B6823704946CAE70098E0
:105EBC00FEF7A0FA384615B0BDE8F0830338032886
:105ECC009ABF024B53F8200001487047F06A0B0050
:105EDC00F8E6032008B500224068FEF7EFFBBDE8AA
:105EEC000840FFF7EBBF0000024B034A1A60002288
:105EFC005A607047F8E60320086B0B00F8B50646AD
:105F0C000D468F180024BD420CD0336815F8011BC8
:105F1C009B6830469847031E01DB1C44F3E7002CBA
:105F2C0008BF1C462046F8BD13B50446084659B1B7
:105F3C000191FEF777F823680199DB680246204649
:105F4C0002B0BDE81040184702B010BD03689B6852
:105F5C00184730B58BB00023012A8DF8243098BF38
:105F6C000A2209AC0D46B1FBF2F101FB125303F00E
:105F7C00FF03092B94BF30333733DBB2AA4204F84A
:105F8C00013DEFD92146FFF7CFFF0BB030BD00002C
:105F9C00014B00229A60704700E7032010B50446BD
:105FAC00FEF710FAE060236820465B6998470028EA
:105FBC0008DAFEF707FAE368C01AA3689842F2D32E
:105FCC004FF0FF3010BD2DE9F04107460C468E18FE
:105FDC000D46B542A5EB040807D03846FFF7DEFFA7
:105FEC00031E02DB05F8013BF3E74046BDE8F081F8
:105FFC0010B504460068FEF779FB204610BD10B5BD
:10600C000446006808B1FEF771FB0023C4E90133B4
:10601C00236010BD38B504460D4600680131FEF70B
:10602C006DFB10B1C4E90005012038BD10B5036843
:10603C00044623B143688B4201D3012010BD204696
:10604C00FFF7E8FF0028F9D0A368002BF5D12268F0
:10605C001370F2E737B50D46114601920446FFF76F
:10606C00E5FF019A28B92046FFF7C9FF204603B087
:10607C0030BDA2602946206800F076FA2268A36839
:10608C000021D154F2E738B5054600680C4670B1D2
:10609C006A688B689A4208D3096831B100F0D9FA62
:1060AC00A368AB600023A36038BDFEF71FFB236819
:1060BC002B6063686B60A368AB600023C4E900339A
:1060CC00F1E710B50023C0E9003304468360037385
:1060DC00FFF7D9FF204610BD884210B5044605D005
:1060EC000B682BB18A681946FFF7B4FF204610BD28
:1060FC00FFF785FFFAE710B500230446C0E900332B
:10610C0083600373FFF7E8FF204610BD054B0222A6
:10611C001A60054B054A9A600020C3E90000FEF79F
:10612C0029BA00BF1CE7032010E703200000FFFF83
:10613C00002240681146FEF799BA002240681146C9
:10614C00FEF7A4BA40680022FEF798BA4068002215
:10615C0081F00101FEF782BA002340681A46194605
:10616C00FEF774BA002340681A461946FEF766BA61
:10617C00002240681146FEF759BA002240681146C9
:10618C00FEF744BA406800220221FEF747BA00230A
:10619C0040681A46FEF732BA024B06225A60024A8F
:1061AC001A60704720E703204C6B0B00024B1A68F7
:1061BC00024B1A60704700BFCCE5032028E7032090
:1061CC0070474174704708B5007CFEF753F920EA1C
:1061DC00E07008BD08B5007CFEF72CF920EAE070F1
:1061EC0008BD08B5007CFEF735F940EAE07008BD43
:1061FC0008B5007CFEF726F940EAE07008BD007C8B
:10620C00FEF730B937B5457C04462DB1207C03B080
:10621C00BDE83040FEF706B9007C0191FEF72AF983
:10622C0000280199F2DC284603B030BD10B51421CA
:10623C000446FDF73EFF204610BD000010B54FF49C
:10624C007A730446084611460022C4E90123044B24
:10625C002360012320746374FEF71CF9204610BDE3
:10626C00AC6B0B00007C0023FEF70CB90022FFF78F
:10627C00F9BF007CFEF7CEB8417470477047704789
:10628C0008B50021007CFEF735F940EAE07008BD46
:10629C0008B50121007CFEF72DF940EAE07008BD3D
:1062AC0008B5007CFEF71EF920EAE07008BD08B5C1
:1062BC00007CFEF70FF920EAE07008BD13B5044628
:1062CC00007C0191FEF70EF90028019901DC607C3D
:1062DC0020B1207CFEF716F920EAE07002B010BD68
:1062EC00007CFEF717B910B514210446FDF7E1FE4A
:1062FC00204610BD10B54FF47A73044608460021B1
:10630C00C4E90113044B2360012320746374114608
:10631C00FEF7C8F8204610BDE06B0B00007C002295
:10632C00FEF7C8B8007CFEF7CDB8007CFEF7FAB8D3
:10633C0010B514220446002100F03EF9204610BD91
:10634C0010B50F4C88B003A8FFF7F2FF2178BFF30C
:10635C005B8F11F001010FD120460191FDF7B8FEC2
:10636C00019948B103AA0748FFF7C4FF2046FDF77F
:10637C00B4FE054800F0EAF8024808B010BD00BFB2
:10638C002CE7032030E7032089620B00014B1860D7
:10639C00704700BFD0E5032008B50B4B43B1FFF7A6
:1063AC00CFFF03681B699847002801DDAFF300801D
:1063BC00064B43B100F0A2F803681B69984700280C
:1063CC0001DDAFF3008008BD0000000000000000FC
:1063DC0008B5FFF7E1FFFDF7F5FF014B186008BDAD
:1063EC004CE703200548064A064908B5121A00F086
:1063FC00BBF8054B054A1A6008BD00BF00F403202A
:10640C0004F40320446E0B0000F403201E1C279A96
:10641C0007B5002300931A466FF07701FEF7C4F816
:10642C0003B05DF804FB000007B543880A2B08D0C5
:10643C00502B0BD1094B1B684BB103B05DF804EB2F
:10644C001847FFF7E5FF03B05DF804FB002300934A
:10645C001A466FF07701FEF7A7F8F4E748E7032038
:10646C0010B512480021FEF769F9114B1A68114B4F
:10647C009A42114B0CBF012200221A7001D0FFF777
:10648C00B1FFFDF78FFF044600F09EF80B4B13B1E4
:10649C002046AFF3008000210848FEF797F8BDE8CE
:1064AC00104007480021FEF775B800BF99630B0038
:1064BC0000F403201E1C279A44E703200000000070
:1064CC0035640B007047000038B5044614252A4685
:1064DC00002100F071F825804025074925812846C8
:1064EC00258200F031F804496060284600F02CF851
:1064FC00E060204638BD00BF0C6C0B0030B50E4D73
:10650C002978BFF35B8F11F0010487B011D12846B5
:10651C00FDF7DEFD68B101A8FFF7D6FF01AA214601
:10652C000648FFF78BFE2846FDF7D7FD044800F020
:10653C000DF8024807B030BD50E7032054E70320A4
:10654C00D1640B00FDF7B1BDFDF7B1BD00230146D1
:10655C001A46184600F03AB9024B1844407800F03D
:10656C00970070477D6C0B000A44914200F1FF3399
:10657C0000D1704710B511F8014B03F8014F91424F
:10658C00F9D110BD884210B501EB020402D9844246
:10659C00234607D8431EA14208D011F8012B03F85B
:1065AC00012FF8E7024401468A4200D110BD13F8CE
:1065BC00014D02F8014DF7E702440346934200D126
:1065CC00704703F8011BF9E738B5104B1D68AB6B2E
:1065DC000446B3B91820FEF781F80246A86320B927
:1065EC000B4B0C484221FEF7A1F80B490B4BC0E9B1
:1065FC0000130B4B83600B23838100210120C2E924
:10660C000401AB6B00221C615A6138BDD0E503203C
:10661C000D6C0B00246C0B000E33CDAB34126DE6FD
:10662C00ECDE0500C9B2034610F8012B1AB18A4200
:10663C00F9D118467047002918BF0023F9E710B5A7
:10664C000446FFF7EFFF18B92046FDF7EBFC20449A
:10665C0010BD034611F8012B03F8012B002AF9D1C8
:10666C00704710B57AB103460139841813F8010B41
:10667C0011F8012F904201D1A34201D1801A10BD13
:10668C000028F3D1FAE71046F9E738B503460C4673
:10669C0069B9BDE83840FFF7C5BF431C0546214624
:1066AC001846FFF7BFFF0028F7D1284638BD002554
:1066BC00F5E70000012B2DE9F04701D0242B06D97A
:1066CC00FEF72CF8162303600020BDE8F087DFF8F6
:1066DC00E4C00D462E4615F8014B14F80C7017F05B
:1066EC000807F7D12D2C32D12C780127B51C002BA3
:1066FC005BD0102B09D1302C07D12C7804F0DF049F
:10670C00582C4DD16C781023023507F1004808F154
:10671C00FF384FF0000CB8FBF3F9664603FB198AFF
:10672C00A4F1300EBEF1090F16D87446A34224DD35
:10673C00BCF1000F1EDBB1451CD301D1A24519DB06
:10674C0006FB03464FF0010C15F8014BE8E72B2C28
:10675C0004BF2C78B51CCAE7A4F1410EBEF1190F89
:10676C0001D8373CE2E7A4F1610EBEF1190F04D851
:10677C00573CDBE74FF0FF3CE6E7BCF1000F05DAD6
:10678C0022230360464642B930469EE707B1764263
:10679C00002AF9D0BCF1000F00D0691E1160F3E79C
:1067AC003024002BB1D10823AFE7302CA5D00A231D
:1067BC00ABE700BF7E6C0B0013460A46014602484D
:1067CC000068FFF777BF00BFD0E503202DE9F84341
:1067DC00DFF8B8800646D8F800001F460D469146F3
:1067EC0000F056F8254B1C6834B9254C1C60254B21
:1067FC0013B11B68C4F8883063681F2B07DDD8F809
:10680C00000000F047F84FF0FF30BDE8F8834EB3BE
:10681C00D4F8880088B91C4B23B9D8F8000000F0D4
:10682C0038F8F0E74FF48470FDF758FF0028F4D0E7
:10683C000023C0E94033C4F88800636840F8239013
:10684C0001229A4000EB8301D0F800311343C0F8C9
:10685C000031022EC1F8807002BFD0F8043113430E
:10686C00C0F804316368D8F800005A1C0233626027
:10687C0044F8235000F00EF80020C6E7F4E703209C
:10688C0068E7032000000000E9460B0034E6032013
:10689C00704770477047000041400B007D400B0073
:1068AC00A5400B00A9400B000000000043616C6C7C
:1068BC00206F6E2070757265207669727475616CCC
:1068CC00006465766963652D636F6E666967006445
:1068DC0065766963652D6C6F6767696E670000008C
:1068EC00000000000000000000000000000000009C
:1068FC00C5400B00ED400B00000000000000000044
:10690C00F1400B0025410B00215A0B00C55B0B001D
:10691C0000000000000000003F480B0035480B0051
:10692C002B480B00E1470B001F480B0013480B00D2
:10693C00B15D0B00B95D0B0007480B00FF470B0066
:10694C00F5470B00EB470B00E15E0B00E95D0B001C
:10695C00F15D0B00776972696E67004661696C6561
:10696C006420746F2070617273652043424F523AF9
:10697C00202564006C65646765725F6765745F6988
:10698C006E7374616E63652829206661696C656439
:10699C003A20256400000000000000000000000008
:1069AC001B490B0011490B0007490B00FD480B005C
:1069BC00F1480B00E5480B00B15D0B00B95D0B0015
:1069CC00D9480B00D1480B00C7480B00BD480B0041
:1069DC00E15E0B00E95D0B00F15D0B0000000000B7
:1069EC000000000065490B0055490B0057490B008E
:1069FC002575007525303478006261756400536527
:106A0C007269616C0053657269616C31004A534F55
:106A1C004E53747265616D4C6F6748616E646C6542
:106A2C00720061707000253031307520005D2000DF
:106A3C002C200028293A2000205B00636F6465201D
:106A4C003D200025690064657461696C73203D20EC
:106A5C00000D0A006D0066006C6E00666E0074001E
:106A6C00636F64650064657461696C00000000000C
:106A7C0000000000A14E0B00C74E0B00794E0B001E
:106A8C00734A0B00000000000000000029530B00AB
:106A9C0041530B00215A0B00C55B0B00000000009A
:106AAC000000000055530B0069530B00FD5B0B00FD
:106ABC008D4E0B0000000000000000009F4E0B00EC
:106ACC00D54E0B0085590B008F4E0B0000000000BB
:106ADC00000000009D4E0B00E34E0B0091520B008A
:106AEC00054F0B00A4E6032074E60320F8E6032010
:106AFC0020E703200000000000000000715D0B0087
:106B0C007B5D0B00855D0B008F5D0B00995D0B00B1
:106B1C00A55D0B00B15D0B00B95D0B00C15D0B00F9
:106B2C00CD5D0B00D55D0B00DF5D0B00E15E0B0056
:106B3C00E95D0B00F15D0B0000000000000000009F
:106B4C009B610B0091610B0087610B007D610B0059
:106B5C0071610B0065610B00B15D0B00B95D0B0041
:106B6C0059610B0051610B0047610B003D610B003B
:106B7C00E15E0B00E95D0B00F15D0B0025592D2545
:106B8C006D2D25645425483A254D3A2553257A0018
:106B9C0061736374696D6500000000000000000003
:106BAC00CD610B0039620B0011620B00095F0B0009
:106BBC00E1610B00FD610B00EF610B000B620B0040
:106BCC00D35F0B00CF610B00D3610B000000000002
:106BDC00000000008B620B00F3620B00C9620B001B
:106BEC00095F0B00BB620B008D620B009D620B00FA
:106BFC00ED620B00D35F0B00AD620B0085620B00E6
:106C0C00005245454E54206D616C6C6F632073755A
:106C1C0063636565646564002F746D702F6A656EBF
:106C2C006B696E732D4743432D31302D7069706540
:106C3C006C696E652D34385F32303230313132341C
:106C4C005F313630363138303633392F7372632F2B
:106C5C006E65776C69622F6E65776C69622F6C69F3
:106C6C0062632F7374646C69622F72616E642E633D
:106C7C000000202020202020202020282828282820
:106C8C0020202020202020202020202020202020F8
:106C9C002020881010101010101010101010101050
:106CAC001010040404040404040404041010101050
:106CBC00101010414141414141010101010101010B
:106CCC00010101010101010101010101011010107B
:106CDC0010101042424242424202020202020202DE
:106CEC00020202020202020202020202021010104E
:106CFC001020000000000000000000000000000058
:106D0C000000000000000000000000000000000077
:106D1C000000000000000000000000000000000067
:106D2C000000000000000000000000000000000057
:106D3C000000000000000000000000000000000047
:106D4C000000000000000000000000000000000037
:106D5C000000000000000000000000000000000027
:106D6C000000000000000000000000000000000017
:106D7C0000000000B5420B00D1470B0049480B0046
:106D8C0025490B0039490B00115A0B00F55E0B001D
:106D9C009D5F0B0019610B00A5610B00B9610B0025
:106DAC00040000001400000003000000474E5500D2
:106DBC00EED3BA5773608AF7E4F9FDBBC0B8BE4C8A
:046DCC00CF2B9AAE81
:106DD000C86A0B00E06A0B009C6B0B00D4E5032033
:106DE00000000000000000000000000000000000A3
:106DF0000000000000000000000000000000000093
:106E00000000000000000000000000000000000082
:106E10000000000000000000000000000000000072
:106E20000000000000000000000000000000000062
:106E30000000000000000000000000000000000052
:046E4000F8E703204C
:046E4400000000004A
:106E4E0000000102030405060708090A0B0C0D0ECB
:106E5E000F101112131415161718191A1B1C1D1EBC
:046E6E001F202800B9
:046E72007856341208
:04000003B000401CED
:00000001FF
